{
  "_format": "hh-sol-artifact-1",
  "contractName": "EARNPRIVATE",
  "sourceName": "contracts/Earni.sol",
  "abi": [
    {
      "inputs": [
        {
          "internalType": "address",
          "name": "_walletPool",
          "type": "address"
        },
        {
          "internalType": "address",
          "name": "_TokenRecibe",
          "type": "address"
        },
        {
          "internalType": "bool",
          "name": "_whiteListed",
          "type": "bool"
        }
      ],
      "stateMutability": "nonpayable",
      "type": "constructor"
    },
    {
      "anonymous": false,
      "inputs": [
        {
          "indexed": false,
          "internalType": "bool",
          "name": "locked",
          "type": "bool"
        }
      ],
      "name": "ContractLocked",
      "type": "event"
    },
    {
      "anonymous": false,
      "inputs": [
        {
          "indexed": true,
          "internalType": "address",
          "name": "user",
          "type": "address"
        },
        {
          "indexed": false,
          "internalType": "uint256",
          "name": "amount",
          "type": "uint256"
        },
        {
          "indexed": false,
          "internalType": "uint256",
          "name": "depositId",
          "type": "uint256"
        }
      ],
      "name": "DepositMade",
      "type": "event"
    },
    {
      "anonymous": false,
      "inputs": [
        {
          "indexed": true,
          "internalType": "address",
          "name": "user",
          "type": "address"
        },
        {
          "indexed": false,
          "internalType": "uint256",
          "name": "depositId",
          "type": "uint256"
        },
        {
          "indexed": false,
          "internalType": "uint256",
          "name": "amount",
          "type": "uint256"
        },
        {
          "indexed": false,
          "internalType": "uint256",
          "name": "initTime",
          "type": "uint256"
        },
        {
          "indexed": false,
          "internalType": "uint256",
          "name": "finishTime",
          "type": "uint256"
        },
        {
          "indexed": false,
          "internalType": "uint256",
          "name": "earn",
          "type": "uint256"
        }
      ],
      "name": "DepositUpdated",
      "type": "event"
    },
    {
      "anonymous": false,
      "inputs": [
        {
          "indexed": true,
          "internalType": "address",
          "name": "previousOwner",
          "type": "address"
        },
        {
          "indexed": true,
          "internalType": "address",
          "name": "newOwner",
          "type": "address"
        }
      ],
      "name": "OwnershipTransferred",
      "type": "event"
    },
    {
      "anonymous": false,
      "inputs": [
        {
          "indexed": true,
          "internalType": "address",
          "name": "user",
          "type": "address"
        },
        {
          "indexed": false,
          "internalType": "uint256",
          "name": "amount",
          "type": "uint256"
        },
        {
          "indexed": false,
          "internalType": "uint256",
          "name": "depositId",
          "type": "uint256"
        }
      ],
      "name": "WithdrawalMade",
      "type": "event"
    },
    {
      "anonymous": false,
      "inputs": [
        {
          "indexed": false,
          "internalType": "address",
          "name": "user",
          "type": "address"
        },
        {
          "indexed": false,
          "internalType": "uint256",
          "name": "from",
          "type": "uint256"
        },
        {
          "indexed": false,
          "internalType": "uint256",
          "name": "to",
          "type": "uint256"
        }
      ],
      "name": "earlyClaim",
      "type": "event"
    },
    {
      "inputs": [
        {
          "internalType": "uint256",
          "name": "_days",
          "type": "uint256"
        }
      ],
      "name": "ChangeDays",
      "outputs": [],
      "stateMutability": "nonpayable",
      "type": "function"
    },
    {
      "inputs": [
        {
          "internalType": "uint256",
          "name": "_amount",
          "type": "uint256"
        }
      ],
      "name": "ChangeLimitAmount",
      "outputs": [],
      "stateMutability": "nonpayable",
      "type": "function"
    },
    {
      "inputs": [
        {
          "internalType": "uint256",
          "name": "_amount",
          "type": "uint256"
        }
      ],
      "name": "ChangeMaxAmount",
      "outputs": [],
      "stateMutability": "nonpayable",
      "type": "function"
    },
    {
      "inputs": [
        {
          "internalType": "uint256",
          "name": "_amount",
          "type": "uint256"
        }
      ],
      "name": "ChangeMinAmount",
      "outputs": [],
      "stateMutability": "nonpayable",
      "type": "function"
    },
    {
      "inputs": [
        {
          "internalType": "uint256",
          "name": "_percent",
          "type": "uint256"
        }
      ],
      "name": "ChangePercent",
      "outputs": [],
      "stateMutability": "nonpayable",
      "type": "function"
    },
    {
      "inputs": [
        {
          "internalType": "uint256",
          "name": "_recolect",
          "type": "uint256"
        }
      ],
      "name": "ChangeRecolect",
      "outputs": [],
      "stateMutability": "nonpayable",
      "type": "function"
    },
    {
      "inputs": [
        {
          "internalType": "address",
          "name": "_wallet",
          "type": "address"
        }
      ],
      "name": "ChangeWalletRecibe",
      "outputs": [],
      "stateMutability": "nonpayable",
      "type": "function"
    },
    {
      "inputs": [
        {
          "internalType": "uint256",
          "name": "_amount",
          "type": "uint256"
        }
      ],
      "name": "Deposit",
      "outputs": [],
      "stateMutability": "nonpayable",
      "type": "function"
    },
    {
      "inputs": [
        {
          "internalType": "address",
          "name": "_user",
          "type": "address"
        },
        {
          "internalType": "uint256",
          "name": "_depositId",
          "type": "uint256"
        }
      ],
      "name": "EarlyClaim",
      "outputs": [],
      "stateMutability": "nonpayable",
      "type": "function"
    },
    {
      "inputs": [
        {
          "internalType": "uint256",
          "name": "_depositId",
          "type": "uint256"
        }
      ],
      "name": "EarnDeposit",
      "outputs": [],
      "stateMutability": "nonpayable",
      "type": "function"
    },
    {
      "inputs": [
        {
          "internalType": "uint256",
          "name": "_limit",
          "type": "uint256"
        },
        {
          "internalType": "uint256",
          "name": "_maxAmount",
          "type": "uint256"
        },
        {
          "internalType": "uint256",
          "name": "_minAmount",
          "type": "uint256"
        },
        {
          "internalType": "uint256",
          "name": "_percent",
          "type": "uint256"
        },
        {
          "internalType": "uint256",
          "name": "_days",
          "type": "uint256"
        }
      ],
      "name": "Initialized",
      "outputs": [],
      "stateMutability": "nonpayable",
      "type": "function"
    },
    {
      "inputs": [],
      "name": "MaxAmount",
      "outputs": [
        {
          "internalType": "uint256",
          "name": "",
          "type": "uint256"
        }
      ],
      "stateMutability": "view",
      "type": "function"
    },
    {
      "inputs": [
        {
          "internalType": "address",
          "name": "_user",
          "type": "address"
        },
        {
          "internalType": "uint256",
          "name": "_depositId",
          "type": "uint256"
        },
        {
          "internalType": "uint256",
          "name": "_amount",
          "type": "uint256"
        },
        {
          "internalType": "uint256",
          "name": "_initTime",
          "type": "uint256"
        },
        {
          "internalType": "uint256",
          "name": "_finishTime",
          "type": "uint256"
        },
        {
          "internalType": "uint256",
          "name": "_earn",
          "type": "uint256"
        }
      ],
      "name": "Migration",
      "outputs": [],
      "stateMutability": "nonpayable",
      "type": "function"
    },
    {
      "inputs": [],
      "name": "MinAmount",
      "outputs": [
        {
          "internalType": "uint256",
          "name": "",
          "type": "uint256"
        }
      ],
      "stateMutability": "view",
      "type": "function"
    },
    {
      "inputs": [],
      "name": "PercentEarn",
      "outputs": [
        {
          "internalType": "uint256",
          "name": "",
          "type": "uint256"
        }
      ],
      "stateMutability": "view",
      "type": "function"
    },
    {
      "inputs": [
        {
          "internalType": "address",
          "name": "_tokens",
          "type": "address"
        }
      ],
      "name": "RecoverTokens",
      "outputs": [],
      "stateMutability": "nonpayable",
      "type": "function"
    },
    {
      "inputs": [],
      "name": "TokenRecibe",
      "outputs": [
        {
          "internalType": "address",
          "name": "",
          "type": "address"
        }
      ],
      "stateMutability": "view",
      "type": "function"
    },
    {
      "inputs": [],
      "name": "ViewDay",
      "outputs": [
        {
          "internalType": "uint256",
          "name": "",
          "type": "uint256"
        }
      ],
      "stateMutability": "view",
      "type": "function"
    },
    {
      "inputs": [
        {
          "internalType": "address[]",
          "name": "addresses",
          "type": "address[]"
        }
      ],
      "name": "addToWhitelist",
      "outputs": [],
      "stateMutability": "nonpayable",
      "type": "function"
    },
    {
      "inputs": [
        {
          "internalType": "address",
          "name": "_wallet",
          "type": "address"
        }
      ],
      "name": "addUserWhiteList",
      "outputs": [],
      "stateMutability": "nonpayable",
      "type": "function"
    },
    {
      "inputs": [
        {
          "internalType": "address",
          "name": "",
          "type": "address"
        },
        {
          "internalType": "uint256",
          "name": "",
          "type": "uint256"
        }
      ],
      "name": "balanceUser",
      "outputs": [
        {
          "internalType": "uint256",
          "name": "Amount",
          "type": "uint256"
        },
        {
          "internalType": "uint256",
          "name": "initTime",
          "type": "uint256"
        },
        {
          "internalType": "uint256",
          "name": "finishTime",
          "type": "uint256"
        },
        {
          "internalType": "uint256",
          "name": "Earn",
          "type": "uint256"
        }
      ],
      "stateMutability": "view",
      "type": "function"
    },
    {
      "inputs": [
        {
          "internalType": "address",
          "name": "",
          "type": "address"
        }
      ],
      "name": "depositCount",
      "outputs": [
        {
          "internalType": "uint256",
          "name": "",
          "type": "uint256"
        }
      ],
      "stateMutability": "view",
      "type": "function"
    },
    {
      "inputs": [],
      "name": "getWhiteList",
      "outputs": [
        {
          "internalType": "bool",
          "name": "",
          "type": "bool"
        }
      ],
      "stateMutability": "view",
      "type": "function"
    },
    {
      "inputs": [],
      "name": "limit",
      "outputs": [
        {
          "internalType": "uint256",
          "name": "",
          "type": "uint256"
        }
      ],
      "stateMutability": "view",
      "type": "function"
    },
    {
      "inputs": [],
      "name": "lock",
      "outputs": [],
      "stateMutability": "nonpayable",
      "type": "function"
    },
    {
      "inputs": [],
      "name": "owner",
      "outputs": [
        {
          "internalType": "address",
          "name": "",
          "type": "address"
        }
      ],
      "stateMutability": "view",
      "type": "function"
    },
    {
      "inputs": [],
      "name": "recolect",
      "outputs": [
        {
          "internalType": "uint256",
          "name": "",
          "type": "uint256"
        }
      ],
      "stateMutability": "view",
      "type": "function"
    },
    {
      "inputs": [
        {
          "internalType": "address[]",
          "name": "addresses",
          "type": "address[]"
        }
      ],
      "name": "removeFromWhitelist",
      "outputs": [],
      "stateMutability": "nonpayable",
      "type": "function"
    },
    {
      "inputs": [],
      "name": "renounceOwnership",
      "outputs": [],
      "stateMutability": "nonpayable",
      "type": "function"
    },
    {
      "inputs": [
        {
          "internalType": "address",
          "name": "newOwner",
          "type": "address"
        }
      ],
      "name": "transferOwnership",
      "outputs": [],
      "stateMutability": "nonpayable",
      "type": "function"
    },
    {
      "inputs": [],
      "name": "walletPool",
      "outputs": [
        {
          "internalType": "address",
          "name": "",
          "type": "address"
        }
      ],
      "stateMutability": "view",
      "type": "function"
    },
    {
      "inputs": [
        {
          "internalType": "address",
          "name": "",
          "type": "address"
        }
      ],
      "name": "whiteList",
      "outputs": [
        {
          "internalType": "bool",
          "name": "",
          "type": "bool"
        }
      ],
      "stateMutability": "view",
      "type": "function"
    }
  ],
  "bytecode": "0x608060405262015180600b553480156200001857600080fd5b50604051620031993803806200319983398181016040528101906200003e919062000204565b6200005e620000526200010a60201b60201c565b6200011260201b60201c565b6001808190555082600260006101000a81548173ffffffffffffffffffffffffffffffffffffffff021916908373ffffffffffffffffffffffffffffffffffffffff16021790555081600360006101000a81548173ffffffffffffffffffffffffffffffffffffffff021916908373ffffffffffffffffffffffffffffffffffffffff16021790555080600d60026101000a81548160ff021916908315150217905550505050620002d9565b600033905090565b60008060009054906101000a900473ffffffffffffffffffffffffffffffffffffffff169050816000806101000a81548173ffffffffffffffffffffffffffffffffffffffff021916908373ffffffffffffffffffffffffffffffffffffffff1602179055508173ffffffffffffffffffffffffffffffffffffffff168173ffffffffffffffffffffffffffffffffffffffff167f8be0079c531659141344cd1fd0a4f28419497f9722a3daafe3b4186f6b6457e060405160405180910390a35050565b600081519050620001e781620002a5565b92915050565b600081519050620001fe81620002bf565b92915050565b60008060006060848603121562000220576200021f620002a0565b5b60006200023086828701620001d6565b93505060206200024386828701620001d6565b92505060406200025686828701620001ed565b9150509250925092565b60006200026d8262000280565b9050919050565b60008115159050919050565b600073ffffffffffffffffffffffffffffffffffffffff82169050919050565b600080fd5b620002b08162000260565b8114620002bc57600080fd5b50565b620002ca8162000274565b8114620002d657600080fd5b50565b612eb080620002e96000396000f3fe608060405234801561001057600080fd5b50600436106101f05760003560e01c8063714a2b901161010f578063bb1711a6116100a2578063ec65240611610071578063ec65240614610530578063f2fde38b1461054e578063f4443d9a1461056a578063f83d08ba1461059a576101f0565b8063bb1711a6146104be578063bdcbd5a9146104da578063c760dad5146104f6578063e5c154f114610512576101f0565b80638da5cb5b116100de5780638da5cb5b1461043357806397a6410114610451578063a4d66daf1461046d578063b8d25a431461048b576101f0565b8063714a2b90146103d3578063715018a6146103ef5780637586c414146103f95780637f64978314610417576101f0565b806347afd82f1161018757806360a810021161015657806360a810021461035f5780636b68f8101461037d5780636ff8f8c2146103995780636ffe7bbe146103b5576101f0565b806347afd82f146102ed5780634d6ce1e514610309578063548db1741461032557806354f3a6e014610341576101f0565b80632a8a9938116101c35780632a8a9938146102695780633366bff914610285578063372c12b1146102a1578063478b0f87146102d1576101f0565b806309a9d76c146101f55780630a1e63141461021357806313cad1d11461023157806316451dc91461024d575b600080fd5b6101fd6105a4565b60405161020a9190612434565b60405180910390f35b61021b6105bb565b6040516102289190612382565b60405180910390f35b61024b60048036038101906102469190611fa1565b6105e1565b005b61026760048036038101906102629190611fa1565b6105f3565b005b610283600480360381019061027e9190611e2d565b610612565b005b61029f600480360381019061029a9190611ffb565b610675565b005b6102bb60048036038101906102b69190611e2d565b610742565b6040516102c89190612434565b60405180910390f35b6102eb60048036038101906102e69190611e2d565b610762565b005b61030760048036038101906103029190611e2d565b6108c7565b005b610323600480360381019061031e9190611fa1565b610913565b005b61033f600480360381019061033a9190611f27565b6110ef565b005b6103496111a2565b60405161035691906126ef565b60405180910390f35b6103676111a8565b60405161037491906126ef565b60405180910390f35b61039760048036038101906103929190611fa1565b6111ae565b005b6103b360048036038101906103ae9190611fa1565b6111c0565b005b6103bd6111d2565b6040516103ca91906126ef565b60405180910390f35b6103ed60048036038101906103e89190611e5a565b6111e9565b005b6103f7611360565b005b610401611374565b60405161040e91906126ef565b60405180910390f35b610431600480360381019061042c9190611f27565b61137a565b005b61043b61142d565b6040516104489190612382565b60405180910390f35b61046b60048036038101906104669190611fa1565b611456565b005b6104756114ab565b60405161048291906126ef565b60405180910390f35b6104a560048036038101906104a09190611e5a565b6114b1565b6040516104b59493929190612733565b60405180910390f35b6104d860048036038101906104d39190611fa1565b6114fe565b005b6104f460048036038101906104ef9190611e9a565b611510565b005b610510600480360381019061050b9190611fa1565b6115cb565b005b61051a611a72565b6040516105279190612382565b60405180910390f35b610538611a98565b60405161054591906126ef565b60405180910390f35b61056860048036038101906105639190611e2d565b611a9e565b005b610584600480360381019061057f9190611e2d565b611b22565b60405161059191906126ef565b60405180910390f35b6105a2611b3a565b005b6000600d60029054906101000a900460ff16905090565b600360009054906101000a900473ffffffffffffffffffffffffffffffffffffffff1681565b6105e9611bb4565b8060088190555050565b6105fb611bb4565b600b54816106099190612863565b600c8190555050565b61061a611bb4565b6001601060008373ffffffffffffffffffffffffffffffffffffffff1673ffffffffffffffffffffffffffffffffffffffff16815260200190815260200160002060006101000a81548160ff02191690831515021790555050565b61067d611bb4565b600d60019054906101000a900460ff16156106cd576040517f08c379a00000000000000000000000000000000000000000000000000000000081526004016106c49061244f565b60405180910390fd5b60006006819055506000600d60006101000a81548160ff02191690831515021790555084600781905550836008819055508260098190555081600a81905550600b548161071a9190612863565b600c819055506001600d60016101000a81548160ff0219169083151502179055505050505050565b60106020528060005260406000206000915054906101000a900460ff1681565b61076a611bb4565b60008173ffffffffffffffffffffffffffffffffffffffff1663a9059cbb338473ffffffffffffffffffffffffffffffffffffffff166370a08231306040518263ffffffff1660e01b81526004016107c29190612382565b60206040518083038186803b1580156107da57600080fd5b505afa1580156107ee573d6000803e3d6000fd5b505050506040513d601f19601f820116820180604052508101906108129190611fce565b6040518363ffffffff1660e01b815260040161082f9291906123d4565b602060405180830381600087803b15801561084957600080fd5b505af115801561085d573d6000803e3d6000fd5b505050506040513d601f19601f820116820180604052508101906108819190611f74565b9050806108c3576040517f08c379a00000000000000000000000000000000000000000000000000000000081526004016108ba906124af565b60405180910390fd5b5050565b6108cf611bb4565b80600260006101000a81548173ffffffffffffffffffffffffffffffffffffffff021916908373ffffffffffffffffffffffffffffffffffffffff16021790555050565b61091b611c32565b600d60009054906101000a900460ff161561096b576040517f08c379a00000000000000000000000000000000000000000000000000000000081526004016109629061246f565b60405180910390fd5b600d60019054906101000a900460ff166109ba576040517f08c379a00000000000000000000000000000000000000000000000000000000081526004016109b1906125ef565b60405180910390fd5b600d60029054906101000a900460ff1615610a5c57601060003373ffffffffffffffffffffffffffffffffffffffff1673ffffffffffffffffffffffffffffffffffffffff16815260200190815260200160002060009054906101000a900460ff16610a5b576040517f08c379a0000000000000000000000000000000000000000000000000000000008152600401610a529061250f565b60405180910390fd5b5b6000600360009054906101000a900473ffffffffffffffffffffffffffffffffffffffff169050600081905060008173ffffffffffffffffffffffffffffffffffffffff1663095ea7b330866040518363ffffffff1660e01b8152600401610ac59291906123d4565b602060405180830381600087803b158015610adf57600080fd5b505af1158015610af3573d6000803e3d6000fd5b505050506040513d601f19601f82011682018060405250810190610b179190611f74565b905080610b59576040517f08c379a0000000000000000000000000000000000000000000000000000000008152600401610b509061256f565b60405180910390fd5b600754600f60003373ffffffffffffffffffffffffffffffffffffffff1673ffffffffffffffffffffffffffffffffffffffff1681526020019081526020016000205410610bdc576040517f08c379a0000000000000000000000000000000000000000000000000000000008152600401610bd39061264f565b60405180910390fd5b60008273ffffffffffffffffffffffffffffffffffffffff166370a08231336040518263ffffffff1660e01b8152600401610c179190612382565b60206040518083038186803b158015610c2f57600080fd5b505afa158015610c43573d6000803e3d6000fd5b505050506040513d601f19601f82011682018060405250810190610c679190611fce565b905084811015610cac576040517f08c379a0000000000000000000000000000000000000000000000000000000008152600401610ca3906124ef565b60405180910390fd5b60008511610cef576040517f08c379a0000000000000000000000000000000000000000000000000000000008152600401610ce6906124cf565b60405180910390fd5b600954851015610d34576040517f08c379a0000000000000000000000000000000000000000000000000000000008152600401610d2b906125af565b60405180910390fd5b600854851115610d79576040517f08c379a0000000000000000000000000000000000000000000000000000000008152600401610d709061268f565b60405180910390fd5b60075485600654610d8a91906127dc565b1115610dcb576040517f08c379a0000000000000000000000000000000000000000000000000000000008152600401610dc29061260f565b60405180910390fd5b60006040518060800160405280600081526020016000815260200160008152602001600081525090508581600001818152505042816020018181525050600c5442610e1691906127dc565b816040018181525050610e476064610e39600a5489611c8290919063ffffffff16565b611c9890919063ffffffff16565b816060018181525050600e60003373ffffffffffffffffffffffffffffffffffffffff1673ffffffffffffffffffffffffffffffffffffffff168152602001908152602001600020819080600181540180825580915050600190039060005260206000209060040201600090919091909150600082015181600001556020820151816001015560408201518160020155606082015181600301555050600f60003373ffffffffffffffffffffffffffffffffffffffff1673ffffffffffffffffffffffffffffffffffffffff1681526020019081526020016000206000815480929190610f3390612905565b91905055508560066000828254610f4a91906127dc565b925050819055506000600e60003373ffffffffffffffffffffffffffffffffffffffff1673ffffffffffffffffffffffffffffffffffffffff16815260200190815260200160002080549050905060008573ffffffffffffffffffffffffffffffffffffffff166323b872dd33600260009054906101000a900473ffffffffffffffffffffffffffffffffffffffff168b6040518463ffffffff1660e01b8152600401610ff99392919061239d565b602060405180830381600087803b15801561101357600080fd5b505af1158015611027573d6000803e3d6000fd5b505050506040513d601f19601f8201168201806040525081019061104b9190611f74565b90508061108d576040517f08c379a0000000000000000000000000000000000000000000000000000000008152600401611084906124af565b60405180910390fd5b3373ffffffffffffffffffffffffffffffffffffffff167f0b05f0d1cd0819f155b8a61f60baf7767c1ee49d04aeaab701df236140eb93f989846040516110d592919061270a565b60405180910390a2505050505050506110ec611cae565b50565b6110f7611bb4565b60005b8282905081101561119d57600083838381811061111a576111196129ac565b5b905060200201602081019061112f9190611e2d565b90506000601060008373ffffffffffffffffffffffffffffffffffffffff1673ffffffffffffffffffffffffffffffffffffffff16815260200190815260200160002060006101000a81548160ff02191690831515021790555050808061119590612905565b9150506110fa565b505050565b600a5481565b60085481565b6111b6611bb4565b8060078190555050565b6111c8611bb4565b8060068190555050565b6000600b54600c546111e49190612832565b905090565b6111f1611bb4565b6000600e60008473ffffffffffffffffffffffffffffffffffffffff1673ffffffffffffffffffffffffffffffffffffffff1681526020019081526020016000208281548110611244576112436129ac565b5b906000526020600020906004020160405180608001604052908160008201548152602001600182015481526020016002820154815260200160038201548152505090504281604001818152505080600e60008573ffffffffffffffffffffffffffffffffffffffff1673ffffffffffffffffffffffffffffffffffffffff16815260200190815260200160002083815481106112e3576112e26129ac565b5b9060005260206000209060040201600082015181600001556020820151816001015560408201518160020155606082015181600301559050507fb79cc8bc32f75c57b53b9fe33ff31302d8befe74ba35a51afd8ebb6da0bf668483826040015142604051611353939291906123fd565b60405180910390a1505050565b611368611bb4565b6113726000611cb7565b565b60065481565b611382611bb4565b60005b828290508110156114285760008383838181106113a5576113a46129ac565b5b90506020020160208101906113ba9190611e2d565b90506001601060008373ffffffffffffffffffffffffffffffffffffffff1673ffffffffffffffffffffffffffffffffffffffff16815260200190815260200160002060006101000a81548160ff02191690831515021790555050808061142090612905565b915050611385565b505050565b60008060009054906101000a900473ffffffffffffffffffffffffffffffffffffffff16905090565b61145e611bb4565b600081116114a1576040517f08c379a0000000000000000000000000000000000000000000000000000000008152600401611498906126af565b60405180910390fd5b80600a8190555050565b60075481565b600e60205281600052604060002081815481106114cd57600080fd5b9060005260206000209060040201600091509150508060000154908060010154908060020154908060030154905084565b611506611bb4565b8060098190555050565b611518611bb4565b604051806080016040528085815260200184815260200183815260200182815250600e60008873ffffffffffffffffffffffffffffffffffffffff1673ffffffffffffffffffffffffffffffffffffffff168152602001908152602001600020868154811061158a576115896129ac565b5b906000526020600020906004020160008201518160000155602082015181600101556040820151816002015560608201518160030155905050505050505050565b6115d3611c32565b600d60009054906101000a900460ff1615611623576040517f08c379a000000000000000000000000000000000000000000000000000000000815260040161161a9061246f565b60405180910390fd5b600d60019054906101000a900460ff16611672576040517f08c379a00000000000000000000000000000000000000000000000000000000081526004016116699061258f565b60405180910390fd5b600d60029054906101000a900460ff161561171457601060003373ffffffffffffffffffffffffffffffffffffffff1673ffffffffffffffffffffffffffffffffffffffff16815260200190815260200160002060009054906101000a900460ff16611713576040517f08c379a000000000000000000000000000000000000000000000000000000000815260040161170a9061250f565b60405180910390fd5b5b6000600e60003373ffffffffffffffffffffffffffffffffffffffff1673ffffffffffffffffffffffffffffffffffffffff16815260200190815260200160002090508080549050821061179d576040517f08c379a00000000000000000000000000000000000000000000000000000000081526004016117949061262f565b60405180910390fd5b60008183815481106117b2576117b16129ac565b5b906000526020600020906004020190506000816000015411611809576040517f08c379a00000000000000000000000000000000000000000000000000000000081526004016118009061254f565b60405180910390fd5b60008160020154905042811115611855576040517f08c379a000000000000000000000000000000000000000000000000000000000815260040161184c9061252f565b60405180910390fd5b600082600301541161189c576040517f08c379a00000000000000000000000000000000000000000000000000000000081526004016118939061266f565b60405180910390fd5b60008260030154905060008360000181905550600083600301819055503373ffffffffffffffffffffffffffffffffffffffff167f2d4d49c3e017b8235c908cbaa83a2431a08f3b950712696ece2088964fd399f0828760405161190192919061270a565b60405180910390a23373ffffffffffffffffffffffffffffffffffffffff167f744927bb11003d6407e55b316d74e04b5c694659593f9e1e9201ab0f097af9b6868560000154866001015487600201548860030154604051611967959493929190612778565b60405180910390a26000600360009054906101000a900473ffffffffffffffffffffffffffffffffffffffff1673ffffffffffffffffffffffffffffffffffffffff1663a9059cbb33846040518363ffffffff1660e01b81526004016119ce9291906123d4565b602060405180830381600087803b1580156119e857600080fd5b505af11580156119fc573d6000803e3d6000fd5b505050506040513d601f19601f82011682018060405250810190611a209190611f74565b905080611a62576040517f08c379a0000000000000000000000000000000000000000000000000000000008152600401611a59906124af565b60405180910390fd5b5050505050611a6f611cae565b50565b600260009054906101000a900473ffffffffffffffffffffffffffffffffffffffff1681565b60095481565b611aa6611bb4565b600073ffffffffffffffffffffffffffffffffffffffff168173ffffffffffffffffffffffffffffffffffffffff161415611b16576040517f08c379a0000000000000000000000000000000000000000000000000000000008152600401611b0d9061248f565b60405180910390fd5b611b1f81611cb7565b50565b600f6020528060005260406000206000915090505481565b611b42611bb4565b600d60009054906101000a900460ff1615600d60006101000a81548160ff0219169083151502179055507fb08f70f6219c5c2ed5e08e7cf45080e4840fde880b27a0841faf45475cd02d2e600d60009054906101000a900460ff16604051611baa9190612434565b60405180910390a1565b611bbc611d7b565b73ffffffffffffffffffffffffffffffffffffffff16611bda61142d565b73ffffffffffffffffffffffffffffffffffffffff1614611c30576040517f08c379a0000000000000000000000000000000000000000000000000000000008152600401611c27906125cf565b60405180910390fd5b565b60026001541415611c78576040517f08c379a0000000000000000000000000000000000000000000000000000000008152600401611c6f906126cf565b60405180910390fd5b6002600181905550565b60008183611c909190612863565b905092915050565b60008183611ca69190612832565b905092915050565b60018081905550565b60008060009054906101000a900473ffffffffffffffffffffffffffffffffffffffff169050816000806101000a81548173ffffffffffffffffffffffffffffffffffffffff021916908373ffffffffffffffffffffffffffffffffffffffff1602179055508173ffffffffffffffffffffffffffffffffffffffff168173ffffffffffffffffffffffffffffffffffffffff167f8be0079c531659141344cd1fd0a4f28419497f9722a3daafe3b4186f6b6457e060405160405180910390a35050565b600033905090565b600081359050611d9281612e35565b92915050565b60008083601f840112611dae57611dad6129e0565b5b8235905067ffffffffffffffff811115611dcb57611dca6129db565b5b602083019150836020820283011115611de757611de66129e5565b5b9250929050565b600081519050611dfd81612e4c565b92915050565b600081359050611e1281612e63565b92915050565b600081519050611e2781612e63565b92915050565b600060208284031215611e4357611e426129ef565b5b6000611e5184828501611d83565b91505092915050565b60008060408385031215611e7157611e706129ef565b5b6000611e7f85828601611d83565b9250506020611e9085828601611e03565b9150509250929050565b60008060008060008060c08789031215611eb757611eb66129ef565b5b6000611ec589828a01611d83565b9650506020611ed689828a01611e03565b9550506040611ee789828a01611e03565b9450506060611ef889828a01611e03565b9350506080611f0989828a01611e03565b92505060a0611f1a89828a01611e03565b9150509295509295509295565b60008060208385031215611f3e57611f3d6129ef565b5b600083013567ffffffffffffffff811115611f5c57611f5b6129ea565b5b611f6885828601611d98565b92509250509250929050565b600060208284031215611f8a57611f896129ef565b5b6000611f9884828501611dee565b91505092915050565b600060208284031215611fb757611fb66129ef565b5b6000611fc584828501611e03565b91505092915050565b600060208284031215611fe457611fe36129ef565b5b6000611ff284828501611e18565b91505092915050565b600080600080600060a08688031215612017576120166129ef565b5b600061202588828901611e03565b955050602061203688828901611e03565b945050604061204788828901611e03565b935050606061205888828901611e03565b925050608061206988828901611e03565b9150509295509295909350565b61207f816128bd565b82525050565b61208e816128cf565b82525050565b60006120a16019836127cb565b91506120ac826129f4565b602082019050919050565b60006120c4600b836127cb565b91506120cf82612a1d565b602082019050919050565b60006120e76026836127cb565b91506120f282612a46565b604082019050919050565b600061210a600f836127cb565b915061211582612a95565b602082019050919050565b600061212d6020836127cb565b915061213882612abe565b602082019050919050565b60006121506014836127cb565b915061215b82612ae7565b602082019050919050565b60006121736018836127cb565b915061217e82612b10565b602082019050919050565b6000612196603d836127cb565b91506121a182612b39565b604082019050919050565b60006121b96033836127cb565b91506121c482612b88565b604082019050919050565b60006121dc600e836127cb565b91506121e782612bd7565b602082019050919050565b60006121ff6017836127cb565b915061220a82612c00565b602082019050919050565b60006122226027836127cb565b915061222d82612c29565b604082019050919050565b60006122456020836127cb565b915061225082612c78565b602082019050919050565b60006122686018836127cb565b915061227382612ca1565b602082019050919050565b600061228b6017836127cb565b915061229682612cca565b602082019050919050565b60006122ae6012836127cb565b91506122b982612cf3565b602082019050919050565b60006122d1601e836127cb565b91506122dc82612d1c565b602082019050919050565b60006122f46027836127cb565b91506122ff82612d45565b604082019050919050565b6000612317602a836127cb565b915061232282612d94565b604082019050919050565b600061233a6017836127cb565b915061234582612de3565b602082019050919050565b600061235d601f836127cb565b915061236882612e0c565b602082019050919050565b61237c816128fb565b82525050565b60006020820190506123976000830184612076565b92915050565b60006060820190506123b26000830186612076565b6123bf6020830185612076565b6123cc6040830184612373565b949350505050565b60006040820190506123e96000830185612076565b6123f66020830184612373565b9392505050565b60006060820190506124126000830186612076565b61241f6020830185612373565b61242c6040830184612373565b949350505050565b60006020820190506124496000830184612085565b92915050565b6000602082019050818103600083015261246881612094565b9050919050565b60006020820190508181036000830152612488816120b7565b9050919050565b600060208201905081810360008301526124a8816120da565b9050919050565b600060208201905081810360008301526124c8816120fd565b9050919050565b600060208201905081810360008301526124e881612120565b9050919050565b6000602082019050818103600083015261250881612143565b9050919050565b6000602082019050818103600083015261252881612166565b9050919050565b6000602082019050818103600083015261254881612189565b9050919050565b60006020820190508181036000830152612568816121ac565b9050919050565b60006020820190508181036000830152612588816121cf565b9050919050565b600060208201905081810360008301526125a8816121f2565b9050919050565b600060208201905081810360008301526125c881612215565b9050919050565b600060208201905081810360008301526125e881612238565b9050919050565b600060208201905081810360008301526126088161225b565b9050919050565b600060208201905081810360008301526126288161227e565b9050919050565b60006020820190508181036000830152612648816122a1565b9050919050565b60006020820190508181036000830152612668816122c4565b9050919050565b60006020820190508181036000830152612688816122e7565b9050919050565b600060208201905081810360008301526126a88161230a565b9050919050565b600060208201905081810360008301526126c88161232d565b9050919050565b600060208201905081810360008301526126e881612350565b9050919050565b60006020820190506127046000830184612373565b92915050565b600060408201905061271f6000830185612373565b61272c6020830184612373565b9392505050565b60006080820190506127486000830187612373565b6127556020830186612373565b6127626040830185612373565b61276f6060830184612373565b95945050505050565b600060a08201905061278d6000830188612373565b61279a6020830187612373565b6127a76040830186612373565b6127b46060830185612373565b6127c16080830184612373565b9695505050505050565b600082825260208201905092915050565b60006127e7826128fb565b91506127f2836128fb565b9250827fffffffffffffffffffffffffffffffffffffffffffffffffffffffffffffffff038211156128275761282661294e565b5b828201905092915050565b600061283d826128fb565b9150612848836128fb565b9250826128585761285761297d565b5b828204905092915050565b600061286e826128fb565b9150612879836128fb565b9250817fffffffffffffffffffffffffffffffffffffffffffffffffffffffffffffffff04831182151516156128b2576128b161294e565b5b828202905092915050565b60006128c8826128db565b9050919050565b60008115159050919050565b600073ffffffffffffffffffffffffffffffffffffffff82169050919050565b6000819050919050565b6000612910826128fb565b91507fffffffffffffffffffffffffffffffffffffffffffffffffffffffffffffffff8214156129435761294261294e565b5b600182019050919050565b7f4e487b7100000000000000000000000000000000000000000000000000000000600052601160045260246000fd5b7f4e487b7100000000000000000000000000000000000000000000000000000000600052601260045260246000fd5b7f4e487b7100000000000000000000000000000000000000000000000000000000600052603260045260246000fd5b600080fd5b600080fd5b600080fd5b600080fd5b600080fd5b7f506f6f6c20686173206265656e20696e697469616c697a656400000000000000600082015250565b7f506175736564204561726e000000000000000000000000000000000000000000600082015250565b7f4f776e61626c653a206e6577206f776e657220697320746865207a65726f206160008201527f6464726573730000000000000000000000000000000000000000000000000000602082015250565b7f5472616e73666572206661696c65640000000000000000000000000000000000600082015250565b7f416d6f756e74206d7573742062652067726561746572207468616e207a65726f600082015250565b7f496e73756666696369656e742062616c616e6365000000000000000000000000600082015250565b7f596f7520617265206e6f7420696e2077686974656c6973740000000000000000600082015250565b7f596f75206e65656420746f207761697420666f7220746865206465706f73697460008201527f20746f2066696e697368206265666f7265207769746864726177696e67000000602082015250565b7f596f75206861766520616c72656164792077697468647261776e20796f75722060008201527f6361706974616c20616e642070726f6669747300000000000000000000000000602082015250565b7f417070726f7665206661696c6564000000000000000000000000000000000000600082015250565b7f506f6f6c206973206e6f7420696e697469616c697a6564000000000000000000600082015250565b7f416d6f756e74206973206c657373207468616e20746865206d696e696d756d2060008201527f616c6c6f77656400000000000000000000000000000000000000000000000000602082015250565b7f4f776e61626c653a2063616c6c6572206973206e6f7420746865206f776e6572600082015250565b7f506f6f6c20697473206e6f7420696e697469616c697a65640000000000000000600082015250565b7f436f6e7472616374206c696d6974206578636565646564000000000000000000600082015250565b7f496e76616c6964206465706f7369742049440000000000000000000000000000600082015250565b7f55736572206861732072656163686564206465706f736974206c696d69740000600082015250565b7f596f75206861766520616c72656164792077697468647261776e20796f75722060008201527f7265776172647300000000000000000000000000000000000000000000000000602082015250565b7f416d6f756e742069732067726561746572207468616e20746865206d6178696d60008201527f756d20616c6c6f77656400000000000000000000000000000000000000000000602082015250565b7f746865206e756d626572207468616e2067726561742030000000000000000000600082015250565b7f5265656e7472616e637947756172643a207265656e7472616e742063616c6c00600082015250565b612e3e816128bd565b8114612e4957600080fd5b50565b612e55816128cf565b8114612e6057600080fd5b50565b612e6c816128fb565b8114612e7757600080fd5b5056fea2646970667358221220e5adb0e07bbe2428fba42d12ed722ef8313a87507d45a4d0795a44658f45be6d64736f6c63430008050033",
  "linkReferences": {},
  "deployedLinkReferences": {}
}