{
  "_format": "hh-sol-artifact-1",
  "contractName": "EARNPRIVATE",
  "sourceName": "contracts/Earni.sol",
  "abi": [
    {
      "inputs": [
        {
          "internalType": "address",
          "name": "_walletPool",
          "type": "address"
        },
        {
          "internalType": "address",
          "name": "_TokenRecibe",
          "type": "address"
        },
        {
          "internalType": "bool",
          "name": "_whiteListed",
          "type": "bool"
        }
      ],
      "stateMutability": "nonpayable",
      "type": "constructor"
    },
    {
      "anonymous": false,
      "inputs": [
        {
          "indexed": false,
          "internalType": "bool",
          "name": "locked",
          "type": "bool"
        }
      ],
      "name": "ContractLocked",
      "type": "event"
    },
    {
      "anonymous": false,
      "inputs": [
        {
          "indexed": true,
          "internalType": "address",
          "name": "user",
          "type": "address"
        },
        {
          "indexed": false,
          "internalType": "uint256",
          "name": "amount",
          "type": "uint256"
        },
        {
          "indexed": false,
          "internalType": "uint256",
          "name": "depositId",
          "type": "uint256"
        }
      ],
      "name": "DepositMade",
      "type": "event"
    },
    {
      "anonymous": false,
      "inputs": [
        {
          "indexed": true,
          "internalType": "address",
          "name": "user",
          "type": "address"
        },
        {
          "indexed": false,
          "internalType": "uint256",
          "name": "depositId",
          "type": "uint256"
        },
        {
          "indexed": false,
          "internalType": "uint256",
          "name": "amount",
          "type": "uint256"
        },
        {
          "indexed": false,
          "internalType": "uint256",
          "name": "initTime",
          "type": "uint256"
        },
        {
          "indexed": false,
          "internalType": "uint256",
          "name": "finishTime",
          "type": "uint256"
        },
        {
          "indexed": false,
          "internalType": "uint256",
          "name": "earn",
          "type": "uint256"
        }
      ],
      "name": "DepositUpdated",
      "type": "event"
    },
    {
      "anonymous": false,
      "inputs": [
        {
          "indexed": true,
          "internalType": "address",
          "name": "previousOwner",
          "type": "address"
        },
        {
          "indexed": true,
          "internalType": "address",
          "name": "newOwner",
          "type": "address"
        }
      ],
      "name": "OwnershipTransferred",
      "type": "event"
    },
    {
      "anonymous": false,
      "inputs": [
        {
          "indexed": true,
          "internalType": "address",
          "name": "user",
          "type": "address"
        },
        {
          "indexed": false,
          "internalType": "uint256",
          "name": "amount",
          "type": "uint256"
        },
        {
          "indexed": false,
          "internalType": "uint256",
          "name": "depositId",
          "type": "uint256"
        }
      ],
      "name": "WithdrawalMade",
      "type": "event"
    },
    {
      "anonymous": false,
      "inputs": [
        {
          "indexed": false,
          "internalType": "address",
          "name": "user",
          "type": "address"
        },
        {
          "indexed": false,
          "internalType": "uint256",
          "name": "from",
          "type": "uint256"
        },
        {
          "indexed": false,
          "internalType": "uint256",
          "name": "to",
          "type": "uint256"
        }
      ],
      "name": "earlyClaim",
      "type": "event"
    },
    {
      "inputs": [
        {
          "internalType": "uint256",
          "name": "_days",
          "type": "uint256"
        }
      ],
      "name": "ChangeDays",
      "outputs": [],
      "stateMutability": "nonpayable",
      "type": "function"
    },
    {
      "inputs": [
        {
          "internalType": "uint256",
          "name": "_amount",
          "type": "uint256"
        }
      ],
      "name": "ChangeLimitAmount",
      "outputs": [],
      "stateMutability": "nonpayable",
      "type": "function"
    },
    {
      "inputs": [
        {
          "internalType": "uint256",
          "name": "_amount",
          "type": "uint256"
        }
      ],
      "name": "ChangeMaxAmount",
      "outputs": [],
      "stateMutability": "nonpayable",
      "type": "function"
    },
    {
      "inputs": [
        {
          "internalType": "uint256",
          "name": "_amount",
          "type": "uint256"
        }
      ],
      "name": "ChangeMinAmount",
      "outputs": [],
      "stateMutability": "nonpayable",
      "type": "function"
    },
    {
      "inputs": [
        {
          "internalType": "uint256",
          "name": "_percent",
          "type": "uint256"
        }
      ],
      "name": "ChangePercent",
      "outputs": [],
      "stateMutability": "nonpayable",
      "type": "function"
    },
    {
      "inputs": [
        {
          "internalType": "uint256",
          "name": "_recolect",
          "type": "uint256"
        }
      ],
      "name": "ChangeRecolect",
      "outputs": [],
      "stateMutability": "nonpayable",
      "type": "function"
    },
    {
      "inputs": [
        {
          "internalType": "address",
          "name": "_wallet",
          "type": "address"
        }
      ],
      "name": "ChangeWalletRecibe",
      "outputs": [],
      "stateMutability": "nonpayable",
      "type": "function"
    },
    {
      "inputs": [
        {
          "internalType": "uint256",
          "name": "_amount",
          "type": "uint256"
        }
      ],
      "name": "Deposit",
      "outputs": [],
      "stateMutability": "nonpayable",
      "type": "function"
    },
    {
      "inputs": [
        {
          "internalType": "address",
          "name": "_user",
          "type": "address"
        },
        {
          "internalType": "uint256",
          "name": "_depositId",
          "type": "uint256"
        }
      ],
      "name": "EarlyClaim",
      "outputs": [],
      "stateMutability": "nonpayable",
      "type": "function"
    },
    {
      "inputs": [
        {
          "internalType": "uint256",
          "name": "_depositId",
          "type": "uint256"
        }
      ],
      "name": "EarnDeposit",
      "outputs": [],
      "stateMutability": "nonpayable",
      "type": "function"
    },
    {
      "inputs": [
        {
          "internalType": "uint256",
          "name": "_limit",
          "type": "uint256"
        },
        {
          "internalType": "uint256",
          "name": "_maxAmount",
          "type": "uint256"
        },
        {
          "internalType": "uint256",
          "name": "_minAmount",
          "type": "uint256"
        },
        {
          "internalType": "uint256",
          "name": "_percent",
          "type": "uint256"
        },
        {
          "internalType": "uint256",
          "name": "_days",
          "type": "uint256"
        }
      ],
      "name": "Initialized",
      "outputs": [],
      "stateMutability": "nonpayable",
      "type": "function"
    },
    {
      "inputs": [],
      "name": "MaxAmount",
      "outputs": [
        {
          "internalType": "uint256",
          "name": "",
          "type": "uint256"
        }
      ],
      "stateMutability": "view",
      "type": "function"
    },
    {
      "inputs": [
        {
          "internalType": "address",
          "name": "_user",
          "type": "address"
        },
        {
          "internalType": "uint256",
          "name": "_depositId",
          "type": "uint256"
        },
        {
          "internalType": "uint256",
          "name": "_amount",
          "type": "uint256"
        },
        {
          "internalType": "uint256",
          "name": "_initTime",
          "type": "uint256"
        },
        {
          "internalType": "uint256",
          "name": "_finishTime",
          "type": "uint256"
        },
        {
          "internalType": "uint256",
          "name": "_earn",
          "type": "uint256"
        }
      ],
      "name": "Migration",
      "outputs": [],
      "stateMutability": "nonpayable",
      "type": "function"
    },
    {
      "inputs": [],
      "name": "MinAmount",
      "outputs": [
        {
          "internalType": "uint256",
          "name": "",
          "type": "uint256"
        }
      ],
      "stateMutability": "view",
      "type": "function"
    },
    {
      "inputs": [],
      "name": "PercentEarn",
      "outputs": [
        {
          "internalType": "uint256",
          "name": "",
          "type": "uint256"
        }
      ],
      "stateMutability": "view",
      "type": "function"
    },
    {
      "inputs": [
        {
          "internalType": "address",
          "name": "_tokens",
          "type": "address"
        }
      ],
      "name": "RecoverTokens",
      "outputs": [],
      "stateMutability": "nonpayable",
      "type": "function"
    },
    {
      "inputs": [],
      "name": "TokenRecibe",
      "outputs": [
        {
          "internalType": "address",
          "name": "",
          "type": "address"
        }
      ],
      "stateMutability": "view",
      "type": "function"
    },
    {
      "inputs": [],
      "name": "ViewDay",
      "outputs": [
        {
          "internalType": "uint256",
          "name": "",
          "type": "uint256"
        }
      ],
      "stateMutability": "view",
      "type": "function"
    },
    {
      "inputs": [
        {
          "internalType": "address[]",
          "name": "addresses",
          "type": "address[]"
        }
      ],
      "name": "addToWhitelist",
      "outputs": [],
      "stateMutability": "nonpayable",
      "type": "function"
    },
    {
      "inputs": [
        {
          "internalType": "address",
          "name": "_wallet",
          "type": "address"
        }
      ],
      "name": "addUserWhiteList",
      "outputs": [],
      "stateMutability": "nonpayable",
      "type": "function"
    },
    {
      "inputs": [
        {
          "internalType": "address",
          "name": "",
          "type": "address"
        },
        {
          "internalType": "uint256",
          "name": "",
          "type": "uint256"
        }
      ],
      "name": "balanceUser",
      "outputs": [
        {
          "internalType": "uint256",
          "name": "Amount",
          "type": "uint256"
        },
        {
          "internalType": "uint256",
          "name": "initTime",
          "type": "uint256"
        },
        {
          "internalType": "uint256",
          "name": "finishTime",
          "type": "uint256"
        },
        {
          "internalType": "uint256",
          "name": "Earn",
          "type": "uint256"
        }
      ],
      "stateMutability": "view",
      "type": "function"
    },
    {
      "inputs": [
        {
          "internalType": "address",
          "name": "",
          "type": "address"
        }
      ],
      "name": "depositCount",
      "outputs": [
        {
          "internalType": "uint256",
          "name": "",
          "type": "uint256"
        }
      ],
      "stateMutability": "view",
      "type": "function"
    },
    {
      "inputs": [],
      "name": "getWhiteList",
      "outputs": [
        {
          "internalType": "bool",
          "name": "",
          "type": "bool"
        }
      ],
      "stateMutability": "view",
      "type": "function"
    },
    {
      "inputs": [],
      "name": "limit",
      "outputs": [
        {
          "internalType": "uint256",
          "name": "",
          "type": "uint256"
        }
      ],
      "stateMutability": "view",
      "type": "function"
    },
    {
      "inputs": [],
      "name": "lock",
      "outputs": [],
      "stateMutability": "nonpayable",
      "type": "function"
    },
    {
      "inputs": [],
      "name": "owner",
      "outputs": [
        {
          "internalType": "address",
          "name": "",
          "type": "address"
        }
      ],
      "stateMutability": "view",
      "type": "function"
    },
    {
      "inputs": [],
      "name": "recolect",
      "outputs": [
        {
          "internalType": "uint256",
          "name": "",
          "type": "uint256"
        }
      ],
      "stateMutability": "view",
      "type": "function"
    },
    {
      "inputs": [
        {
          "internalType": "address[]",
          "name": "addresses",
          "type": "address[]"
        }
      ],
      "name": "removeFromWhitelist",
      "outputs": [],
      "stateMutability": "nonpayable",
      "type": "function"
    },
    {
      "inputs": [],
      "name": "renounceOwnership",
      "outputs": [],
      "stateMutability": "nonpayable",
      "type": "function"
    },
    {
      "inputs": [
        {
          "internalType": "address",
          "name": "newOwner",
          "type": "address"
        }
      ],
      "name": "transferOwnership",
      "outputs": [],
      "stateMutability": "nonpayable",
      "type": "function"
    },
    {
      "inputs": [],
      "name": "walletPool",
      "outputs": [
        {
          "internalType": "address",
          "name": "",
          "type": "address"
        }
      ],
      "stateMutability": "view",
      "type": "function"
    },
    {
      "inputs": [
        {
          "internalType": "address",
          "name": "",
          "type": "address"
        }
      ],
      "name": "whiteList",
      "outputs": [
        {
          "internalType": "bool",
          "name": "",
          "type": "bool"
        }
      ],
      "stateMutability": "view",
      "type": "function"
    }
  ],
  "bytecode": "0x608060405262015180600b553480156200001857600080fd5b5060405162001ae038038062001ae08339810160408190526200003b9162000107565b62000046336200009a565b60018055600280546001600160a01b039485166001600160a01b0319918216179091556003805493909416921691909117909155600d8054911515620100000262ff00001990921691909117905562000159565b600080546001600160a01b038381166001600160a01b0319831681178455604051919092169283917f8be0079c531659141344cd1fd0a4f28419497f9722a3daafe3b4186f6b6457e09190a35050565b80516001600160a01b03811681146200010257600080fd5b919050565b6000806000606084860312156200011d57600080fd5b6200012884620000ea565b92506200013860208501620000ea565b9150604084015180151581146200014e57600080fd5b809150509250925092565b61197780620001696000396000f3fe608060405234801561001057600080fd5b50600436106101f05760003560e01c8063714a2b901161010f578063bb1711a6116100a2578063ec65240611610071578063ec65240614610430578063f2fde38b14610439578063f4443d9a1461044c578063f83d08ba1461046c57600080fd5b8063bb1711a6146103e4578063bdcbd5a9146103f7578063c760dad51461040a578063e5c154f11461041d57600080fd5b80638da5cb5b116100de5780638da5cb5b1461038457806397a6410114610395578063a4d66daf146103a8578063b8d25a43146103b157600080fd5b8063714a2b901461034d578063715018a6146103605780637586c414146103685780637f6497831461037157600080fd5b806347afd82f1161018757806360a810021161015657806360a81002146103165780636b68f8101461031f5780636ff8f8c2146103325780636ffe7bbe1461034557600080fd5b806347afd82f146102c65780634d6ce1e5146102d9578063548db174146102ec57806354f3a6e0146102ff57600080fd5b80632a8a9938116101c35780632a8a99381461026a5780633366bff91461027d578063372c12b114610290578063478b0f87146102b357600080fd5b806309a9d76c146101f55780630a1e63141461021757806313cad1d11461024257806316451dc914610257575b600080fd5b600d5462010000900460ff165b60405190151581526020015b60405180910390f35b60035461022a906001600160a01b031681565b6040516001600160a01b03909116815260200161020e565b61025561025036600461180b565b610474565b005b61025561026536600461180b565b610481565b6102556102783660046116e5565b61049c565b61025561028b36600461183d565b6104c8565b61020261029e3660046116e5565b60106020526000908152604090205460ff1681565b6102556102c13660046116e5565b610576565b6102556102d43660046116e5565b6106a3565b6102556102e736600461180b565b6106cd565b6102556102fa366004611774565b610d1e565b610308600a5481565b60405190815260200161020e565b61030860085481565b61025561032d36600461180b565b610d91565b61025561034036600461180b565b610d9e565b610308610dab565b61025561035b366004611700565b610dc2565b610255610eda565b61030860065481565b61025561037f366004611774565b610eee565b6000546001600160a01b031661022a565b6102556103a336600461180b565b610f5f565b61030860075481565b6103c46103bf366004611700565b610fbc565b60408051948552602085019390935291830152606082015260800161020e565b6102556103f236600461180b565b611002565b61025561040536600461172a565b61100f565b61025561041836600461180b565b6110af565b60025461022a906001600160a01b031681565b61030860095481565b6102556104473660046116e5565b6114db565b61030861045a3660046116e5565b600f6020526000908152604090205481565b610255611551565b61047c6115a6565b600855565b6104896115a6565b600b5461049690826118db565b600c5550565b6104a46115a6565b6001600160a01b03166000908152601060205260409020805460ff19166001179055565b6104d06115a6565b600d54610100900460ff161561052d5760405162461bcd60e51b815260206004820152601960248201527f506f6f6c20686173206265656e20696e697469616c697a65640000000000000060448201526064015b60405180910390fd5b6000600655600d805460ff19169055600785905560088490556009839055600a829055600b5461055d90826118db565b600c555050600d805461ff001916610100179055505050565b61057e6115a6565b6040516370a0823160e01b81523060048201526000906001600160a01b0383169063a9059cbb90339083906370a082319060240160206040518083038186803b1580156105ca57600080fd5b505afa1580156105de573d6000803e3d6000fd5b505050506040513d601f19601f820116820180604052508101906106029190611824565b6040516001600160e01b031960e085901b1681526001600160a01b0390921660048301526024820152604401602060405180830381600087803b15801561064857600080fd5b505af115801561065c573d6000803e3d6000fd5b505050506040513d601f19601f8201168201806040525081019061068091906117e9565b90508061069f5760405162461bcd60e51b815260040161052490611878565b5050565b6106ab6115a6565b600280546001600160a01b0319166001600160a01b0392909216919091179055565b6106d5611600565b600d5460ff16156107165760405162461bcd60e51b815260206004820152600b60248201526a2830bab9b2b21022b0b93760a91b6044820152606401610524565b600d54610100900460ff1661076d5760405162461bcd60e51b815260206004820152601860248201527f506f6f6c20697473206e6f7420696e697469616c697a656400000000000000006044820152606401610524565b600d5462010000900460ff16156107d8573360009081526010602052604090205460ff166107d85760405162461bcd60e51b8152602060048201526018602482015277165bdd48185c99481b9bdd081a5b881dda1a5d195b1a5cdd60421b6044820152606401610524565b60035460405163095ea7b360e01b8152306004820152602481018390526001600160a01b03909116908190600090829063095ea7b390604401602060405180830381600087803b15801561082b57600080fd5b505af115801561083f573d6000803e3d6000fd5b505050506040513d601f19601f8201168201806040525081019061086391906117e9565b9050806108a35760405162461bcd60e51b815260206004820152600e60248201526d105c1c1c9bdd994819985a5b195960921b6044820152606401610524565b600754336000908152600f6020526040902054106109035760405162461bcd60e51b815260206004820152601e60248201527f55736572206861732072656163686564206465706f736974206c696d697400006044820152606401610524565b6040516370a0823160e01b81523360048201526000906001600160a01b038416906370a082319060240160206040518083038186803b15801561094557600080fd5b505afa158015610959573d6000803e3d6000fd5b505050506040513d601f19601f8201168201806040525081019061097d9190611824565b9050848110156109c65760405162461bcd60e51b8152602060048201526014602482015273496e73756666696369656e742062616c616e636560601b6044820152606401610524565b60008511610a165760405162461bcd60e51b815260206004820181905260248201527f416d6f756e74206d7573742062652067726561746572207468616e207a65726f6044820152606401610524565b600954851015610a785760405162461bcd60e51b815260206004820152602760248201527f416d6f756e74206973206c657373207468616e20746865206d696e696d756d20604482015266185b1b1bddd95960ca1b6064820152608401610524565b600854851115610add5760405162461bcd60e51b815260206004820152602a60248201527f416d6f756e742069732067726561746572207468616e20746865206d6178696d6044820152691d5b48185b1b1bddd95960b21b6064820152608401610524565b60075485600654610aee91906118a1565b1115610b3c5760405162461bcd60e51b815260206004820152601760248201527f436f6e7472616374206c696d69742065786365656465640000000000000000006044820152606401610524565b60408051608081018252600091810182905260608101919091528581524260208201819052600c54610b6d916118a1565b6040820152600a54610b8d90606490610b8790899061165a565b9061166d565b60608201908152336000818152600e60209081526040808320805460018181018355918552838520885160049092020190815583880151918101919091558187015160028201559451600390950194909455918152600f909152908120805491610bf6836118fa565b91905055508560066000828254610c0d91906118a1565b9091555050336000818152600e60205260408082205460025491516323b872dd60e01b815260048101949094526001600160a01b039182166024850152604484018a905292908716906323b872dd90606401602060405180830381600087803b158015610c7957600080fd5b505af1158015610c8d573d6000803e3d6000fd5b505050506040513d601f19601f82011682018060405250810190610cb191906117e9565b905080610cd05760405162461bcd60e51b815260040161052490611878565b604080518981526020810184905233917f0b05f0d1cd0819f155b8a61f60baf7767c1ee49d04aeaab701df236140eb93f9910160405180910390a250505050505050610d1b60018055565b50565b610d266115a6565b60005b81811015610d8c576000838383818110610d4557610d4561192b565b9050602002016020810190610d5a91906116e5565b6001600160a01b03166000908152601060205260409020805460ff191690555080610d84816118fa565b915050610d29565b505050565b610d996115a6565b600755565b610da66115a6565b600655565b6000600b54600c54610dbd91906118b9565b905090565b610dca6115a6565b6001600160a01b0382166000908152600e60205260408120805483908110610df457610df461192b565b600091825260208083206040805160808101825260049094029091018054845260018101548484015260030154606084015242838201526001600160a01b0387168452600e9091529091208054919250829184908110610e5657610e5661192b565b6000918252602091829020835160049092020190815582820151600182015560408084015160028301556060938401516003909201919091558381015181516001600160a01b03881681529283015242908201527fb79cc8bc32f75c57b53b9fe33ff31302d8befe74ba35a51afd8ebb6da0bf6684910160405180910390a1505050565b610ee26115a6565b610eec6000611679565b565b610ef66115a6565b60005b81811015610d8c576000838383818110610f1557610f1561192b565b9050602002016020810190610f2a91906116e5565b6001600160a01b03166000908152601060205260409020805460ff191660011790555080610f57816118fa565b915050610ef9565b610f676115a6565b60008111610fb75760405162461bcd60e51b815260206004820152601760248201527f746865206e756d626572207468616e20677265617420300000000000000000006044820152606401610524565b600a55565b600e6020528160005260406000208181548110610fd857600080fd5b60009182526020909120600490910201805460018201546002830154600390930154919450925084565b61100a6115a6565b600955565b6110176115a6565b604051806080016040528085815260200184815260200183815260200182815250600e6000886001600160a01b03166001600160a01b03168152602001908152602001600020868154811061106e5761106e61192b565b906000526020600020906004020160008201518160000155602082015181600101556040820151816002015560608201518160030155905050505050505050565b6110b7611600565b600d5460ff16156110f85760405162461bcd60e51b815260206004820152600b60248201526a2830bab9b2b21022b0b93760a91b6044820152606401610524565b600d54610100900460ff1661114f5760405162461bcd60e51b815260206004820152601760248201527f506f6f6c206973206e6f7420696e697469616c697a65640000000000000000006044820152606401610524565b600d5462010000900460ff16156111ba573360009081526010602052604090205460ff166111ba5760405162461bcd60e51b8152602060048201526018602482015277165bdd48185c99481b9bdd081a5b881dda1a5d195b1a5cdd60421b6044820152606401610524565b336000908152600e602052604090208054821061120e5760405162461bcd60e51b8152602060048201526012602482015271125b9d985b1a590819195c1bdcda5d08125160721b6044820152606401610524565b60008183815481106112225761122261192b565b9060005260206000209060040201905060008160000154116112a25760405162461bcd60e51b815260206004820152603360248201527f596f75206861766520616c72656164792077697468647261776e20796f7572206044820152726361706974616c20616e642070726f6669747360681b6064820152608401610524565b60028101544281111561131d5760405162461bcd60e51b815260206004820152603d60248201527f596f75206e65656420746f207761697420666f7220746865206465706f73697460448201527f20746f2066696e697368206265666f7265207769746864726177696e670000006064820152608401610524565b60008260030154116113815760405162461bcd60e51b815260206004820152602760248201527f596f75206861766520616c72656164792077697468647261776e20796f7572206044820152667265776172647360c81b6064820152608401610524565b6003820180546000808555909155604080518281526020810187905233917f2d4d49c3e017b8235c908cbaa83a2431a08f3b950712696ece2088964fd399f0910160405180910390a28254600184015460028501546003860154604080518a815260208101959095528401929092526060830152608082015233907f744927bb11003d6407e55b316d74e04b5c694659593f9e1e9201ab0f097af9b69060a00160405180910390a260035460405163a9059cbb60e01b8152336004820152602481018390526000916001600160a01b03169063a9059cbb90604401602060405180830381600087803b15801561147657600080fd5b505af115801561148a573d6000803e3d6000fd5b505050506040513d601f19601f820116820180604052508101906114ae91906117e9565b9050806114cd5760405162461bcd60e51b815260040161052490611878565b5050505050610d1b60018055565b6114e36115a6565b6001600160a01b0381166115485760405162461bcd60e51b815260206004820152602660248201527f4f776e61626c653a206e6577206f776e657220697320746865207a65726f206160448201526564647265737360d01b6064820152608401610524565b610d1b81611679565b6115596115a6565b600d805460ff8082161560ff1990921682179092556040519116151581527fb08f70f6219c5c2ed5e08e7cf45080e4840fde880b27a0841faf45475cd02d2e9060200160405180910390a1565b6000546001600160a01b03163314610eec5760405162461bcd60e51b815260206004820181905260248201527f4f776e61626c653a2063616c6c6572206973206e6f7420746865206f776e65726044820152606401610524565b600260015414156116535760405162461bcd60e51b815260206004820152601f60248201527f5265656e7472616e637947756172643a207265656e7472616e742063616c6c006044820152606401610524565b6002600155565b600061166682846118db565b9392505050565b600061166682846118b9565b600080546001600160a01b038381166001600160a01b0319831681178455604051919092169283917f8be0079c531659141344cd1fd0a4f28419497f9722a3daafe3b4186f6b6457e09190a35050565b80356001600160a01b03811681146116e057600080fd5b919050565b6000602082840312156116f757600080fd5b611666826116c9565b6000806040838503121561171357600080fd5b61171c836116c9565b946020939093013593505050565b60008060008060008060c0878903121561174357600080fd5b61174c876116c9565b9860208801359850604088013597606081013597506080810135965060a00135945092505050565b6000806020838503121561178757600080fd5b823567ffffffffffffffff8082111561179f57600080fd5b818501915085601f8301126117b357600080fd5b8135818111156117c257600080fd5b8660208260051b85010111156117d757600080fd5b60209290920196919550909350505050565b6000602082840312156117fb57600080fd5b8151801515811461166657600080fd5b60006020828403121561181d57600080fd5b5035919050565b60006020828403121561183657600080fd5b5051919050565b600080600080600060a0868803121561185557600080fd5b505083359560208501359550604085013594606081013594506080013592509050565b6020808252600f908201526e151c985b9cd9995c8819985a5b1959608a1b604082015260600190565b600082198211156118b4576118b4611915565b500190565b6000826118d657634e487b7160e01b600052601260045260246000fd5b500490565b60008160001904831182151516156118f5576118f5611915565b500290565b600060001982141561190e5761190e611915565b5060010190565b634e487b7160e01b600052601160045260246000fd5b634e487b7160e01b600052603260045260246000fdfea2646970667358221220551cfd961bf7c3dbe8cb4e2eb0efe873d5e3527f289782373b8ddf9808e574ef64736f6c63430008050033",
  "linkReferences": {},
  "deployedLinkReferences": {}
}