{"contracts/Earni.sol":{"EARNPRIVATE":{"abi":[{"inputs":[{"internalType":"address","name":"_walletPool","type":"address"},{"internalType":"address","name":"_TokenRecibe","type":"address"},{"internalType":"bool","name":"_whiteListed","type":"bool"}],"stateMutability":"nonpayable","type":"constructor"},{"anonymous":false,"inputs":[{"indexed":false,"internalType":"bool","name":"locked","type":"bool"}],"name":"ContractLocked","type":"event"},{"anonymous":false,"inputs":[{"indexed":true,"internalType":"address","name":"user","type":"address"},{"indexed":false,"internalType":"uint256","name":"amount","type":"uint256"},{"indexed":false,"internalType":"uint256","name":"depositId","type":"uint256"}],"name":"DepositMade","type":"event"},{"anonymous":false,"inputs":[{"indexed":true,"internalType":"address","name":"user","type":"address"},{"indexed":false,"internalType":"uint256","name":"depositId","type":"uint256"},{"indexed":false,"internalType":"uint256","name":"amount","type":"uint256"},{"indexed":false,"internalType":"uint256","name":"initTime","type":"uint256"},{"indexed":false,"internalType":"uint256","name":"finishTime","type":"uint256"},{"indexed":false,"internalType":"uint256","name":"earn","type":"uint256"}],"name":"DepositUpdated","type":"event"},{"anonymous":false,"inputs":[{"indexed":true,"internalType":"address","name":"previousOwner","type":"address"},{"indexed":true,"internalType":"address","name":"newOwner","type":"address"}],"name":"OwnershipTransferred","type":"event"},{"anonymous":false,"inputs":[{"indexed":true,"internalType":"address","name":"user","type":"address"},{"indexed":false,"internalType":"uint256","name":"amount","type":"uint256"},{"indexed":false,"internalType":"uint256","name":"depositId","type":"uint256"}],"name":"WithdrawalMade","type":"event"},{"anonymous":false,"inputs":[{"indexed":false,"internalType":"address","name":"user","type":"address"},{"indexed":false,"internalType":"uint256","name":"from","type":"uint256"},{"indexed":false,"internalType":"uint256","name":"to","type":"uint256"}],"name":"earlyClaim","type":"event"},{"inputs":[{"internalType":"uint256","name":"_days","type":"uint256"}],"name":"ChangeDays","outputs":[],"stateMutability":"nonpayable","type":"function"},{"inputs":[{"internalType":"uint256","name":"_amount","type":"uint256"}],"name":"ChangeLimitAmount","outputs":[],"stateMutability":"nonpayable","type":"function"},{"inputs":[{"internalType":"uint256","name":"_amount","type":"uint256"}],"name":"ChangeMaxAmount","outputs":[],"stateMutability":"nonpayable","type":"function"},{"inputs":[{"internalType":"uint256","name":"_amount","type":"uint256"}],"name":"ChangeMinAmount","outputs":[],"stateMutability":"nonpayable","type":"function"},{"inputs":[{"internalType":"uint256","name":"_percent","type":"uint256"}],"name":"ChangePercent","outputs":[],"stateMutability":"nonpayable","type":"function"},{"inputs":[{"internalType":"uint256","name":"_recolect","type":"uint256"}],"name":"ChangeRecolect","outputs":[],"stateMutability":"nonpayable","type":"function"},{"inputs":[{"internalType":"address","name":"_wallet","type":"address"}],"name":"ChangeWalletRecibe","outputs":[],"stateMutability":"nonpayable","type":"function"},{"inputs":[{"internalType":"uint256","name":"_amount","type":"uint256"}],"name":"Deposit","outputs":[],"stateMutability":"nonpayable","type":"function"},{"inputs":[{"internalType":"address","name":"_user","type":"address"},{"internalType":"uint256","name":"_depositId","type":"uint256"}],"name":"EarlyClaim","outputs":[],"stateMutability":"nonpayable","type":"function"},{"inputs":[{"internalType":"uint256","name":"_depositId","type":"uint256"}],"name":"EarnDeposit","outputs":[],"stateMutability":"nonpayable","type":"function"},{"inputs":[{"internalType":"uint256","name":"_limit","type":"uint256"},{"internalType":"uint256","name":"_maxAmount","type":"uint256"},{"internalType":"uint256","name":"_minAmount","type":"uint256"},{"internalType":"uint256","name":"_percent","type":"uint256"},{"internalType":"uint256","name":"_days","type":"uint256"}],"name":"Initialized","outputs":[],"stateMutability":"nonpayable","type":"function"},{"inputs":[],"name":"MaxAmount","outputs":[{"internalType":"uint256","name":"","type":"uint256"}],"stateMutability":"view","type":"function"},{"inputs":[{"internalType":"address","name":"_user","type":"address"},{"internalType":"uint256","name":"_depositId","type":"uint256"},{"internalType":"uint256","name":"_amount","type":"uint256"},{"internalType":"uint256","name":"_initTime","type":"uint256"},{"internalType":"uint256","name":"_finishTime","type":"uint256"},{"internalType":"uint256","name":"_earn","type":"uint256"}],"name":"Migration","outputs":[],"stateMutability":"nonpayable","type":"function"},{"inputs":[],"name":"MinAmount","outputs":[{"internalType":"uint256","name":"","type":"uint256"}],"stateMutability":"view","type":"function"},{"inputs":[],"name":"PercentEarn","outputs":[{"internalType":"uint256","name":"","type":"uint256"}],"stateMutability":"view","type":"function"},{"inputs":[{"internalType":"address","name":"_tokens","type":"address"}],"name":"RecoverTokens","outputs":[],"stateMutability":"nonpayable","type":"function"},{"inputs":[],"name":"TokenRecibe","outputs":[{"internalType":"address","name":"","type":"address"}],"stateMutability":"view","type":"function"},{"inputs":[],"name":"ViewDay","outputs":[{"internalType":"uint256","name":"","type":"uint256"}],"stateMutability":"view","type":"function"},{"inputs":[{"internalType":"address[]","name":"addresses","type":"address[]"}],"name":"addToWhitelist","outputs":[],"stateMutability":"nonpayable","type":"function"},{"inputs":[{"internalType":"address","name":"_wallet","type":"address"}],"name":"addUserWhiteList","outputs":[],"stateMutability":"nonpayable","type":"function"},{"inputs":[{"internalType":"address","name":"","type":"address"},{"internalType":"uint256","name":"","type":"uint256"}],"name":"balanceUser","outputs":[{"internalType":"uint256","name":"Amount","type":"uint256"},{"internalType":"uint256","name":"initTime","type":"uint256"},{"internalType":"uint256","name":"finishTime","type":"uint256"},{"internalType":"uint256","name":"Earn","type":"uint256"}],"stateMutability":"view","type":"function"},{"inputs":[{"internalType":"address","name":"","type":"address"}],"name":"depositCount","outputs":[{"internalType":"uint256","name":"","type":"uint256"}],"stateMutability":"view","type":"function"},{"inputs":[],"name":"getWhiteList","outputs":[{"internalType":"bool","name":"","type":"bool"}],"stateMutability":"view","type":"function"},{"inputs":[],"name":"limit","outputs":[{"internalType":"uint256","name":"","type":"uint256"}],"stateMutability":"view","type":"function"},{"inputs":[],"name":"lock","outputs":[],"stateMutability":"nonpayable","type":"function"},{"inputs":[],"name":"owner","outputs":[{"internalType":"address","name":"","type":"address"}],"stateMutability":"view","type":"function"},{"inputs":[],"name":"recolect","outputs":[{"internalType":"uint256","name":"","type":"uint256"}],"stateMutability":"view","type":"function"},{"inputs":[{"internalType":"address[]","name":"addresses","type":"address[]"}],"name":"removeFromWhitelist","outputs":[],"stateMutability":"nonpayable","type":"function"},{"inputs":[],"name":"renounceOwnership","outputs":[],"stateMutability":"nonpayable","type":"function"},{"inputs":[{"internalType":"address","name":"newOwner","type":"address"}],"name":"transferOwnership","outputs":[],"stateMutability":"nonpayable","type":"function"},{"inputs":[],"name":"walletPool","outputs":[{"internalType":"address","name":"","type":"address"}],"stateMutability":"view","type":"function"},{"inputs":[{"internalType":"address","name":"","type":"address"}],"name":"whiteList","outputs":[{"internalType":"bool","name":"","type":"bool"}],"stateMutability":"view","type":"function"}],"evm":{"bytecode":{"linkReferences":{},"object":"608060405262015180600b553480156200001857600080fd5b5060405162001ae038038062001ae08339810160408190526200003b9162000107565b62000046336200009a565b60018055600280546001600160a01b039485166001600160a01b0319918216179091556003805493909416921691909117909155600d8054911515620100000262ff00001990921691909117905562000159565b600080546001600160a01b038381166001600160a01b0319831681178455604051919092169283917f8be0079c531659141344cd1fd0a4f28419497f9722a3daafe3b4186f6b6457e09190a35050565b80516001600160a01b03811681146200010257600080fd5b919050565b6000806000606084860312156200011d57600080fd5b6200012884620000ea565b92506200013860208501620000ea565b9150604084015180151581146200014e57600080fd5b809150509250925092565b61197780620001696000396000f3fe608060405234801561001057600080fd5b50600436106101f05760003560e01c8063714a2b901161010f578063bb1711a6116100a2578063ec65240611610071578063ec65240614610430578063f2fde38b14610439578063f4443d9a1461044c578063f83d08ba1461046c57600080fd5b8063bb1711a6146103e4578063bdcbd5a9146103f7578063c760dad51461040a578063e5c154f11461041d57600080fd5b80638da5cb5b116100de5780638da5cb5b1461038457806397a6410114610395578063a4d66daf146103a8578063b8d25a43146103b157600080fd5b8063714a2b901461034d578063715018a6146103605780637586c414146103685780637f6497831461037157600080fd5b806347afd82f1161018757806360a810021161015657806360a81002146103165780636b68f8101461031f5780636ff8f8c2146103325780636ffe7bbe1461034557600080fd5b806347afd82f146102c65780634d6ce1e5146102d9578063548db174146102ec57806354f3a6e0146102ff57600080fd5b80632a8a9938116101c35780632a8a99381461026a5780633366bff91461027d578063372c12b114610290578063478b0f87146102b357600080fd5b806309a9d76c146101f55780630a1e63141461021757806313cad1d11461024257806316451dc914610257575b600080fd5b600d5462010000900460ff165b60405190151581526020015b60405180910390f35b60035461022a906001600160a01b031681565b6040516001600160a01b03909116815260200161020e565b61025561025036600461180b565b610474565b005b61025561026536600461180b565b610481565b6102556102783660046116e5565b61049c565b61025561028b36600461183d565b6104c8565b61020261029e3660046116e5565b60106020526000908152604090205460ff1681565b6102556102c13660046116e5565b610576565b6102556102d43660046116e5565b6106a3565b6102556102e736600461180b565b6106cd565b6102556102fa366004611774565b610d1e565b610308600a5481565b60405190815260200161020e565b61030860085481565b61025561032d36600461180b565b610d91565b61025561034036600461180b565b610d9e565b610308610dab565b61025561035b366004611700565b610dc2565b610255610eda565b61030860065481565b61025561037f366004611774565b610eee565b6000546001600160a01b031661022a565b6102556103a336600461180b565b610f5f565b61030860075481565b6103c46103bf366004611700565b610fbc565b60408051948552602085019390935291830152606082015260800161020e565b6102556103f236600461180b565b611002565b61025561040536600461172a565b61100f565b61025561041836600461180b565b6110af565b60025461022a906001600160a01b031681565b61030860095481565b6102556104473660046116e5565b6114db565b61030861045a3660046116e5565b600f6020526000908152604090205481565b610255611551565b61047c6115a6565b600855565b6104896115a6565b600b5461049690826118db565b600c5550565b6104a46115a6565b6001600160a01b03166000908152601060205260409020805460ff19166001179055565b6104d06115a6565b600d54610100900460ff161561052d5760405162461bcd60e51b815260206004820152601960248201527f506f6f6c20686173206265656e20696e697469616c697a65640000000000000060448201526064015b60405180910390fd5b6000600655600d805460ff19169055600785905560088490556009839055600a829055600b5461055d90826118db565b600c555050600d805461ff001916610100179055505050565b61057e6115a6565b6040516370a0823160e01b81523060048201526000906001600160a01b0383169063a9059cbb90339083906370a082319060240160206040518083038186803b1580156105ca57600080fd5b505afa1580156105de573d6000803e3d6000fd5b505050506040513d601f19601f820116820180604052508101906106029190611824565b6040516001600160e01b031960e085901b1681526001600160a01b0390921660048301526024820152604401602060405180830381600087803b15801561064857600080fd5b505af115801561065c573d6000803e3d6000fd5b505050506040513d601f19601f8201168201806040525081019061068091906117e9565b90508061069f5760405162461bcd60e51b815260040161052490611878565b5050565b6106ab6115a6565b600280546001600160a01b0319166001600160a01b0392909216919091179055565b6106d5611600565b600d5460ff16156107165760405162461bcd60e51b815260206004820152600b60248201526a2830bab9b2b21022b0b93760a91b6044820152606401610524565b600d54610100900460ff1661076d5760405162461bcd60e51b815260206004820152601860248201527f506f6f6c20697473206e6f7420696e697469616c697a656400000000000000006044820152606401610524565b600d5462010000900460ff16156107d8573360009081526010602052604090205460ff166107d85760405162461bcd60e51b8152602060048201526018602482015277165bdd48185c99481b9bdd081a5b881dda1a5d195b1a5cdd60421b6044820152606401610524565b60035460405163095ea7b360e01b8152306004820152602481018390526001600160a01b03909116908190600090829063095ea7b390604401602060405180830381600087803b15801561082b57600080fd5b505af115801561083f573d6000803e3d6000fd5b505050506040513d601f19601f8201168201806040525081019061086391906117e9565b9050806108a35760405162461bcd60e51b815260206004820152600e60248201526d105c1c1c9bdd994819985a5b195960921b6044820152606401610524565b600754336000908152600f6020526040902054106109035760405162461bcd60e51b815260206004820152601e60248201527f55736572206861732072656163686564206465706f736974206c696d697400006044820152606401610524565b6040516370a0823160e01b81523360048201526000906001600160a01b038416906370a082319060240160206040518083038186803b15801561094557600080fd5b505afa158015610959573d6000803e3d6000fd5b505050506040513d601f19601f8201168201806040525081019061097d9190611824565b9050848110156109c65760405162461bcd60e51b8152602060048201526014602482015273496e73756666696369656e742062616c616e636560601b6044820152606401610524565b60008511610a165760405162461bcd60e51b815260206004820181905260248201527f416d6f756e74206d7573742062652067726561746572207468616e207a65726f6044820152606401610524565b600954851015610a785760405162461bcd60e51b815260206004820152602760248201527f416d6f756e74206973206c657373207468616e20746865206d696e696d756d20604482015266185b1b1bddd95960ca1b6064820152608401610524565b600854851115610add5760405162461bcd60e51b815260206004820152602a60248201527f416d6f756e742069732067726561746572207468616e20746865206d6178696d6044820152691d5b48185b1b1bddd95960b21b6064820152608401610524565b60075485600654610aee91906118a1565b1115610b3c5760405162461bcd60e51b815260206004820152601760248201527f436f6e7472616374206c696d69742065786365656465640000000000000000006044820152606401610524565b60408051608081018252600091810182905260608101919091528581524260208201819052600c54610b6d916118a1565b6040820152600a54610b8d90606490610b8790899061165a565b9061166d565b60608201908152336000818152600e60209081526040808320805460018181018355918552838520885160049092020190815583880151918101919091558187015160028201559451600390950194909455918152600f909152908120805491610bf6836118fa565b91905055508560066000828254610c0d91906118a1565b9091555050336000818152600e60205260408082205460025491516323b872dd60e01b815260048101949094526001600160a01b039182166024850152604484018a905292908716906323b872dd90606401602060405180830381600087803b158015610c7957600080fd5b505af1158015610c8d573d6000803e3d6000fd5b505050506040513d601f19601f82011682018060405250810190610cb191906117e9565b905080610cd05760405162461bcd60e51b815260040161052490611878565b604080518981526020810184905233917f0b05f0d1cd0819f155b8a61f60baf7767c1ee49d04aeaab701df236140eb93f9910160405180910390a250505050505050610d1b60018055565b50565b610d266115a6565b60005b81811015610d8c576000838383818110610d4557610d4561192b565b9050602002016020810190610d5a91906116e5565b6001600160a01b03166000908152601060205260409020805460ff191690555080610d84816118fa565b915050610d29565b505050565b610d996115a6565b600755565b610da66115a6565b600655565b6000600b54600c54610dbd91906118b9565b905090565b610dca6115a6565b6001600160a01b0382166000908152600e60205260408120805483908110610df457610df461192b565b600091825260208083206040805160808101825260049094029091018054845260018101548484015260030154606084015242838201526001600160a01b0387168452600e9091529091208054919250829184908110610e5657610e5661192b565b6000918252602091829020835160049092020190815582820151600182015560408084015160028301556060938401516003909201919091558381015181516001600160a01b03881681529283015242908201527fb79cc8bc32f75c57b53b9fe33ff31302d8befe74ba35a51afd8ebb6da0bf6684910160405180910390a1505050565b610ee26115a6565b610eec6000611679565b565b610ef66115a6565b60005b81811015610d8c576000838383818110610f1557610f1561192b565b9050602002016020810190610f2a91906116e5565b6001600160a01b03166000908152601060205260409020805460ff191660011790555080610f57816118fa565b915050610ef9565b610f676115a6565b60008111610fb75760405162461bcd60e51b815260206004820152601760248201527f746865206e756d626572207468616e20677265617420300000000000000000006044820152606401610524565b600a55565b600e6020528160005260406000208181548110610fd857600080fd5b60009182526020909120600490910201805460018201546002830154600390930154919450925084565b61100a6115a6565b600955565b6110176115a6565b604051806080016040528085815260200184815260200183815260200182815250600e6000886001600160a01b03166001600160a01b03168152602001908152602001600020868154811061106e5761106e61192b565b906000526020600020906004020160008201518160000155602082015181600101556040820151816002015560608201518160030155905050505050505050565b6110b7611600565b600d5460ff16156110f85760405162461bcd60e51b815260206004820152600b60248201526a2830bab9b2b21022b0b93760a91b6044820152606401610524565b600d54610100900460ff1661114f5760405162461bcd60e51b815260206004820152601760248201527f506f6f6c206973206e6f7420696e697469616c697a65640000000000000000006044820152606401610524565b600d5462010000900460ff16156111ba573360009081526010602052604090205460ff166111ba5760405162461bcd60e51b8152602060048201526018602482015277165bdd48185c99481b9bdd081a5b881dda1a5d195b1a5cdd60421b6044820152606401610524565b336000908152600e602052604090208054821061120e5760405162461bcd60e51b8152602060048201526012602482015271125b9d985b1a590819195c1bdcda5d08125160721b6044820152606401610524565b60008183815481106112225761122261192b565b9060005260206000209060040201905060008160000154116112a25760405162461bcd60e51b815260206004820152603360248201527f596f75206861766520616c72656164792077697468647261776e20796f7572206044820152726361706974616c20616e642070726f6669747360681b6064820152608401610524565b60028101544281111561131d5760405162461bcd60e51b815260206004820152603d60248201527f596f75206e65656420746f207761697420666f7220746865206465706f73697460448201527f20746f2066696e697368206265666f7265207769746864726177696e670000006064820152608401610524565b60008260030154116113815760405162461bcd60e51b815260206004820152602760248201527f596f75206861766520616c72656164792077697468647261776e20796f7572206044820152667265776172647360c81b6064820152608401610524565b6003820180546000808555909155604080518281526020810187905233917f2d4d49c3e017b8235c908cbaa83a2431a08f3b950712696ece2088964fd399f0910160405180910390a28254600184015460028501546003860154604080518a815260208101959095528401929092526060830152608082015233907f744927bb11003d6407e55b316d74e04b5c694659593f9e1e9201ab0f097af9b69060a00160405180910390a260035460405163a9059cbb60e01b8152336004820152602481018390526000916001600160a01b03169063a9059cbb90604401602060405180830381600087803b15801561147657600080fd5b505af115801561148a573d6000803e3d6000fd5b505050506040513d601f19601f820116820180604052508101906114ae91906117e9565b9050806114cd5760405162461bcd60e51b815260040161052490611878565b5050505050610d1b60018055565b6114e36115a6565b6001600160a01b0381166115485760405162461bcd60e51b815260206004820152602660248201527f4f776e61626c653a206e6577206f776e657220697320746865207a65726f206160448201526564647265737360d01b6064820152608401610524565b610d1b81611679565b6115596115a6565b600d805460ff8082161560ff1990921682179092556040519116151581527fb08f70f6219c5c2ed5e08e7cf45080e4840fde880b27a0841faf45475cd02d2e9060200160405180910390a1565b6000546001600160a01b03163314610eec5760405162461bcd60e51b815260206004820181905260248201527f4f776e61626c653a2063616c6c6572206973206e6f7420746865206f776e65726044820152606401610524565b600260015414156116535760405162461bcd60e51b815260206004820152601f60248201527f5265656e7472616e637947756172643a207265656e7472616e742063616c6c006044820152606401610524565b6002600155565b600061166682846118db565b9392505050565b600061166682846118b9565b600080546001600160a01b038381166001600160a01b0319831681178455604051919092169283917f8be0079c531659141344cd1fd0a4f28419497f9722a3daafe3b4186f6b6457e09190a35050565b80356001600160a01b03811681146116e057600080fd5b919050565b6000602082840312156116f757600080fd5b611666826116c9565b6000806040838503121561171357600080fd5b61171c836116c9565b946020939093013593505050565b60008060008060008060c0878903121561174357600080fd5b61174c876116c9565b9860208801359850604088013597606081013597506080810135965060a00135945092505050565b6000806020838503121561178757600080fd5b823567ffffffffffffffff8082111561179f57600080fd5b818501915085601f8301126117b357600080fd5b8135818111156117c257600080fd5b8660208260051b85010111156117d757600080fd5b60209290920196919550909350505050565b6000602082840312156117fb57600080fd5b8151801515811461166657600080fd5b60006020828403121561181d57600080fd5b5035919050565b60006020828403121561183657600080fd5b5051919050565b600080600080600060a0868803121561185557600080fd5b505083359560208501359550604085013594606081013594506080013592509050565b6020808252600f908201526e151c985b9cd9995c8819985a5b1959608a1b604082015260600190565b600082198211156118b4576118b4611915565b500190565b6000826118d657634e487b7160e01b600052601260045260246000fd5b500490565b60008160001904831182151516156118f5576118f5611915565b500290565b600060001982141561190e5761190e611915565b5060010190565b634e487b7160e01b600052601160045260246000fd5b634e487b7160e01b600052603260045260246000fdfea2646970667358221220551cfd961bf7c3dbe8cb4e2eb0efe873d5e3527f289782373b8ddf9808e574ef64736f6c63430008050033","opcodes":"PUSH1 0x80 PUSH1 0x40 MSTORE PUSH3 0x15180 PUSH1 0xB SSTORE CALLVALUE DUP1 ISZERO PUSH3 0x18 JUMPI PUSH1 0x0 DUP1 REVERT JUMPDEST POP PUSH1 0x40 MLOAD PUSH3 0x1AE0 CODESIZE SUB DUP1 PUSH3 0x1AE0 DUP4 CODECOPY DUP2 ADD PUSH1 0x40 DUP2 SWAP1 MSTORE PUSH3 0x3B SWAP2 PUSH3 0x107 JUMP JUMPDEST PUSH3 0x46 CALLER PUSH3 0x9A JUMP JUMPDEST PUSH1 0x1 DUP1 SSTORE PUSH1 0x2 DUP1 SLOAD PUSH1 0x1 PUSH1 0x1 PUSH1 0xA0 SHL SUB SWAP5 DUP6 AND PUSH1 0x1 PUSH1 0x1 PUSH1 0xA0 SHL SUB NOT SWAP2 DUP3 AND OR SWAP1 SWAP2 SSTORE PUSH1 0x3 DUP1 SLOAD SWAP4 SWAP1 SWAP5 AND SWAP3 AND SWAP2 SWAP1 SWAP2 OR SWAP1 SWAP2 SSTORE PUSH1 0xD DUP1 SLOAD SWAP2 ISZERO ISZERO PUSH3 0x10000 MUL PUSH3 0xFF0000 NOT SWAP1 SWAP3 AND SWAP2 SWAP1 SWAP2 OR SWAP1 SSTORE PUSH3 0x159 JUMP JUMPDEST PUSH1 0x0 DUP1 SLOAD PUSH1 0x1 PUSH1 0x1 PUSH1 0xA0 SHL SUB DUP4 DUP2 AND PUSH1 0x1 PUSH1 0x1 PUSH1 0xA0 SHL SUB NOT DUP4 AND DUP2 OR DUP5 SSTORE PUSH1 0x40 MLOAD SWAP2 SWAP1 SWAP3 AND SWAP3 DUP4 SWAP2 PUSH32 0x8BE0079C531659141344CD1FD0A4F28419497F9722A3DAAFE3B4186F6B6457E0 SWAP2 SWAP1 LOG3 POP POP JUMP JUMPDEST DUP1 MLOAD PUSH1 0x1 PUSH1 0x1 PUSH1 0xA0 SHL SUB DUP2 AND DUP2 EQ PUSH3 0x102 JUMPI PUSH1 0x0 DUP1 REVERT JUMPDEST SWAP2 SWAP1 POP JUMP JUMPDEST PUSH1 0x0 DUP1 PUSH1 0x0 PUSH1 0x60 DUP5 DUP7 SUB SLT ISZERO PUSH3 0x11D JUMPI PUSH1 0x0 DUP1 REVERT JUMPDEST PUSH3 0x128 DUP5 PUSH3 0xEA JUMP JUMPDEST SWAP3 POP PUSH3 0x138 PUSH1 0x20 DUP6 ADD PUSH3 0xEA JUMP JUMPDEST SWAP2 POP PUSH1 0x40 DUP5 ADD MLOAD DUP1 ISZERO ISZERO DUP2 EQ PUSH3 0x14E JUMPI PUSH1 0x0 DUP1 REVERT JUMPDEST DUP1 SWAP2 POP POP SWAP3 POP SWAP3 POP SWAP3 JUMP JUMPDEST PUSH2 0x1977 DUP1 PUSH3 0x169 PUSH1 0x0 CODECOPY PUSH1 0x0 RETURN INVALID PUSH1 0x80 PUSH1 0x40 MSTORE CALLVALUE DUP1 ISZERO PUSH2 0x10 JUMPI PUSH1 0x0 DUP1 REVERT JUMPDEST POP PUSH1 0x4 CALLDATASIZE LT PUSH2 0x1F0 JUMPI PUSH1 0x0 CALLDATALOAD PUSH1 0xE0 SHR DUP1 PUSH4 0x714A2B90 GT PUSH2 0x10F JUMPI DUP1 PUSH4 0xBB1711A6 GT PUSH2 0xA2 JUMPI DUP1 PUSH4 0xEC652406 GT PUSH2 0x71 JUMPI DUP1 PUSH4 0xEC652406 EQ PUSH2 0x430 JUMPI DUP1 PUSH4 0xF2FDE38B EQ PUSH2 0x439 JUMPI DUP1 PUSH4 0xF4443D9A EQ PUSH2 0x44C JUMPI DUP1 PUSH4 0xF83D08BA EQ PUSH2 0x46C JUMPI PUSH1 0x0 DUP1 REVERT JUMPDEST DUP1 PUSH4 0xBB1711A6 EQ PUSH2 0x3E4 JUMPI DUP1 PUSH4 0xBDCBD5A9 EQ PUSH2 0x3F7 JUMPI DUP1 PUSH4 0xC760DAD5 EQ PUSH2 0x40A JUMPI DUP1 PUSH4 0xE5C154F1 EQ PUSH2 0x41D JUMPI PUSH1 0x0 DUP1 REVERT JUMPDEST DUP1 PUSH4 0x8DA5CB5B GT PUSH2 0xDE JUMPI DUP1 PUSH4 0x8DA5CB5B EQ PUSH2 0x384 JUMPI DUP1 PUSH4 0x97A64101 EQ PUSH2 0x395 JUMPI DUP1 PUSH4 0xA4D66DAF EQ PUSH2 0x3A8 JUMPI DUP1 PUSH4 0xB8D25A43 EQ PUSH2 0x3B1 JUMPI PUSH1 0x0 DUP1 REVERT JUMPDEST DUP1 PUSH4 0x714A2B90 EQ PUSH2 0x34D JUMPI DUP1 PUSH4 0x715018A6 EQ PUSH2 0x360 JUMPI DUP1 PUSH4 0x7586C414 EQ PUSH2 0x368 JUMPI DUP1 PUSH4 0x7F649783 EQ PUSH2 0x371 JUMPI PUSH1 0x0 DUP1 REVERT JUMPDEST DUP1 PUSH4 0x47AFD82F GT PUSH2 0x187 JUMPI DUP1 PUSH4 0x60A81002 GT PUSH2 0x156 JUMPI DUP1 PUSH4 0x60A81002 EQ PUSH2 0x316 JUMPI DUP1 PUSH4 0x6B68F810 EQ PUSH2 0x31F JUMPI DUP1 PUSH4 0x6FF8F8C2 EQ PUSH2 0x332 JUMPI DUP1 PUSH4 0x6FFE7BBE EQ PUSH2 0x345 JUMPI PUSH1 0x0 DUP1 REVERT JUMPDEST DUP1 PUSH4 0x47AFD82F EQ PUSH2 0x2C6 JUMPI DUP1 PUSH4 0x4D6CE1E5 EQ PUSH2 0x2D9 JUMPI DUP1 PUSH4 0x548DB174 EQ PUSH2 0x2EC JUMPI DUP1 PUSH4 0x54F3A6E0 EQ PUSH2 0x2FF JUMPI PUSH1 0x0 DUP1 REVERT JUMPDEST DUP1 PUSH4 0x2A8A9938 GT PUSH2 0x1C3 JUMPI DUP1 PUSH4 0x2A8A9938 EQ PUSH2 0x26A JUMPI DUP1 PUSH4 0x3366BFF9 EQ PUSH2 0x27D JUMPI DUP1 PUSH4 0x372C12B1 EQ PUSH2 0x290 JUMPI DUP1 PUSH4 0x478B0F87 EQ PUSH2 0x2B3 JUMPI PUSH1 0x0 DUP1 REVERT JUMPDEST DUP1 PUSH4 0x9A9D76C EQ PUSH2 0x1F5 JUMPI DUP1 PUSH4 0xA1E6314 EQ PUSH2 0x217 JUMPI DUP1 PUSH4 0x13CAD1D1 EQ PUSH2 0x242 JUMPI DUP1 PUSH4 0x16451DC9 EQ PUSH2 0x257 JUMPI JUMPDEST PUSH1 0x0 DUP1 REVERT JUMPDEST PUSH1 0xD SLOAD PUSH3 0x10000 SWAP1 DIV PUSH1 0xFF AND JUMPDEST PUSH1 0x40 MLOAD SWAP1 ISZERO ISZERO DUP2 MSTORE PUSH1 0x20 ADD JUMPDEST PUSH1 0x40 MLOAD DUP1 SWAP2 SUB SWAP1 RETURN JUMPDEST PUSH1 0x3 SLOAD PUSH2 0x22A SWAP1 PUSH1 0x1 PUSH1 0x1 PUSH1 0xA0 SHL SUB AND DUP2 JUMP JUMPDEST PUSH1 0x40 MLOAD PUSH1 0x1 PUSH1 0x1 PUSH1 0xA0 SHL SUB SWAP1 SWAP2 AND DUP2 MSTORE PUSH1 0x20 ADD PUSH2 0x20E JUMP JUMPDEST PUSH2 0x255 PUSH2 0x250 CALLDATASIZE PUSH1 0x4 PUSH2 0x180B JUMP JUMPDEST PUSH2 0x474 JUMP JUMPDEST STOP JUMPDEST PUSH2 0x255 PUSH2 0x265 CALLDATASIZE PUSH1 0x4 PUSH2 0x180B JUMP JUMPDEST PUSH2 0x481 JUMP JUMPDEST PUSH2 0x255 PUSH2 0x278 CALLDATASIZE PUSH1 0x4 PUSH2 0x16E5 JUMP JUMPDEST PUSH2 0x49C JUMP JUMPDEST PUSH2 0x255 PUSH2 0x28B CALLDATASIZE PUSH1 0x4 PUSH2 0x183D JUMP JUMPDEST PUSH2 0x4C8 JUMP JUMPDEST PUSH2 0x202 PUSH2 0x29E CALLDATASIZE PUSH1 0x4 PUSH2 0x16E5 JUMP JUMPDEST PUSH1 0x10 PUSH1 0x20 MSTORE PUSH1 0x0 SWAP1 DUP2 MSTORE PUSH1 0x40 SWAP1 KECCAK256 SLOAD PUSH1 0xFF AND DUP2 JUMP JUMPDEST PUSH2 0x255 PUSH2 0x2C1 CALLDATASIZE PUSH1 0x4 PUSH2 0x16E5 JUMP JUMPDEST PUSH2 0x576 JUMP JUMPDEST PUSH2 0x255 PUSH2 0x2D4 CALLDATASIZE PUSH1 0x4 PUSH2 0x16E5 JUMP JUMPDEST PUSH2 0x6A3 JUMP JUMPDEST PUSH2 0x255 PUSH2 0x2E7 CALLDATASIZE PUSH1 0x4 PUSH2 0x180B JUMP JUMPDEST PUSH2 0x6CD JUMP JUMPDEST PUSH2 0x255 PUSH2 0x2FA CALLDATASIZE PUSH1 0x4 PUSH2 0x1774 JUMP JUMPDEST PUSH2 0xD1E JUMP JUMPDEST PUSH2 0x308 PUSH1 0xA SLOAD DUP2 JUMP JUMPDEST PUSH1 0x40 MLOAD SWAP1 DUP2 MSTORE PUSH1 0x20 ADD PUSH2 0x20E JUMP JUMPDEST PUSH2 0x308 PUSH1 0x8 SLOAD DUP2 JUMP JUMPDEST PUSH2 0x255 PUSH2 0x32D CALLDATASIZE PUSH1 0x4 PUSH2 0x180B JUMP JUMPDEST PUSH2 0xD91 JUMP JUMPDEST PUSH2 0x255 PUSH2 0x340 CALLDATASIZE PUSH1 0x4 PUSH2 0x180B JUMP JUMPDEST PUSH2 0xD9E JUMP JUMPDEST PUSH2 0x308 PUSH2 0xDAB JUMP JUMPDEST PUSH2 0x255 PUSH2 0x35B CALLDATASIZE PUSH1 0x4 PUSH2 0x1700 JUMP JUMPDEST PUSH2 0xDC2 JUMP JUMPDEST PUSH2 0x255 PUSH2 0xEDA JUMP JUMPDEST PUSH2 0x308 PUSH1 0x6 SLOAD DUP2 JUMP JUMPDEST PUSH2 0x255 PUSH2 0x37F CALLDATASIZE PUSH1 0x4 PUSH2 0x1774 JUMP JUMPDEST PUSH2 0xEEE JUMP JUMPDEST PUSH1 0x0 SLOAD PUSH1 0x1 PUSH1 0x1 PUSH1 0xA0 SHL SUB AND PUSH2 0x22A JUMP JUMPDEST PUSH2 0x255 PUSH2 0x3A3 CALLDATASIZE PUSH1 0x4 PUSH2 0x180B JUMP JUMPDEST PUSH2 0xF5F JUMP JUMPDEST PUSH2 0x308 PUSH1 0x7 SLOAD DUP2 JUMP JUMPDEST PUSH2 0x3C4 PUSH2 0x3BF CALLDATASIZE PUSH1 0x4 PUSH2 0x1700 JUMP JUMPDEST PUSH2 0xFBC JUMP JUMPDEST PUSH1 0x40 DUP1 MLOAD SWAP5 DUP6 MSTORE PUSH1 0x20 DUP6 ADD SWAP4 SWAP1 SWAP4 MSTORE SWAP2 DUP4 ADD MSTORE PUSH1 0x60 DUP3 ADD MSTORE PUSH1 0x80 ADD PUSH2 0x20E JUMP JUMPDEST PUSH2 0x255 PUSH2 0x3F2 CALLDATASIZE PUSH1 0x4 PUSH2 0x180B JUMP JUMPDEST PUSH2 0x1002 JUMP JUMPDEST PUSH2 0x255 PUSH2 0x405 CALLDATASIZE PUSH1 0x4 PUSH2 0x172A JUMP JUMPDEST PUSH2 0x100F JUMP JUMPDEST PUSH2 0x255 PUSH2 0x418 CALLDATASIZE PUSH1 0x4 PUSH2 0x180B JUMP JUMPDEST PUSH2 0x10AF JUMP JUMPDEST PUSH1 0x2 SLOAD PUSH2 0x22A SWAP1 PUSH1 0x1 PUSH1 0x1 PUSH1 0xA0 SHL SUB AND DUP2 JUMP JUMPDEST PUSH2 0x308 PUSH1 0x9 SLOAD DUP2 JUMP JUMPDEST PUSH2 0x255 PUSH2 0x447 CALLDATASIZE PUSH1 0x4 PUSH2 0x16E5 JUMP JUMPDEST PUSH2 0x14DB JUMP JUMPDEST PUSH2 0x308 PUSH2 0x45A CALLDATASIZE PUSH1 0x4 PUSH2 0x16E5 JUMP JUMPDEST PUSH1 0xF PUSH1 0x20 MSTORE PUSH1 0x0 SWAP1 DUP2 MSTORE PUSH1 0x40 SWAP1 KECCAK256 SLOAD DUP2 JUMP JUMPDEST PUSH2 0x255 PUSH2 0x1551 JUMP JUMPDEST PUSH2 0x47C PUSH2 0x15A6 JUMP JUMPDEST PUSH1 0x8 SSTORE JUMP JUMPDEST PUSH2 0x489 PUSH2 0x15A6 JUMP JUMPDEST PUSH1 0xB SLOAD PUSH2 0x496 SWAP1 DUP3 PUSH2 0x18DB JUMP JUMPDEST PUSH1 0xC SSTORE POP JUMP JUMPDEST PUSH2 0x4A4 PUSH2 0x15A6 JUMP JUMPDEST PUSH1 0x1 PUSH1 0x1 PUSH1 0xA0 SHL SUB AND PUSH1 0x0 SWAP1 DUP2 MSTORE PUSH1 0x10 PUSH1 0x20 MSTORE PUSH1 0x40 SWAP1 KECCAK256 DUP1 SLOAD PUSH1 0xFF NOT AND PUSH1 0x1 OR SWAP1 SSTORE JUMP JUMPDEST PUSH2 0x4D0 PUSH2 0x15A6 JUMP JUMPDEST PUSH1 0xD SLOAD PUSH2 0x100 SWAP1 DIV PUSH1 0xFF AND ISZERO PUSH2 0x52D JUMPI PUSH1 0x40 MLOAD PUSH3 0x461BCD PUSH1 0xE5 SHL DUP2 MSTORE PUSH1 0x20 PUSH1 0x4 DUP3 ADD MSTORE PUSH1 0x19 PUSH1 0x24 DUP3 ADD MSTORE PUSH32 0x506F6F6C20686173206265656E20696E697469616C697A656400000000000000 PUSH1 0x44 DUP3 ADD MSTORE PUSH1 0x64 ADD JUMPDEST PUSH1 0x40 MLOAD DUP1 SWAP2 SUB SWAP1 REVERT JUMPDEST PUSH1 0x0 PUSH1 0x6 SSTORE PUSH1 0xD DUP1 SLOAD PUSH1 0xFF NOT AND SWAP1 SSTORE PUSH1 0x7 DUP6 SWAP1 SSTORE PUSH1 0x8 DUP5 SWAP1 SSTORE PUSH1 0x9 DUP4 SWAP1 SSTORE PUSH1 0xA DUP3 SWAP1 SSTORE PUSH1 0xB SLOAD PUSH2 0x55D SWAP1 DUP3 PUSH2 0x18DB JUMP JUMPDEST PUSH1 0xC SSTORE POP POP PUSH1 0xD DUP1 SLOAD PUSH2 0xFF00 NOT AND PUSH2 0x100 OR SWAP1 SSTORE POP POP POP JUMP JUMPDEST PUSH2 0x57E PUSH2 0x15A6 JUMP JUMPDEST PUSH1 0x40 MLOAD PUSH4 0x70A08231 PUSH1 0xE0 SHL DUP2 MSTORE ADDRESS PUSH1 0x4 DUP3 ADD MSTORE PUSH1 0x0 SWAP1 PUSH1 0x1 PUSH1 0x1 PUSH1 0xA0 SHL SUB DUP4 AND SWAP1 PUSH4 0xA9059CBB SWAP1 CALLER SWAP1 DUP4 SWAP1 PUSH4 0x70A08231 SWAP1 PUSH1 0x24 ADD PUSH1 0x20 PUSH1 0x40 MLOAD DUP1 DUP4 SUB DUP2 DUP7 DUP1 EXTCODESIZE ISZERO DUP1 ISZERO PUSH2 0x5CA JUMPI PUSH1 0x0 DUP1 REVERT JUMPDEST POP GAS STATICCALL ISZERO DUP1 ISZERO PUSH2 0x5DE JUMPI RETURNDATASIZE PUSH1 0x0 DUP1 RETURNDATACOPY RETURNDATASIZE PUSH1 0x0 REVERT JUMPDEST POP POP POP POP PUSH1 0x40 MLOAD RETURNDATASIZE PUSH1 0x1F NOT PUSH1 0x1F DUP3 ADD AND DUP3 ADD DUP1 PUSH1 0x40 MSTORE POP DUP2 ADD SWAP1 PUSH2 0x602 SWAP2 SWAP1 PUSH2 0x1824 JUMP JUMPDEST PUSH1 0x40 MLOAD PUSH1 0x1 PUSH1 0x1 PUSH1 0xE0 SHL SUB NOT PUSH1 0xE0 DUP6 SWAP1 SHL AND DUP2 MSTORE PUSH1 0x1 PUSH1 0x1 PUSH1 0xA0 SHL SUB SWAP1 SWAP3 AND PUSH1 0x4 DUP4 ADD MSTORE PUSH1 0x24 DUP3 ADD MSTORE PUSH1 0x44 ADD PUSH1 0x20 PUSH1 0x40 MLOAD DUP1 DUP4 SUB DUP2 PUSH1 0x0 DUP8 DUP1 EXTCODESIZE ISZERO DUP1 ISZERO PUSH2 0x648 JUMPI PUSH1 0x0 DUP1 REVERT JUMPDEST POP GAS CALL ISZERO DUP1 ISZERO PUSH2 0x65C JUMPI RETURNDATASIZE PUSH1 0x0 DUP1 RETURNDATACOPY RETURNDATASIZE PUSH1 0x0 REVERT JUMPDEST POP POP POP POP PUSH1 0x40 MLOAD RETURNDATASIZE PUSH1 0x1F NOT PUSH1 0x1F DUP3 ADD AND DUP3 ADD DUP1 PUSH1 0x40 MSTORE POP DUP2 ADD SWAP1 PUSH2 0x680 SWAP2 SWAP1 PUSH2 0x17E9 JUMP JUMPDEST SWAP1 POP DUP1 PUSH2 0x69F JUMPI PUSH1 0x40 MLOAD PUSH3 0x461BCD PUSH1 0xE5 SHL DUP2 MSTORE PUSH1 0x4 ADD PUSH2 0x524 SWAP1 PUSH2 0x1878 JUMP JUMPDEST POP POP JUMP JUMPDEST PUSH2 0x6AB PUSH2 0x15A6 JUMP JUMPDEST PUSH1 0x2 DUP1 SLOAD PUSH1 0x1 PUSH1 0x1 PUSH1 0xA0 SHL SUB NOT AND PUSH1 0x1 PUSH1 0x1 PUSH1 0xA0 SHL SUB SWAP3 SWAP1 SWAP3 AND SWAP2 SWAP1 SWAP2 OR SWAP1 SSTORE JUMP JUMPDEST PUSH2 0x6D5 PUSH2 0x1600 JUMP JUMPDEST PUSH1 0xD SLOAD PUSH1 0xFF AND ISZERO PUSH2 0x716 JUMPI PUSH1 0x40 MLOAD PUSH3 0x461BCD PUSH1 0xE5 SHL DUP2 MSTORE PUSH1 0x20 PUSH1 0x4 DUP3 ADD MSTORE PUSH1 0xB PUSH1 0x24 DUP3 ADD MSTORE PUSH11 0x2830BAB9B2B21022B0B937 PUSH1 0xA9 SHL PUSH1 0x44 DUP3 ADD MSTORE PUSH1 0x64 ADD PUSH2 0x524 JUMP JUMPDEST PUSH1 0xD SLOAD PUSH2 0x100 SWAP1 DIV PUSH1 0xFF AND PUSH2 0x76D JUMPI PUSH1 0x40 MLOAD PUSH3 0x461BCD PUSH1 0xE5 SHL DUP2 MSTORE PUSH1 0x20 PUSH1 0x4 DUP3 ADD MSTORE PUSH1 0x18 PUSH1 0x24 DUP3 ADD MSTORE PUSH32 0x506F6F6C20697473206E6F7420696E697469616C697A65640000000000000000 PUSH1 0x44 DUP3 ADD MSTORE PUSH1 0x64 ADD PUSH2 0x524 JUMP JUMPDEST PUSH1 0xD SLOAD PUSH3 0x10000 SWAP1 DIV PUSH1 0xFF AND ISZERO PUSH2 0x7D8 JUMPI CALLER PUSH1 0x0 SWAP1 DUP2 MSTORE PUSH1 0x10 PUSH1 0x20 MSTORE PUSH1 0x40 SWAP1 KECCAK256 SLOAD PUSH1 0xFF AND PUSH2 0x7D8 JUMPI PUSH1 0x40 MLOAD PUSH3 0x461BCD PUSH1 0xE5 SHL DUP2 MSTORE PUSH1 0x20 PUSH1 0x4 DUP3 ADD MSTORE PUSH1 0x18 PUSH1 0x24 DUP3 ADD MSTORE PUSH24 0x165BDD48185C99481B9BDD081A5B881DDA1A5D195B1A5CDD PUSH1 0x42 SHL PUSH1 0x44 DUP3 ADD MSTORE PUSH1 0x64 ADD PUSH2 0x524 JUMP JUMPDEST PUSH1 0x3 SLOAD PUSH1 0x40 MLOAD PUSH4 0x95EA7B3 PUSH1 0xE0 SHL DUP2 MSTORE ADDRESS PUSH1 0x4 DUP3 ADD MSTORE PUSH1 0x24 DUP2 ADD DUP4 SWAP1 MSTORE PUSH1 0x1 PUSH1 0x1 PUSH1 0xA0 SHL SUB SWAP1 SWAP2 AND SWAP1 DUP2 SWAP1 PUSH1 0x0 SWAP1 DUP3 SWAP1 PUSH4 0x95EA7B3 SWAP1 PUSH1 0x44 ADD PUSH1 0x20 PUSH1 0x40 MLOAD DUP1 DUP4 SUB DUP2 PUSH1 0x0 DUP8 DUP1 EXTCODESIZE ISZERO DUP1 ISZERO PUSH2 0x82B JUMPI PUSH1 0x0 DUP1 REVERT JUMPDEST POP GAS CALL ISZERO DUP1 ISZERO PUSH2 0x83F JUMPI RETURNDATASIZE PUSH1 0x0 DUP1 RETURNDATACOPY RETURNDATASIZE PUSH1 0x0 REVERT JUMPDEST POP POP POP POP PUSH1 0x40 MLOAD RETURNDATASIZE PUSH1 0x1F NOT PUSH1 0x1F DUP3 ADD AND DUP3 ADD DUP1 PUSH1 0x40 MSTORE POP DUP2 ADD SWAP1 PUSH2 0x863 SWAP2 SWAP1 PUSH2 0x17E9 JUMP JUMPDEST SWAP1 POP DUP1 PUSH2 0x8A3 JUMPI PUSH1 0x40 MLOAD PUSH3 0x461BCD PUSH1 0xE5 SHL DUP2 MSTORE PUSH1 0x20 PUSH1 0x4 DUP3 ADD MSTORE PUSH1 0xE PUSH1 0x24 DUP3 ADD MSTORE PUSH14 0x105C1C1C9BDD994819985A5B1959 PUSH1 0x92 SHL PUSH1 0x44 DUP3 ADD MSTORE PUSH1 0x64 ADD PUSH2 0x524 JUMP JUMPDEST PUSH1 0x7 SLOAD CALLER PUSH1 0x0 SWAP1 DUP2 MSTORE PUSH1 0xF PUSH1 0x20 MSTORE PUSH1 0x40 SWAP1 KECCAK256 SLOAD LT PUSH2 0x903 JUMPI PUSH1 0x40 MLOAD PUSH3 0x461BCD PUSH1 0xE5 SHL DUP2 MSTORE PUSH1 0x20 PUSH1 0x4 DUP3 ADD MSTORE PUSH1 0x1E PUSH1 0x24 DUP3 ADD MSTORE PUSH32 0x55736572206861732072656163686564206465706F736974206C696D69740000 PUSH1 0x44 DUP3 ADD MSTORE PUSH1 0x64 ADD PUSH2 0x524 JUMP JUMPDEST PUSH1 0x40 MLOAD PUSH4 0x70A08231 PUSH1 0xE0 SHL DUP2 MSTORE CALLER PUSH1 0x4 DUP3 ADD MSTORE PUSH1 0x0 SWAP1 PUSH1 0x1 PUSH1 0x1 PUSH1 0xA0 SHL SUB DUP5 AND SWAP1 PUSH4 0x70A08231 SWAP1 PUSH1 0x24 ADD PUSH1 0x20 PUSH1 0x40 MLOAD DUP1 DUP4 SUB DUP2 DUP7 DUP1 EXTCODESIZE ISZERO DUP1 ISZERO PUSH2 0x945 JUMPI PUSH1 0x0 DUP1 REVERT JUMPDEST POP GAS STATICCALL ISZERO DUP1 ISZERO PUSH2 0x959 JUMPI RETURNDATASIZE PUSH1 0x0 DUP1 RETURNDATACOPY RETURNDATASIZE PUSH1 0x0 REVERT JUMPDEST POP POP POP POP PUSH1 0x40 MLOAD RETURNDATASIZE PUSH1 0x1F NOT PUSH1 0x1F DUP3 ADD AND DUP3 ADD DUP1 PUSH1 0x40 MSTORE POP DUP2 ADD SWAP1 PUSH2 0x97D SWAP2 SWAP1 PUSH2 0x1824 JUMP JUMPDEST SWAP1 POP DUP5 DUP2 LT ISZERO PUSH2 0x9C6 JUMPI PUSH1 0x40 MLOAD PUSH3 0x461BCD PUSH1 0xE5 SHL DUP2 MSTORE PUSH1 0x20 PUSH1 0x4 DUP3 ADD MSTORE PUSH1 0x14 PUSH1 0x24 DUP3 ADD MSTORE PUSH20 0x496E73756666696369656E742062616C616E6365 PUSH1 0x60 SHL PUSH1 0x44 DUP3 ADD MSTORE PUSH1 0x64 ADD PUSH2 0x524 JUMP JUMPDEST PUSH1 0x0 DUP6 GT PUSH2 0xA16 JUMPI PUSH1 0x40 MLOAD PUSH3 0x461BCD PUSH1 0xE5 SHL DUP2 MSTORE PUSH1 0x20 PUSH1 0x4 DUP3 ADD DUP2 SWAP1 MSTORE PUSH1 0x24 DUP3 ADD MSTORE PUSH32 0x416D6F756E74206D7573742062652067726561746572207468616E207A65726F PUSH1 0x44 DUP3 ADD MSTORE PUSH1 0x64 ADD PUSH2 0x524 JUMP JUMPDEST PUSH1 0x9 SLOAD DUP6 LT ISZERO PUSH2 0xA78 JUMPI PUSH1 0x40 MLOAD PUSH3 0x461BCD PUSH1 0xE5 SHL DUP2 MSTORE PUSH1 0x20 PUSH1 0x4 DUP3 ADD MSTORE PUSH1 0x27 PUSH1 0x24 DUP3 ADD MSTORE PUSH32 0x416D6F756E74206973206C657373207468616E20746865206D696E696D756D20 PUSH1 0x44 DUP3 ADD MSTORE PUSH7 0x185B1B1BDDD959 PUSH1 0xCA SHL PUSH1 0x64 DUP3 ADD MSTORE PUSH1 0x84 ADD PUSH2 0x524 JUMP JUMPDEST PUSH1 0x8 SLOAD DUP6 GT ISZERO PUSH2 0xADD JUMPI PUSH1 0x40 MLOAD PUSH3 0x461BCD PUSH1 0xE5 SHL DUP2 MSTORE PUSH1 0x20 PUSH1 0x4 DUP3 ADD MSTORE PUSH1 0x2A PUSH1 0x24 DUP3 ADD MSTORE PUSH32 0x416D6F756E742069732067726561746572207468616E20746865206D6178696D PUSH1 0x44 DUP3 ADD MSTORE PUSH10 0x1D5B48185B1B1BDDD959 PUSH1 0xB2 SHL PUSH1 0x64 DUP3 ADD MSTORE PUSH1 0x84 ADD PUSH2 0x524 JUMP JUMPDEST PUSH1 0x7 SLOAD DUP6 PUSH1 0x6 SLOAD PUSH2 0xAEE SWAP2 SWAP1 PUSH2 0x18A1 JUMP JUMPDEST GT ISZERO PUSH2 0xB3C JUMPI PUSH1 0x40 MLOAD PUSH3 0x461BCD PUSH1 0xE5 SHL DUP2 MSTORE PUSH1 0x20 PUSH1 0x4 DUP3 ADD MSTORE PUSH1 0x17 PUSH1 0x24 DUP3 ADD MSTORE PUSH32 0x436F6E7472616374206C696D6974206578636565646564000000000000000000 PUSH1 0x44 DUP3 ADD MSTORE PUSH1 0x64 ADD PUSH2 0x524 JUMP JUMPDEST PUSH1 0x40 DUP1 MLOAD PUSH1 0x80 DUP2 ADD DUP3 MSTORE PUSH1 0x0 SWAP2 DUP2 ADD DUP3 SWAP1 MSTORE PUSH1 0x60 DUP2 ADD SWAP2 SWAP1 SWAP2 MSTORE DUP6 DUP2 MSTORE TIMESTAMP PUSH1 0x20 DUP3 ADD DUP2 SWAP1 MSTORE PUSH1 0xC SLOAD PUSH2 0xB6D SWAP2 PUSH2 0x18A1 JUMP JUMPDEST PUSH1 0x40 DUP3 ADD MSTORE PUSH1 0xA SLOAD PUSH2 0xB8D SWAP1 PUSH1 0x64 SWAP1 PUSH2 0xB87 SWAP1 DUP10 SWAP1 PUSH2 0x165A JUMP JUMPDEST SWAP1 PUSH2 0x166D JUMP JUMPDEST PUSH1 0x60 DUP3 ADD SWAP1 DUP2 MSTORE CALLER PUSH1 0x0 DUP2 DUP2 MSTORE PUSH1 0xE PUSH1 0x20 SWAP1 DUP2 MSTORE PUSH1 0x40 DUP1 DUP4 KECCAK256 DUP1 SLOAD PUSH1 0x1 DUP2 DUP2 ADD DUP4 SSTORE SWAP2 DUP6 MSTORE DUP4 DUP6 KECCAK256 DUP9 MLOAD PUSH1 0x4 SWAP1 SWAP3 MUL ADD SWAP1 DUP2 SSTORE DUP4 DUP9 ADD MLOAD SWAP2 DUP2 ADD SWAP2 SWAP1 SWAP2 SSTORE DUP2 DUP8 ADD MLOAD PUSH1 0x2 DUP3 ADD SSTORE SWAP5 MLOAD PUSH1 0x3 SWAP1 SWAP6 ADD SWAP5 SWAP1 SWAP5 SSTORE SWAP2 DUP2 MSTORE PUSH1 0xF SWAP1 SWAP2 MSTORE SWAP1 DUP2 KECCAK256 DUP1 SLOAD SWAP2 PUSH2 0xBF6 DUP4 PUSH2 0x18FA JUMP JUMPDEST SWAP2 SWAP1 POP SSTORE POP DUP6 PUSH1 0x6 PUSH1 0x0 DUP3 DUP3 SLOAD PUSH2 0xC0D SWAP2 SWAP1 PUSH2 0x18A1 JUMP JUMPDEST SWAP1 SWAP2 SSTORE POP POP CALLER PUSH1 0x0 DUP2 DUP2 MSTORE PUSH1 0xE PUSH1 0x20 MSTORE PUSH1 0x40 DUP1 DUP3 KECCAK256 SLOAD PUSH1 0x2 SLOAD SWAP2 MLOAD PUSH4 0x23B872DD PUSH1 0xE0 SHL DUP2 MSTORE PUSH1 0x4 DUP2 ADD SWAP5 SWAP1 SWAP5 MSTORE PUSH1 0x1 PUSH1 0x1 PUSH1 0xA0 SHL SUB SWAP2 DUP3 AND PUSH1 0x24 DUP6 ADD MSTORE PUSH1 0x44 DUP5 ADD DUP11 SWAP1 MSTORE SWAP3 SWAP1 DUP8 AND SWAP1 PUSH4 0x23B872DD SWAP1 PUSH1 0x64 ADD PUSH1 0x20 PUSH1 0x40 MLOAD DUP1 DUP4 SUB DUP2 PUSH1 0x0 DUP8 DUP1 EXTCODESIZE ISZERO DUP1 ISZERO PUSH2 0xC79 JUMPI PUSH1 0x0 DUP1 REVERT JUMPDEST POP GAS CALL ISZERO DUP1 ISZERO PUSH2 0xC8D JUMPI RETURNDATASIZE PUSH1 0x0 DUP1 RETURNDATACOPY RETURNDATASIZE PUSH1 0x0 REVERT JUMPDEST POP POP POP POP PUSH1 0x40 MLOAD RETURNDATASIZE PUSH1 0x1F NOT PUSH1 0x1F DUP3 ADD AND DUP3 ADD DUP1 PUSH1 0x40 MSTORE POP DUP2 ADD SWAP1 PUSH2 0xCB1 SWAP2 SWAP1 PUSH2 0x17E9 JUMP JUMPDEST SWAP1 POP DUP1 PUSH2 0xCD0 JUMPI PUSH1 0x40 MLOAD PUSH3 0x461BCD PUSH1 0xE5 SHL DUP2 MSTORE PUSH1 0x4 ADD PUSH2 0x524 SWAP1 PUSH2 0x1878 JUMP JUMPDEST PUSH1 0x40 DUP1 MLOAD DUP10 DUP2 MSTORE PUSH1 0x20 DUP2 ADD DUP5 SWAP1 MSTORE CALLER SWAP2 PUSH32 0xB05F0D1CD0819F155B8A61F60BAF7767C1EE49D04AEAAB701DF236140EB93F9 SWAP2 ADD PUSH1 0x40 MLOAD DUP1 SWAP2 SUB SWAP1 LOG2 POP POP POP POP POP POP POP PUSH2 0xD1B PUSH1 0x1 DUP1 SSTORE JUMP JUMPDEST POP JUMP JUMPDEST PUSH2 0xD26 PUSH2 0x15A6 JUMP JUMPDEST PUSH1 0x0 JUMPDEST DUP2 DUP2 LT ISZERO PUSH2 0xD8C JUMPI PUSH1 0x0 DUP4 DUP4 DUP4 DUP2 DUP2 LT PUSH2 0xD45 JUMPI PUSH2 0xD45 PUSH2 0x192B JUMP JUMPDEST SWAP1 POP PUSH1 0x20 MUL ADD PUSH1 0x20 DUP2 ADD SWAP1 PUSH2 0xD5A SWAP2 SWAP1 PUSH2 0x16E5 JUMP JUMPDEST PUSH1 0x1 PUSH1 0x1 PUSH1 0xA0 SHL SUB AND PUSH1 0x0 SWAP1 DUP2 MSTORE PUSH1 0x10 PUSH1 0x20 MSTORE PUSH1 0x40 SWAP1 KECCAK256 DUP1 SLOAD PUSH1 0xFF NOT AND SWAP1 SSTORE POP DUP1 PUSH2 0xD84 DUP2 PUSH2 0x18FA JUMP JUMPDEST SWAP2 POP POP PUSH2 0xD29 JUMP JUMPDEST POP POP POP JUMP JUMPDEST PUSH2 0xD99 PUSH2 0x15A6 JUMP JUMPDEST PUSH1 0x7 SSTORE JUMP JUMPDEST PUSH2 0xDA6 PUSH2 0x15A6 JUMP JUMPDEST PUSH1 0x6 SSTORE JUMP JUMPDEST PUSH1 0x0 PUSH1 0xB SLOAD PUSH1 0xC SLOAD PUSH2 0xDBD SWAP2 SWAP1 PUSH2 0x18B9 JUMP JUMPDEST SWAP1 POP SWAP1 JUMP JUMPDEST PUSH2 0xDCA PUSH2 0x15A6 JUMP JUMPDEST PUSH1 0x1 PUSH1 0x1 PUSH1 0xA0 SHL SUB DUP3 AND PUSH1 0x0 SWAP1 DUP2 MSTORE PUSH1 0xE PUSH1 0x20 MSTORE PUSH1 0x40 DUP2 KECCAK256 DUP1 SLOAD DUP4 SWAP1 DUP2 LT PUSH2 0xDF4 JUMPI PUSH2 0xDF4 PUSH2 0x192B JUMP JUMPDEST PUSH1 0x0 SWAP2 DUP3 MSTORE PUSH1 0x20 DUP1 DUP4 KECCAK256 PUSH1 0x40 DUP1 MLOAD PUSH1 0x80 DUP2 ADD DUP3 MSTORE PUSH1 0x4 SWAP1 SWAP5 MUL SWAP1 SWAP2 ADD DUP1 SLOAD DUP5 MSTORE PUSH1 0x1 DUP2 ADD SLOAD DUP5 DUP5 ADD MSTORE PUSH1 0x3 ADD SLOAD PUSH1 0x60 DUP5 ADD MSTORE TIMESTAMP DUP4 DUP3 ADD MSTORE PUSH1 0x1 PUSH1 0x1 PUSH1 0xA0 SHL SUB DUP8 AND DUP5 MSTORE PUSH1 0xE SWAP1 SWAP2 MSTORE SWAP1 SWAP2 KECCAK256 DUP1 SLOAD SWAP2 SWAP3 POP DUP3 SWAP2 DUP5 SWAP1 DUP2 LT PUSH2 0xE56 JUMPI PUSH2 0xE56 PUSH2 0x192B JUMP JUMPDEST PUSH1 0x0 SWAP2 DUP3 MSTORE PUSH1 0x20 SWAP2 DUP3 SWAP1 KECCAK256 DUP4 MLOAD PUSH1 0x4 SWAP1 SWAP3 MUL ADD SWAP1 DUP2 SSTORE DUP3 DUP3 ADD MLOAD PUSH1 0x1 DUP3 ADD SSTORE PUSH1 0x40 DUP1 DUP5 ADD MLOAD PUSH1 0x2 DUP4 ADD SSTORE PUSH1 0x60 SWAP4 DUP5 ADD MLOAD PUSH1 0x3 SWAP1 SWAP3 ADD SWAP2 SWAP1 SWAP2 SSTORE DUP4 DUP2 ADD MLOAD DUP2 MLOAD PUSH1 0x1 PUSH1 0x1 PUSH1 0xA0 SHL SUB DUP9 AND DUP2 MSTORE SWAP3 DUP4 ADD MSTORE TIMESTAMP SWAP1 DUP3 ADD MSTORE PUSH32 0xB79CC8BC32F75C57B53B9FE33FF31302D8BEFE74BA35A51AFD8EBB6DA0BF6684 SWAP2 ADD PUSH1 0x40 MLOAD DUP1 SWAP2 SUB SWAP1 LOG1 POP POP POP JUMP JUMPDEST PUSH2 0xEE2 PUSH2 0x15A6 JUMP JUMPDEST PUSH2 0xEEC PUSH1 0x0 PUSH2 0x1679 JUMP JUMPDEST JUMP JUMPDEST PUSH2 0xEF6 PUSH2 0x15A6 JUMP JUMPDEST PUSH1 0x0 JUMPDEST DUP2 DUP2 LT ISZERO PUSH2 0xD8C JUMPI PUSH1 0x0 DUP4 DUP4 DUP4 DUP2 DUP2 LT PUSH2 0xF15 JUMPI PUSH2 0xF15 PUSH2 0x192B JUMP JUMPDEST SWAP1 POP PUSH1 0x20 MUL ADD PUSH1 0x20 DUP2 ADD SWAP1 PUSH2 0xF2A SWAP2 SWAP1 PUSH2 0x16E5 JUMP JUMPDEST PUSH1 0x1 PUSH1 0x1 PUSH1 0xA0 SHL SUB AND PUSH1 0x0 SWAP1 DUP2 MSTORE PUSH1 0x10 PUSH1 0x20 MSTORE PUSH1 0x40 SWAP1 KECCAK256 DUP1 SLOAD PUSH1 0xFF NOT AND PUSH1 0x1 OR SWAP1 SSTORE POP DUP1 PUSH2 0xF57 DUP2 PUSH2 0x18FA JUMP JUMPDEST SWAP2 POP POP PUSH2 0xEF9 JUMP JUMPDEST PUSH2 0xF67 PUSH2 0x15A6 JUMP JUMPDEST PUSH1 0x0 DUP2 GT PUSH2 0xFB7 JUMPI PUSH1 0x40 MLOAD PUSH3 0x461BCD PUSH1 0xE5 SHL DUP2 MSTORE PUSH1 0x20 PUSH1 0x4 DUP3 ADD MSTORE PUSH1 0x17 PUSH1 0x24 DUP3 ADD MSTORE PUSH32 0x746865206E756D626572207468616E2067726561742030000000000000000000 PUSH1 0x44 DUP3 ADD MSTORE PUSH1 0x64 ADD PUSH2 0x524 JUMP JUMPDEST PUSH1 0xA SSTORE JUMP JUMPDEST PUSH1 0xE PUSH1 0x20 MSTORE DUP2 PUSH1 0x0 MSTORE PUSH1 0x40 PUSH1 0x0 KECCAK256 DUP2 DUP2 SLOAD DUP2 LT PUSH2 0xFD8 JUMPI PUSH1 0x0 DUP1 REVERT JUMPDEST PUSH1 0x0 SWAP2 DUP3 MSTORE PUSH1 0x20 SWAP1 SWAP2 KECCAK256 PUSH1 0x4 SWAP1 SWAP2 MUL ADD DUP1 SLOAD PUSH1 0x1 DUP3 ADD SLOAD PUSH1 0x2 DUP4 ADD SLOAD PUSH1 0x3 SWAP1 SWAP4 ADD SLOAD SWAP2 SWAP5 POP SWAP3 POP DUP5 JUMP JUMPDEST PUSH2 0x100A PUSH2 0x15A6 JUMP JUMPDEST PUSH1 0x9 SSTORE JUMP JUMPDEST PUSH2 0x1017 PUSH2 0x15A6 JUMP JUMPDEST PUSH1 0x40 MLOAD DUP1 PUSH1 0x80 ADD PUSH1 0x40 MSTORE DUP1 DUP6 DUP2 MSTORE PUSH1 0x20 ADD DUP5 DUP2 MSTORE PUSH1 0x20 ADD DUP4 DUP2 MSTORE PUSH1 0x20 ADD DUP3 DUP2 MSTORE POP PUSH1 0xE PUSH1 0x0 DUP9 PUSH1 0x1 PUSH1 0x1 PUSH1 0xA0 SHL SUB AND PUSH1 0x1 PUSH1 0x1 PUSH1 0xA0 SHL SUB AND DUP2 MSTORE PUSH1 0x20 ADD SWAP1 DUP2 MSTORE PUSH1 0x20 ADD PUSH1 0x0 KECCAK256 DUP7 DUP2 SLOAD DUP2 LT PUSH2 0x106E JUMPI PUSH2 0x106E PUSH2 0x192B JUMP JUMPDEST SWAP1 PUSH1 0x0 MSTORE PUSH1 0x20 PUSH1 0x0 KECCAK256 SWAP1 PUSH1 0x4 MUL ADD PUSH1 0x0 DUP3 ADD MLOAD DUP2 PUSH1 0x0 ADD SSTORE PUSH1 0x20 DUP3 ADD MLOAD DUP2 PUSH1 0x1 ADD SSTORE PUSH1 0x40 DUP3 ADD MLOAD DUP2 PUSH1 0x2 ADD SSTORE PUSH1 0x60 DUP3 ADD MLOAD DUP2 PUSH1 0x3 ADD SSTORE SWAP1 POP POP POP POP POP POP POP POP JUMP JUMPDEST PUSH2 0x10B7 PUSH2 0x1600 JUMP JUMPDEST PUSH1 0xD SLOAD PUSH1 0xFF AND ISZERO PUSH2 0x10F8 JUMPI PUSH1 0x40 MLOAD PUSH3 0x461BCD PUSH1 0xE5 SHL DUP2 MSTORE PUSH1 0x20 PUSH1 0x4 DUP3 ADD MSTORE PUSH1 0xB PUSH1 0x24 DUP3 ADD MSTORE PUSH11 0x2830BAB9B2B21022B0B937 PUSH1 0xA9 SHL PUSH1 0x44 DUP3 ADD MSTORE PUSH1 0x64 ADD PUSH2 0x524 JUMP JUMPDEST PUSH1 0xD SLOAD PUSH2 0x100 SWAP1 DIV PUSH1 0xFF AND PUSH2 0x114F JUMPI PUSH1 0x40 MLOAD PUSH3 0x461BCD PUSH1 0xE5 SHL DUP2 MSTORE PUSH1 0x20 PUSH1 0x4 DUP3 ADD MSTORE PUSH1 0x17 PUSH1 0x24 DUP3 ADD MSTORE PUSH32 0x506F6F6C206973206E6F7420696E697469616C697A6564000000000000000000 PUSH1 0x44 DUP3 ADD MSTORE PUSH1 0x64 ADD PUSH2 0x524 JUMP JUMPDEST PUSH1 0xD SLOAD PUSH3 0x10000 SWAP1 DIV PUSH1 0xFF AND ISZERO PUSH2 0x11BA JUMPI CALLER PUSH1 0x0 SWAP1 DUP2 MSTORE PUSH1 0x10 PUSH1 0x20 MSTORE PUSH1 0x40 SWAP1 KECCAK256 SLOAD PUSH1 0xFF AND PUSH2 0x11BA JUMPI PUSH1 0x40 MLOAD PUSH3 0x461BCD PUSH1 0xE5 SHL DUP2 MSTORE PUSH1 0x20 PUSH1 0x4 DUP3 ADD MSTORE PUSH1 0x18 PUSH1 0x24 DUP3 ADD MSTORE PUSH24 0x165BDD48185C99481B9BDD081A5B881DDA1A5D195B1A5CDD PUSH1 0x42 SHL PUSH1 0x44 DUP3 ADD MSTORE PUSH1 0x64 ADD PUSH2 0x524 JUMP JUMPDEST CALLER PUSH1 0x0 SWAP1 DUP2 MSTORE PUSH1 0xE PUSH1 0x20 MSTORE PUSH1 0x40 SWAP1 KECCAK256 DUP1 SLOAD DUP3 LT PUSH2 0x120E JUMPI PUSH1 0x40 MLOAD PUSH3 0x461BCD PUSH1 0xE5 SHL DUP2 MSTORE PUSH1 0x20 PUSH1 0x4 DUP3 ADD MSTORE PUSH1 0x12 PUSH1 0x24 DUP3 ADD MSTORE PUSH18 0x125B9D985B1A590819195C1BDCDA5D081251 PUSH1 0x72 SHL PUSH1 0x44 DUP3 ADD MSTORE PUSH1 0x64 ADD PUSH2 0x524 JUMP JUMPDEST PUSH1 0x0 DUP2 DUP4 DUP2 SLOAD DUP2 LT PUSH2 0x1222 JUMPI PUSH2 0x1222 PUSH2 0x192B JUMP JUMPDEST SWAP1 PUSH1 0x0 MSTORE PUSH1 0x20 PUSH1 0x0 KECCAK256 SWAP1 PUSH1 0x4 MUL ADD SWAP1 POP PUSH1 0x0 DUP2 PUSH1 0x0 ADD SLOAD GT PUSH2 0x12A2 JUMPI PUSH1 0x40 MLOAD PUSH3 0x461BCD PUSH1 0xE5 SHL DUP2 MSTORE PUSH1 0x20 PUSH1 0x4 DUP3 ADD MSTORE PUSH1 0x33 PUSH1 0x24 DUP3 ADD MSTORE PUSH32 0x596F75206861766520616C72656164792077697468647261776E20796F757220 PUSH1 0x44 DUP3 ADD MSTORE PUSH19 0x6361706974616C20616E642070726F66697473 PUSH1 0x68 SHL PUSH1 0x64 DUP3 ADD MSTORE PUSH1 0x84 ADD PUSH2 0x524 JUMP JUMPDEST PUSH1 0x2 DUP2 ADD SLOAD TIMESTAMP DUP2 GT ISZERO PUSH2 0x131D JUMPI PUSH1 0x40 MLOAD PUSH3 0x461BCD PUSH1 0xE5 SHL DUP2 MSTORE PUSH1 0x20 PUSH1 0x4 DUP3 ADD MSTORE PUSH1 0x3D PUSH1 0x24 DUP3 ADD MSTORE PUSH32 0x596F75206E65656420746F207761697420666F7220746865206465706F736974 PUSH1 0x44 DUP3 ADD MSTORE PUSH32 0x20746F2066696E697368206265666F7265207769746864726177696E67000000 PUSH1 0x64 DUP3 ADD MSTORE PUSH1 0x84 ADD PUSH2 0x524 JUMP JUMPDEST PUSH1 0x0 DUP3 PUSH1 0x3 ADD SLOAD GT PUSH2 0x1381 JUMPI PUSH1 0x40 MLOAD PUSH3 0x461BCD PUSH1 0xE5 SHL DUP2 MSTORE PUSH1 0x20 PUSH1 0x4 DUP3 ADD MSTORE PUSH1 0x27 PUSH1 0x24 DUP3 ADD MSTORE PUSH32 0x596F75206861766520616C72656164792077697468647261776E20796F757220 PUSH1 0x44 DUP3 ADD MSTORE PUSH7 0x72657761726473 PUSH1 0xC8 SHL PUSH1 0x64 DUP3 ADD MSTORE PUSH1 0x84 ADD PUSH2 0x524 JUMP JUMPDEST PUSH1 0x3 DUP3 ADD DUP1 SLOAD PUSH1 0x0 DUP1 DUP6 SSTORE SWAP1 SWAP2 SSTORE PUSH1 0x40 DUP1 MLOAD DUP3 DUP2 MSTORE PUSH1 0x20 DUP2 ADD DUP8 SWAP1 MSTORE CALLER SWAP2 PUSH32 0x2D4D49C3E017B8235C908CBAA83A2431A08F3B950712696ECE2088964FD399F0 SWAP2 ADD PUSH1 0x40 MLOAD DUP1 SWAP2 SUB SWAP1 LOG2 DUP3 SLOAD PUSH1 0x1 DUP5 ADD SLOAD PUSH1 0x2 DUP6 ADD SLOAD PUSH1 0x3 DUP7 ADD SLOAD PUSH1 0x40 DUP1 MLOAD DUP11 DUP2 MSTORE PUSH1 0x20 DUP2 ADD SWAP6 SWAP1 SWAP6 MSTORE DUP5 ADD SWAP3 SWAP1 SWAP3 MSTORE PUSH1 0x60 DUP4 ADD MSTORE PUSH1 0x80 DUP3 ADD MSTORE CALLER SWAP1 PUSH32 0x744927BB11003D6407E55B316D74E04B5C694659593F9E1E9201AB0F097AF9B6 SWAP1 PUSH1 0xA0 ADD PUSH1 0x40 MLOAD DUP1 SWAP2 SUB SWAP1 LOG2 PUSH1 0x3 SLOAD PUSH1 0x40 MLOAD PUSH4 0xA9059CBB PUSH1 0xE0 SHL DUP2 MSTORE CALLER PUSH1 0x4 DUP3 ADD MSTORE PUSH1 0x24 DUP2 ADD DUP4 SWAP1 MSTORE PUSH1 0x0 SWAP2 PUSH1 0x1 PUSH1 0x1 PUSH1 0xA0 SHL SUB AND SWAP1 PUSH4 0xA9059CBB SWAP1 PUSH1 0x44 ADD PUSH1 0x20 PUSH1 0x40 MLOAD DUP1 DUP4 SUB DUP2 PUSH1 0x0 DUP8 DUP1 EXTCODESIZE ISZERO DUP1 ISZERO PUSH2 0x1476 JUMPI PUSH1 0x0 DUP1 REVERT JUMPDEST POP GAS CALL ISZERO DUP1 ISZERO PUSH2 0x148A JUMPI RETURNDATASIZE PUSH1 0x0 DUP1 RETURNDATACOPY RETURNDATASIZE PUSH1 0x0 REVERT JUMPDEST POP POP POP POP PUSH1 0x40 MLOAD RETURNDATASIZE PUSH1 0x1F NOT PUSH1 0x1F DUP3 ADD AND DUP3 ADD DUP1 PUSH1 0x40 MSTORE POP DUP2 ADD SWAP1 PUSH2 0x14AE SWAP2 SWAP1 PUSH2 0x17E9 JUMP JUMPDEST SWAP1 POP DUP1 PUSH2 0x14CD JUMPI PUSH1 0x40 MLOAD PUSH3 0x461BCD PUSH1 0xE5 SHL DUP2 MSTORE PUSH1 0x4 ADD PUSH2 0x524 SWAP1 PUSH2 0x1878 JUMP JUMPDEST POP POP POP POP POP PUSH2 0xD1B PUSH1 0x1 DUP1 SSTORE JUMP JUMPDEST PUSH2 0x14E3 PUSH2 0x15A6 JUMP JUMPDEST PUSH1 0x1 PUSH1 0x1 PUSH1 0xA0 SHL SUB DUP2 AND PUSH2 0x1548 JUMPI PUSH1 0x40 MLOAD PUSH3 0x461BCD PUSH1 0xE5 SHL DUP2 MSTORE PUSH1 0x20 PUSH1 0x4 DUP3 ADD MSTORE PUSH1 0x26 PUSH1 0x24 DUP3 ADD MSTORE PUSH32 0x4F776E61626C653A206E6577206F776E657220697320746865207A65726F2061 PUSH1 0x44 DUP3 ADD MSTORE PUSH6 0x646472657373 PUSH1 0xD0 SHL PUSH1 0x64 DUP3 ADD MSTORE PUSH1 0x84 ADD PUSH2 0x524 JUMP JUMPDEST PUSH2 0xD1B DUP2 PUSH2 0x1679 JUMP JUMPDEST PUSH2 0x1559 PUSH2 0x15A6 JUMP JUMPDEST PUSH1 0xD DUP1 SLOAD PUSH1 0xFF DUP1 DUP3 AND ISZERO PUSH1 0xFF NOT SWAP1 SWAP3 AND DUP3 OR SWAP1 SWAP3 SSTORE PUSH1 0x40 MLOAD SWAP2 AND ISZERO ISZERO DUP2 MSTORE PUSH32 0xB08F70F6219C5C2ED5E08E7CF45080E4840FDE880B27A0841FAF45475CD02D2E SWAP1 PUSH1 0x20 ADD PUSH1 0x40 MLOAD DUP1 SWAP2 SUB SWAP1 LOG1 JUMP JUMPDEST PUSH1 0x0 SLOAD PUSH1 0x1 PUSH1 0x1 PUSH1 0xA0 SHL SUB AND CALLER EQ PUSH2 0xEEC JUMPI PUSH1 0x40 MLOAD PUSH3 0x461BCD PUSH1 0xE5 SHL DUP2 MSTORE PUSH1 0x20 PUSH1 0x4 DUP3 ADD DUP2 SWAP1 MSTORE PUSH1 0x24 DUP3 ADD MSTORE PUSH32 0x4F776E61626C653A2063616C6C6572206973206E6F7420746865206F776E6572 PUSH1 0x44 DUP3 ADD MSTORE PUSH1 0x64 ADD PUSH2 0x524 JUMP JUMPDEST PUSH1 0x2 PUSH1 0x1 SLOAD EQ ISZERO PUSH2 0x1653 JUMPI PUSH1 0x40 MLOAD PUSH3 0x461BCD PUSH1 0xE5 SHL DUP2 MSTORE PUSH1 0x20 PUSH1 0x4 DUP3 ADD MSTORE PUSH1 0x1F PUSH1 0x24 DUP3 ADD MSTORE PUSH32 0x5265656E7472616E637947756172643A207265656E7472616E742063616C6C00 PUSH1 0x44 DUP3 ADD MSTORE PUSH1 0x64 ADD PUSH2 0x524 JUMP JUMPDEST PUSH1 0x2 PUSH1 0x1 SSTORE JUMP JUMPDEST PUSH1 0x0 PUSH2 0x1666 DUP3 DUP5 PUSH2 0x18DB JUMP JUMPDEST SWAP4 SWAP3 POP POP POP JUMP JUMPDEST PUSH1 0x0 PUSH2 0x1666 DUP3 DUP5 PUSH2 0x18B9 JUMP JUMPDEST PUSH1 0x0 DUP1 SLOAD PUSH1 0x1 PUSH1 0x1 PUSH1 0xA0 SHL SUB DUP4 DUP2 AND PUSH1 0x1 PUSH1 0x1 PUSH1 0xA0 SHL SUB NOT DUP4 AND DUP2 OR DUP5 SSTORE PUSH1 0x40 MLOAD SWAP2 SWAP1 SWAP3 AND SWAP3 DUP4 SWAP2 PUSH32 0x8BE0079C531659141344CD1FD0A4F28419497F9722A3DAAFE3B4186F6B6457E0 SWAP2 SWAP1 LOG3 POP POP JUMP JUMPDEST DUP1 CALLDATALOAD PUSH1 0x1 PUSH1 0x1 PUSH1 0xA0 SHL SUB DUP2 AND DUP2 EQ PUSH2 0x16E0 JUMPI PUSH1 0x0 DUP1 REVERT JUMPDEST SWAP2 SWAP1 POP JUMP JUMPDEST PUSH1 0x0 PUSH1 0x20 DUP3 DUP5 SUB SLT ISZERO PUSH2 0x16F7 JUMPI PUSH1 0x0 DUP1 REVERT JUMPDEST PUSH2 0x1666 DUP3 PUSH2 0x16C9 JUMP JUMPDEST PUSH1 0x0 DUP1 PUSH1 0x40 DUP4 DUP6 SUB SLT ISZERO PUSH2 0x1713 JUMPI PUSH1 0x0 DUP1 REVERT JUMPDEST PUSH2 0x171C DUP4 PUSH2 0x16C9 JUMP JUMPDEST SWAP5 PUSH1 0x20 SWAP4 SWAP1 SWAP4 ADD CALLDATALOAD SWAP4 POP POP POP JUMP JUMPDEST PUSH1 0x0 DUP1 PUSH1 0x0 DUP1 PUSH1 0x0 DUP1 PUSH1 0xC0 DUP8 DUP10 SUB SLT ISZERO PUSH2 0x1743 JUMPI PUSH1 0x0 DUP1 REVERT JUMPDEST PUSH2 0x174C DUP8 PUSH2 0x16C9 JUMP JUMPDEST SWAP9 PUSH1 0x20 DUP9 ADD CALLDATALOAD SWAP9 POP PUSH1 0x40 DUP9 ADD CALLDATALOAD SWAP8 PUSH1 0x60 DUP2 ADD CALLDATALOAD SWAP8 POP PUSH1 0x80 DUP2 ADD CALLDATALOAD SWAP7 POP PUSH1 0xA0 ADD CALLDATALOAD SWAP5 POP SWAP3 POP POP POP JUMP JUMPDEST PUSH1 0x0 DUP1 PUSH1 0x20 DUP4 DUP6 SUB SLT ISZERO PUSH2 0x1787 JUMPI PUSH1 0x0 DUP1 REVERT JUMPDEST DUP3 CALLDATALOAD PUSH8 0xFFFFFFFFFFFFFFFF DUP1 DUP3 GT ISZERO PUSH2 0x179F JUMPI PUSH1 0x0 DUP1 REVERT JUMPDEST DUP2 DUP6 ADD SWAP2 POP DUP6 PUSH1 0x1F DUP4 ADD SLT PUSH2 0x17B3 JUMPI PUSH1 0x0 DUP1 REVERT JUMPDEST DUP2 CALLDATALOAD DUP2 DUP2 GT ISZERO PUSH2 0x17C2 JUMPI PUSH1 0x0 DUP1 REVERT JUMPDEST DUP7 PUSH1 0x20 DUP3 PUSH1 0x5 SHL DUP6 ADD ADD GT ISZERO PUSH2 0x17D7 JUMPI PUSH1 0x0 DUP1 REVERT JUMPDEST PUSH1 0x20 SWAP3 SWAP1 SWAP3 ADD SWAP7 SWAP2 SWAP6 POP SWAP1 SWAP4 POP POP POP POP JUMP JUMPDEST PUSH1 0x0 PUSH1 0x20 DUP3 DUP5 SUB SLT ISZERO PUSH2 0x17FB JUMPI PUSH1 0x0 DUP1 REVERT JUMPDEST DUP2 MLOAD DUP1 ISZERO ISZERO DUP2 EQ PUSH2 0x1666 JUMPI PUSH1 0x0 DUP1 REVERT JUMPDEST PUSH1 0x0 PUSH1 0x20 DUP3 DUP5 SUB SLT ISZERO PUSH2 0x181D JUMPI PUSH1 0x0 DUP1 REVERT JUMPDEST POP CALLDATALOAD SWAP2 SWAP1 POP JUMP JUMPDEST PUSH1 0x0 PUSH1 0x20 DUP3 DUP5 SUB SLT ISZERO PUSH2 0x1836 JUMPI PUSH1 0x0 DUP1 REVERT JUMPDEST POP MLOAD SWAP2 SWAP1 POP JUMP JUMPDEST PUSH1 0x0 DUP1 PUSH1 0x0 DUP1 PUSH1 0x0 PUSH1 0xA0 DUP7 DUP9 SUB SLT ISZERO PUSH2 0x1855 JUMPI PUSH1 0x0 DUP1 REVERT JUMPDEST POP POP DUP4 CALLDATALOAD SWAP6 PUSH1 0x20 DUP6 ADD CALLDATALOAD SWAP6 POP PUSH1 0x40 DUP6 ADD CALLDATALOAD SWAP5 PUSH1 0x60 DUP2 ADD CALLDATALOAD SWAP5 POP PUSH1 0x80 ADD CALLDATALOAD SWAP3 POP SWAP1 POP JUMP JUMPDEST PUSH1 0x20 DUP1 DUP3 MSTORE PUSH1 0xF SWAP1 DUP3 ADD MSTORE PUSH15 0x151C985B9CD9995C8819985A5B1959 PUSH1 0x8A SHL PUSH1 0x40 DUP3 ADD MSTORE PUSH1 0x60 ADD SWAP1 JUMP JUMPDEST PUSH1 0x0 DUP3 NOT DUP3 GT ISZERO PUSH2 0x18B4 JUMPI PUSH2 0x18B4 PUSH2 0x1915 JUMP JUMPDEST POP ADD SWAP1 JUMP JUMPDEST PUSH1 0x0 DUP3 PUSH2 0x18D6 JUMPI PUSH4 0x4E487B71 PUSH1 0xE0 SHL PUSH1 0x0 MSTORE PUSH1 0x12 PUSH1 0x4 MSTORE PUSH1 0x24 PUSH1 0x0 REVERT JUMPDEST POP DIV SWAP1 JUMP JUMPDEST PUSH1 0x0 DUP2 PUSH1 0x0 NOT DIV DUP4 GT DUP3 ISZERO ISZERO AND ISZERO PUSH2 0x18F5 JUMPI PUSH2 0x18F5 PUSH2 0x1915 JUMP JUMPDEST POP MUL SWAP1 JUMP JUMPDEST PUSH1 0x0 PUSH1 0x0 NOT DUP3 EQ ISZERO PUSH2 0x190E JUMPI PUSH2 0x190E PUSH2 0x1915 JUMP JUMPDEST POP PUSH1 0x1 ADD SWAP1 JUMP JUMPDEST PUSH4 0x4E487B71 PUSH1 0xE0 SHL PUSH1 0x0 MSTORE PUSH1 0x11 PUSH1 0x4 MSTORE PUSH1 0x24 PUSH1 0x0 REVERT JUMPDEST PUSH4 0x4E487B71 PUSH1 0xE0 SHL PUSH1 0x0 MSTORE PUSH1 0x32 PUSH1 0x4 MSTORE PUSH1 0x24 PUSH1 0x0 REVERT INVALID LOG2 PUSH5 0x6970667358 0x22 SLT KECCAK256 SSTORE SHR REVERT SWAP7 SHL 0xF7 0xC3 0xDB 0xE8 0xCB 0x4E 0x2E 0xB0 0xEF 0xE8 PUSH20 0xD5E3527F289782373B8DDF9808E574EF64736F6C PUSH4 0x43000805 STOP CALLER "},"methodIdentifiers":{"ChangeDays(uint256)":"16451dc9","ChangeLimitAmount(uint256)":"6b68f810","ChangeMaxAmount(uint256)":"13cad1d1","ChangeMinAmount(uint256)":"bb1711a6","ChangePercent(uint256)":"97a64101","ChangeRecolect(uint256)":"6ff8f8c2","ChangeWalletRecibe(address)":"47afd82f","Deposit(uint256)":"4d6ce1e5","EarlyClaim(address,uint256)":"714a2b90","EarnDeposit(uint256)":"c760dad5","Initialized(uint256,uint256,uint256,uint256,uint256)":"3366bff9","MaxAmount()":"60a81002","Migration(address,uint256,uint256,uint256,uint256,uint256)":"bdcbd5a9","MinAmount()":"ec652406","PercentEarn()":"54f3a6e0","RecoverTokens(address)":"478b0f87","TokenRecibe()":"0a1e6314","ViewDay()":"6ffe7bbe","addToWhitelist(address[])":"7f649783","addUserWhiteList(address)":"2a8a9938","balanceUser(address,uint256)":"b8d25a43","depositCount(address)":"f4443d9a","getWhiteList()":"09a9d76c","limit()":"a4d66daf","lock()":"f83d08ba","owner()":"8da5cb5b","recolect()":"7586c414","removeFromWhitelist(address[])":"548db174","renounceOwnership()":"715018a6","transferOwnership(address)":"f2fde38b","walletPool()":"e5c154f1","whiteList(address)":"372c12b1"}}}}}