{"contracts/Earni.sol":{"EARNPRIVATE":{"abi":[{"inputs":[{"internalType":"address","name":"_walletPool","type":"address"},{"internalType":"address","name":"_TokenRecibe","type":"address"},{"internalType":"bool","name":"_whiteListed","type":"bool"}],"stateMutability":"nonpayable","type":"constructor"},{"anonymous":false,"inputs":[{"indexed":false,"internalType":"bool","name":"locked","type":"bool"}],"name":"ContractLocked","type":"event"},{"anonymous":false,"inputs":[{"indexed":true,"internalType":"address","name":"user","type":"address"},{"indexed":false,"internalType":"uint256","name":"amount","type":"uint256"},{"indexed":false,"internalType":"uint256","name":"depositId","type":"uint256"}],"name":"DepositMade","type":"event"},{"anonymous":false,"inputs":[{"indexed":true,"internalType":"address","name":"user","type":"address"},{"indexed":false,"internalType":"uint256","name":"depositId","type":"uint256"},{"indexed":false,"internalType":"uint256","name":"amount","type":"uint256"},{"indexed":false,"internalType":"uint256","name":"initTime","type":"uint256"},{"indexed":false,"internalType":"uint256","name":"finishTime","type":"uint256"},{"indexed":false,"internalType":"uint256","name":"earn","type":"uint256"}],"name":"DepositUpdated","type":"event"},{"anonymous":false,"inputs":[{"indexed":true,"internalType":"address","name":"previousOwner","type":"address"},{"indexed":true,"internalType":"address","name":"newOwner","type":"address"}],"name":"OwnershipTransferred","type":"event"},{"anonymous":false,"inputs":[{"indexed":true,"internalType":"address","name":"user","type":"address"},{"indexed":false,"internalType":"uint256","name":"amount","type":"uint256"},{"indexed":false,"internalType":"uint256","name":"depositId","type":"uint256"}],"name":"WithdrawalMade","type":"event"},{"anonymous":false,"inputs":[{"indexed":false,"internalType":"address","name":"user","type":"address"},{"indexed":false,"internalType":"uint256","name":"from","type":"uint256"},{"indexed":false,"internalType":"uint256","name":"to","type":"uint256"}],"name":"earlyClaim","type":"event"},{"inputs":[{"internalType":"uint256","name":"_days","type":"uint256"}],"name":"ChangeDays","outputs":[],"stateMutability":"nonpayable","type":"function"},{"inputs":[{"internalType":"uint256","name":"_amount","type":"uint256"}],"name":"ChangeLimitAmount","outputs":[],"stateMutability":"nonpayable","type":"function"},{"inputs":[{"internalType":"uint256","name":"_amount","type":"uint256"}],"name":"ChangeMaxAmount","outputs":[],"stateMutability":"nonpayable","type":"function"},{"inputs":[{"internalType":"uint256","name":"_amount","type":"uint256"}],"name":"ChangeMinAmount","outputs":[],"stateMutability":"nonpayable","type":"function"},{"inputs":[{"internalType":"uint256","name":"_percent","type":"uint256"}],"name":"ChangePercent","outputs":[],"stateMutability":"nonpayable","type":"function"},{"inputs":[{"internalType":"uint256","name":"_recolect","type":"uint256"}],"name":"ChangeRecolect","outputs":[],"stateMutability":"nonpayable","type":"function"},{"inputs":[{"internalType":"address","name":"_wallet","type":"address"}],"name":"ChangeWalletRecibe","outputs":[],"stateMutability":"nonpayable","type":"function"},{"inputs":[{"internalType":"uint256","name":"_amount","type":"uint256"}],"name":"Deposit","outputs":[],"stateMutability":"nonpayable","type":"function"},{"inputs":[{"internalType":"address","name":"_user","type":"address"},{"internalType":"uint256","name":"_depositId","type":"uint256"}],"name":"EarlyClaim","outputs":[],"stateMutability":"nonpayable","type":"function"},{"inputs":[{"internalType":"uint256","name":"_depositId","type":"uint256"}],"name":"EarnDeposit","outputs":[],"stateMutability":"nonpayable","type":"function"},{"inputs":[{"internalType":"uint256","name":"_limit","type":"uint256"},{"internalType":"uint256","name":"_maxAmount","type":"uint256"},{"internalType":"uint256","name":"_minAmount","type":"uint256"},{"internalType":"uint256","name":"_percent","type":"uint256"},{"internalType":"uint256","name":"_days","type":"uint256"}],"name":"Initialized","outputs":[],"stateMutability":"nonpayable","type":"function"},{"inputs":[],"name":"MaxAmount","outputs":[{"internalType":"uint256","name":"","type":"uint256"}],"stateMutability":"view","type":"function"},{"inputs":[{"internalType":"address","name":"_user","type":"address"},{"internalType":"uint256","name":"_depositId","type":"uint256"},{"internalType":"uint256","name":"_amount","type":"uint256"},{"internalType":"uint256","name":"_initTime","type":"uint256"},{"internalType":"uint256","name":"_finishTime","type":"uint256"},{"internalType":"uint256","name":"_earn","type":"uint256"}],"name":"Migration","outputs":[],"stateMutability":"nonpayable","type":"function"},{"inputs":[],"name":"MinAmount","outputs":[{"internalType":"uint256","name":"","type":"uint256"}],"stateMutability":"view","type":"function"},{"inputs":[],"name":"PercentEarn","outputs":[{"internalType":"uint256","name":"","type":"uint256"}],"stateMutability":"view","type":"function"},{"inputs":[{"internalType":"address","name":"_tokens","type":"address"}],"name":"RecoverTokens","outputs":[],"stateMutability":"nonpayable","type":"function"},{"inputs":[],"name":"TokenRecibe","outputs":[{"internalType":"address","name":"","type":"address"}],"stateMutability":"view","type":"function"},{"inputs":[],"name":"ViewDay","outputs":[{"internalType":"uint256","name":"","type":"uint256"}],"stateMutability":"view","type":"function"},{"inputs":[{"internalType":"address[]","name":"addresses","type":"address[]"}],"name":"addToWhitelist","outputs":[],"stateMutability":"nonpayable","type":"function"},{"inputs":[{"internalType":"address","name":"_wallet","type":"address"}],"name":"addUserWhiteList","outputs":[],"stateMutability":"nonpayable","type":"function"},{"inputs":[{"internalType":"address","name":"","type":"address"},{"internalType":"uint256","name":"","type":"uint256"}],"name":"balanceUser","outputs":[{"internalType":"uint256","name":"Amount","type":"uint256"},{"internalType":"uint256","name":"initTime","type":"uint256"},{"internalType":"uint256","name":"finishTime","type":"uint256"},{"internalType":"uint256","name":"Earn","type":"uint256"}],"stateMutability":"view","type":"function"},{"inputs":[{"internalType":"address","name":"","type":"address"}],"name":"depositCount","outputs":[{"internalType":"uint256","name":"","type":"uint256"}],"stateMutability":"view","type":"function"},{"inputs":[],"name":"getWhiteList","outputs":[{"internalType":"bool","name":"","type":"bool"}],"stateMutability":"view","type":"function"},{"inputs":[],"name":"limit","outputs":[{"internalType":"uint256","name":"","type":"uint256"}],"stateMutability":"view","type":"function"},{"inputs":[],"name":"lock","outputs":[],"stateMutability":"nonpayable","type":"function"},{"inputs":[],"name":"owner","outputs":[{"internalType":"address","name":"","type":"address"}],"stateMutability":"view","type":"function"},{"inputs":[],"name":"recolect","outputs":[{"internalType":"uint256","name":"","type":"uint256"}],"stateMutability":"view","type":"function"},{"inputs":[{"internalType":"address[]","name":"addresses","type":"address[]"}],"name":"removeFromWhitelist","outputs":[],"stateMutability":"nonpayable","type":"function"},{"inputs":[],"name":"renounceOwnership","outputs":[],"stateMutability":"nonpayable","type":"function"},{"inputs":[{"internalType":"address","name":"newOwner","type":"address"}],"name":"transferOwnership","outputs":[],"stateMutability":"nonpayable","type":"function"},{"inputs":[],"name":"walletPool","outputs":[{"internalType":"address","name":"","type":"address"}],"stateMutability":"view","type":"function"},{"inputs":[{"internalType":"address","name":"","type":"address"}],"name":"whiteList","outputs":[{"internalType":"bool","name":"","type":"bool"}],"stateMutability":"view","type":"function"}],"evm":{"bytecode":{"linkReferences":{},"object":"608060405262015180600b553480156200001857600080fd5b50604051620031993803806200319983398181016040528101906200003e919062000204565b6200005e620000526200010a60201b60201c565b6200011260201b60201c565b6001808190555082600260006101000a81548173ffffffffffffffffffffffffffffffffffffffff021916908373ffffffffffffffffffffffffffffffffffffffff16021790555081600360006101000a81548173ffffffffffffffffffffffffffffffffffffffff021916908373ffffffffffffffffffffffffffffffffffffffff16021790555080600d60026101000a81548160ff021916908315150217905550505050620002d9565b600033905090565b60008060009054906101000a900473ffffffffffffffffffffffffffffffffffffffff169050816000806101000a81548173ffffffffffffffffffffffffffffffffffffffff021916908373ffffffffffffffffffffffffffffffffffffffff1602179055508173ffffffffffffffffffffffffffffffffffffffff168173ffffffffffffffffffffffffffffffffffffffff167f8be0079c531659141344cd1fd0a4f28419497f9722a3daafe3b4186f6b6457e060405160405180910390a35050565b600081519050620001e781620002a5565b92915050565b600081519050620001fe81620002bf565b92915050565b60008060006060848603121562000220576200021f620002a0565b5b60006200023086828701620001d6565b93505060206200024386828701620001d6565b92505060406200025686828701620001ed565b9150509250925092565b60006200026d8262000280565b9050919050565b60008115159050919050565b600073ffffffffffffffffffffffffffffffffffffffff82169050919050565b600080fd5b620002b08162000260565b8114620002bc57600080fd5b50565b620002ca8162000274565b8114620002d657600080fd5b50565b612eb080620002e96000396000f3fe608060405234801561001057600080fd5b50600436106101f05760003560e01c8063714a2b901161010f578063bb1711a6116100a2578063ec65240611610071578063ec65240614610530578063f2fde38b1461054e578063f4443d9a1461056a578063f83d08ba1461059a576101f0565b8063bb1711a6146104be578063bdcbd5a9146104da578063c760dad5146104f6578063e5c154f114610512576101f0565b80638da5cb5b116100de5780638da5cb5b1461043357806397a6410114610451578063a4d66daf1461046d578063b8d25a431461048b576101f0565b8063714a2b90146103d3578063715018a6146103ef5780637586c414146103f95780637f64978314610417576101f0565b806347afd82f1161018757806360a810021161015657806360a810021461035f5780636b68f8101461037d5780636ff8f8c2146103995780636ffe7bbe146103b5576101f0565b806347afd82f146102ed5780634d6ce1e514610309578063548db1741461032557806354f3a6e014610341576101f0565b80632a8a9938116101c35780632a8a9938146102695780633366bff914610285578063372c12b1146102a1578063478b0f87146102d1576101f0565b806309a9d76c146101f55780630a1e63141461021357806313cad1d11461023157806316451dc91461024d575b600080fd5b6101fd6105a4565b60405161020a9190612434565b60405180910390f35b61021b6105bb565b6040516102289190612382565b60405180910390f35b61024b60048036038101906102469190611fa1565b6105e1565b005b61026760048036038101906102629190611fa1565b6105f3565b005b610283600480360381019061027e9190611e2d565b610612565b005b61029f600480360381019061029a9190611ffb565b610675565b005b6102bb60048036038101906102b69190611e2d565b610742565b6040516102c89190612434565b60405180910390f35b6102eb60048036038101906102e69190611e2d565b610762565b005b61030760048036038101906103029190611e2d565b6108c7565b005b610323600480360381019061031e9190611fa1565b610913565b005b61033f600480360381019061033a9190611f27565b6110ef565b005b6103496111a2565b60405161035691906126ef565b60405180910390f35b6103676111a8565b60405161037491906126ef565b60405180910390f35b61039760048036038101906103929190611fa1565b6111ae565b005b6103b360048036038101906103ae9190611fa1565b6111c0565b005b6103bd6111d2565b6040516103ca91906126ef565b60405180910390f35b6103ed60048036038101906103e89190611e5a565b6111e9565b005b6103f7611360565b005b610401611374565b60405161040e91906126ef565b60405180910390f35b610431600480360381019061042c9190611f27565b61137a565b005b61043b61142d565b6040516104489190612382565b60405180910390f35b61046b60048036038101906104669190611fa1565b611456565b005b6104756114ab565b60405161048291906126ef565b60405180910390f35b6104a560048036038101906104a09190611e5a565b6114b1565b6040516104b59493929190612733565b60405180910390f35b6104d860048036038101906104d39190611fa1565b6114fe565b005b6104f460048036038101906104ef9190611e9a565b611510565b005b610510600480360381019061050b9190611fa1565b6115cb565b005b61051a611a72565b6040516105279190612382565b60405180910390f35b610538611a98565b60405161054591906126ef565b60405180910390f35b61056860048036038101906105639190611e2d565b611a9e565b005b610584600480360381019061057f9190611e2d565b611b22565b60405161059191906126ef565b60405180910390f35b6105a2611b3a565b005b6000600d60029054906101000a900460ff16905090565b600360009054906101000a900473ffffffffffffffffffffffffffffffffffffffff1681565b6105e9611bb4565b8060088190555050565b6105fb611bb4565b600b54816106099190612863565b600c8190555050565b61061a611bb4565b6001601060008373ffffffffffffffffffffffffffffffffffffffff1673ffffffffffffffffffffffffffffffffffffffff16815260200190815260200160002060006101000a81548160ff02191690831515021790555050565b61067d611bb4565b600d60019054906101000a900460ff16156106cd576040517f08c379a00000000000000000000000000000000000000000000000000000000081526004016106c49061244f565b60405180910390fd5b60006006819055506000600d60006101000a81548160ff02191690831515021790555084600781905550836008819055508260098190555081600a81905550600b548161071a9190612863565b600c819055506001600d60016101000a81548160ff0219169083151502179055505050505050565b60106020528060005260406000206000915054906101000a900460ff1681565b61076a611bb4565b60008173ffffffffffffffffffffffffffffffffffffffff1663a9059cbb338473ffffffffffffffffffffffffffffffffffffffff166370a08231306040518263ffffffff1660e01b81526004016107c29190612382565b60206040518083038186803b1580156107da57600080fd5b505afa1580156107ee573d6000803e3d6000fd5b505050506040513d601f19601f820116820180604052508101906108129190611fce565b6040518363ffffffff1660e01b815260040161082f9291906123d4565b602060405180830381600087803b15801561084957600080fd5b505af115801561085d573d6000803e3d6000fd5b505050506040513d601f19601f820116820180604052508101906108819190611f74565b9050806108c3576040517f08c379a00000000000000000000000000000000000000000000000000000000081526004016108ba906124af565b60405180910390fd5b5050565b6108cf611bb4565b80600260006101000a81548173ffffffffffffffffffffffffffffffffffffffff021916908373ffffffffffffffffffffffffffffffffffffffff16021790555050565b61091b611c32565b600d60009054906101000a900460ff161561096b576040517f08c379a00000000000000000000000000000000000000000000000000000000081526004016109629061246f565b60405180910390fd5b600d60019054906101000a900460ff166109ba576040517f08c379a00000000000000000000000000000000000000000000000000000000081526004016109b1906125ef565b60405180910390fd5b600d60029054906101000a900460ff1615610a5c57601060003373ffffffffffffffffffffffffffffffffffffffff1673ffffffffffffffffffffffffffffffffffffffff16815260200190815260200160002060009054906101000a900460ff16610a5b576040517f08c379a0000000000000000000000000000000000000000000000000000000008152600401610a529061250f565b60405180910390fd5b5b6000600360009054906101000a900473ffffffffffffffffffffffffffffffffffffffff169050600081905060008173ffffffffffffffffffffffffffffffffffffffff1663095ea7b330866040518363ffffffff1660e01b8152600401610ac59291906123d4565b602060405180830381600087803b158015610adf57600080fd5b505af1158015610af3573d6000803e3d6000fd5b505050506040513d601f19601f82011682018060405250810190610b179190611f74565b905080610b59576040517f08c379a0000000000000000000000000000000000000000000000000000000008152600401610b509061256f565b60405180910390fd5b600754600f60003373ffffffffffffffffffffffffffffffffffffffff1673ffffffffffffffffffffffffffffffffffffffff1681526020019081526020016000205410610bdc576040517f08c379a0000000000000000000000000000000000000000000000000000000008152600401610bd39061264f565b60405180910390fd5b60008273ffffffffffffffffffffffffffffffffffffffff166370a08231336040518263ffffffff1660e01b8152600401610c179190612382565b60206040518083038186803b158015610c2f57600080fd5b505afa158015610c43573d6000803e3d6000fd5b505050506040513d601f19601f82011682018060405250810190610c679190611fce565b905084811015610cac576040517f08c379a0000000000000000000000000000000000000000000000000000000008152600401610ca3906124ef565b60405180910390fd5b60008511610cef576040517f08c379a0000000000000000000000000000000000000000000000000000000008152600401610ce6906124cf565b60405180910390fd5b600954851015610d34576040517f08c379a0000000000000000000000000000000000000000000000000000000008152600401610d2b906125af565b60405180910390fd5b600854851115610d79576040517f08c379a0000000000000000000000000000000000000000000000000000000008152600401610d709061268f565b60405180910390fd5b60075485600654610d8a91906127dc565b1115610dcb576040517f08c379a0000000000000000000000000000000000000000000000000000000008152600401610dc29061260f565b60405180910390fd5b60006040518060800160405280600081526020016000815260200160008152602001600081525090508581600001818152505042816020018181525050600c5442610e1691906127dc565b816040018181525050610e476064610e39600a5489611c8290919063ffffffff16565b611c9890919063ffffffff16565b816060018181525050600e60003373ffffffffffffffffffffffffffffffffffffffff1673ffffffffffffffffffffffffffffffffffffffff168152602001908152602001600020819080600181540180825580915050600190039060005260206000209060040201600090919091909150600082015181600001556020820151816001015560408201518160020155606082015181600301555050600f60003373ffffffffffffffffffffffffffffffffffffffff1673ffffffffffffffffffffffffffffffffffffffff1681526020019081526020016000206000815480929190610f3390612905565b91905055508560066000828254610f4a91906127dc565b925050819055506000600e60003373ffffffffffffffffffffffffffffffffffffffff1673ffffffffffffffffffffffffffffffffffffffff16815260200190815260200160002080549050905060008573ffffffffffffffffffffffffffffffffffffffff166323b872dd33600260009054906101000a900473ffffffffffffffffffffffffffffffffffffffff168b6040518463ffffffff1660e01b8152600401610ff99392919061239d565b602060405180830381600087803b15801561101357600080fd5b505af1158015611027573d6000803e3d6000fd5b505050506040513d601f19601f8201168201806040525081019061104b9190611f74565b90508061108d576040517f08c379a0000000000000000000000000000000000000000000000000000000008152600401611084906124af565b60405180910390fd5b3373ffffffffffffffffffffffffffffffffffffffff167f0b05f0d1cd0819f155b8a61f60baf7767c1ee49d04aeaab701df236140eb93f989846040516110d592919061270a565b60405180910390a2505050505050506110ec611cae565b50565b6110f7611bb4565b60005b8282905081101561119d57600083838381811061111a576111196129ac565b5b905060200201602081019061112f9190611e2d565b90506000601060008373ffffffffffffffffffffffffffffffffffffffff1673ffffffffffffffffffffffffffffffffffffffff16815260200190815260200160002060006101000a81548160ff02191690831515021790555050808061119590612905565b9150506110fa565b505050565b600a5481565b60085481565b6111b6611bb4565b8060078190555050565b6111c8611bb4565b8060068190555050565b6000600b54600c546111e49190612832565b905090565b6111f1611bb4565b6000600e60008473ffffffffffffffffffffffffffffffffffffffff1673ffffffffffffffffffffffffffffffffffffffff1681526020019081526020016000208281548110611244576112436129ac565b5b906000526020600020906004020160405180608001604052908160008201548152602001600182015481526020016002820154815260200160038201548152505090504281604001818152505080600e60008573ffffffffffffffffffffffffffffffffffffffff1673ffffffffffffffffffffffffffffffffffffffff16815260200190815260200160002083815481106112e3576112e26129ac565b5b9060005260206000209060040201600082015181600001556020820151816001015560408201518160020155606082015181600301559050507fb79cc8bc32f75c57b53b9fe33ff31302d8befe74ba35a51afd8ebb6da0bf668483826040015142604051611353939291906123fd565b60405180910390a1505050565b611368611bb4565b6113726000611cb7565b565b60065481565b611382611bb4565b60005b828290508110156114285760008383838181106113a5576113a46129ac565b5b90506020020160208101906113ba9190611e2d565b90506001601060008373ffffffffffffffffffffffffffffffffffffffff1673ffffffffffffffffffffffffffffffffffffffff16815260200190815260200160002060006101000a81548160ff02191690831515021790555050808061142090612905565b915050611385565b505050565b60008060009054906101000a900473ffffffffffffffffffffffffffffffffffffffff16905090565b61145e611bb4565b600081116114a1576040517f08c379a0000000000000000000000000000000000000000000000000000000008152600401611498906126af565b60405180910390fd5b80600a8190555050565b60075481565b600e60205281600052604060002081815481106114cd57600080fd5b9060005260206000209060040201600091509150508060000154908060010154908060020154908060030154905084565b611506611bb4565b8060098190555050565b611518611bb4565b604051806080016040528085815260200184815260200183815260200182815250600e60008873ffffffffffffffffffffffffffffffffffffffff1673ffffffffffffffffffffffffffffffffffffffff168152602001908152602001600020868154811061158a576115896129ac565b5b906000526020600020906004020160008201518160000155602082015181600101556040820151816002015560608201518160030155905050505050505050565b6115d3611c32565b600d60009054906101000a900460ff1615611623576040517f08c379a000000000000000000000000000000000000000000000000000000000815260040161161a9061246f565b60405180910390fd5b600d60019054906101000a900460ff16611672576040517f08c379a00000000000000000000000000000000000000000000000000000000081526004016116699061258f565b60405180910390fd5b600d60029054906101000a900460ff161561171457601060003373ffffffffffffffffffffffffffffffffffffffff1673ffffffffffffffffffffffffffffffffffffffff16815260200190815260200160002060009054906101000a900460ff16611713576040517f08c379a000000000000000000000000000000000000000000000000000000000815260040161170a9061250f565b60405180910390fd5b5b6000600e60003373ffffffffffffffffffffffffffffffffffffffff1673ffffffffffffffffffffffffffffffffffffffff16815260200190815260200160002090508080549050821061179d576040517f08c379a00000000000000000000000000000000000000000000000000000000081526004016117949061262f565b60405180910390fd5b60008183815481106117b2576117b16129ac565b5b906000526020600020906004020190506000816000015411611809576040517f08c379a00000000000000000000000000000000000000000000000000000000081526004016118009061254f565b60405180910390fd5b60008160020154905042811115611855576040517f08c379a000000000000000000000000000000000000000000000000000000000815260040161184c9061252f565b60405180910390fd5b600082600301541161189c576040517f08c379a00000000000000000000000000000000000000000000000000000000081526004016118939061266f565b60405180910390fd5b60008260030154905060008360000181905550600083600301819055503373ffffffffffffffffffffffffffffffffffffffff167f2d4d49c3e017b8235c908cbaa83a2431a08f3b950712696ece2088964fd399f0828760405161190192919061270a565b60405180910390a23373ffffffffffffffffffffffffffffffffffffffff167f744927bb11003d6407e55b316d74e04b5c694659593f9e1e9201ab0f097af9b6868560000154866001015487600201548860030154604051611967959493929190612778565b60405180910390a26000600360009054906101000a900473ffffffffffffffffffffffffffffffffffffffff1673ffffffffffffffffffffffffffffffffffffffff1663a9059cbb33846040518363ffffffff1660e01b81526004016119ce9291906123d4565b602060405180830381600087803b1580156119e857600080fd5b505af11580156119fc573d6000803e3d6000fd5b505050506040513d601f19601f82011682018060405250810190611a209190611f74565b905080611a62576040517f08c379a0000000000000000000000000000000000000000000000000000000008152600401611a59906124af565b60405180910390fd5b5050505050611a6f611cae565b50565b600260009054906101000a900473ffffffffffffffffffffffffffffffffffffffff1681565b60095481565b611aa6611bb4565b600073ffffffffffffffffffffffffffffffffffffffff168173ffffffffffffffffffffffffffffffffffffffff161415611b16576040517f08c379a0000000000000000000000000000000000000000000000000000000008152600401611b0d9061248f565b60405180910390fd5b611b1f81611cb7565b50565b600f6020528060005260406000206000915090505481565b611b42611bb4565b600d60009054906101000a900460ff1615600d60006101000a81548160ff0219169083151502179055507fb08f70f6219c5c2ed5e08e7cf45080e4840fde880b27a0841faf45475cd02d2e600d60009054906101000a900460ff16604051611baa9190612434565b60405180910390a1565b611bbc611d7b565b73ffffffffffffffffffffffffffffffffffffffff16611bda61142d565b73ffffffffffffffffffffffffffffffffffffffff1614611c30576040517f08c379a0000000000000000000000000000000000000000000000000000000008152600401611c27906125cf565b60405180910390fd5b565b60026001541415611c78576040517f08c379a0000000000000000000000000000000000000000000000000000000008152600401611c6f906126cf565b60405180910390fd5b6002600181905550565b60008183611c909190612863565b905092915050565b60008183611ca69190612832565b905092915050565b60018081905550565b60008060009054906101000a900473ffffffffffffffffffffffffffffffffffffffff169050816000806101000a81548173ffffffffffffffffffffffffffffffffffffffff021916908373ffffffffffffffffffffffffffffffffffffffff1602179055508173ffffffffffffffffffffffffffffffffffffffff168173ffffffffffffffffffffffffffffffffffffffff167f8be0079c531659141344cd1fd0a4f28419497f9722a3daafe3b4186f6b6457e060405160405180910390a35050565b600033905090565b600081359050611d9281612e35565b92915050565b60008083601f840112611dae57611dad6129e0565b5b8235905067ffffffffffffffff811115611dcb57611dca6129db565b5b602083019150836020820283011115611de757611de66129e5565b5b9250929050565b600081519050611dfd81612e4c565b92915050565b600081359050611e1281612e63565b92915050565b600081519050611e2781612e63565b92915050565b600060208284031215611e4357611e426129ef565b5b6000611e5184828501611d83565b91505092915050565b60008060408385031215611e7157611e706129ef565b5b6000611e7f85828601611d83565b9250506020611e9085828601611e03565b9150509250929050565b60008060008060008060c08789031215611eb757611eb66129ef565b5b6000611ec589828a01611d83565b9650506020611ed689828a01611e03565b9550506040611ee789828a01611e03565b9450506060611ef889828a01611e03565b9350506080611f0989828a01611e03565b92505060a0611f1a89828a01611e03565b9150509295509295509295565b60008060208385031215611f3e57611f3d6129ef565b5b600083013567ffffffffffffffff811115611f5c57611f5b6129ea565b5b611f6885828601611d98565b92509250509250929050565b600060208284031215611f8a57611f896129ef565b5b6000611f9884828501611dee565b91505092915050565b600060208284031215611fb757611fb66129ef565b5b6000611fc584828501611e03565b91505092915050565b600060208284031215611fe457611fe36129ef565b5b6000611ff284828501611e18565b91505092915050565b600080600080600060a08688031215612017576120166129ef565b5b600061202588828901611e03565b955050602061203688828901611e03565b945050604061204788828901611e03565b935050606061205888828901611e03565b925050608061206988828901611e03565b9150509295509295909350565b61207f816128bd565b82525050565b61208e816128cf565b82525050565b60006120a16019836127cb565b91506120ac826129f4565b602082019050919050565b60006120c4600b836127cb565b91506120cf82612a1d565b602082019050919050565b60006120e76026836127cb565b91506120f282612a46565b604082019050919050565b600061210a600f836127cb565b915061211582612a95565b602082019050919050565b600061212d6020836127cb565b915061213882612abe565b602082019050919050565b60006121506014836127cb565b915061215b82612ae7565b602082019050919050565b60006121736018836127cb565b915061217e82612b10565b602082019050919050565b6000612196603d836127cb565b91506121a182612b39565b604082019050919050565b60006121b96033836127cb565b91506121c482612b88565b604082019050919050565b60006121dc600e836127cb565b91506121e782612bd7565b602082019050919050565b60006121ff6017836127cb565b915061220a82612c00565b602082019050919050565b60006122226027836127cb565b915061222d82612c29565b604082019050919050565b60006122456020836127cb565b915061225082612c78565b602082019050919050565b60006122686018836127cb565b915061227382612ca1565b602082019050919050565b600061228b6017836127cb565b915061229682612cca565b602082019050919050565b60006122ae6012836127cb565b91506122b982612cf3565b602082019050919050565b60006122d1601e836127cb565b91506122dc82612d1c565b602082019050919050565b60006122f46027836127cb565b91506122ff82612d45565b604082019050919050565b6000612317602a836127cb565b915061232282612d94565b604082019050919050565b600061233a6017836127cb565b915061234582612de3565b602082019050919050565b600061235d601f836127cb565b915061236882612e0c565b602082019050919050565b61237c816128fb565b82525050565b60006020820190506123976000830184612076565b92915050565b60006060820190506123b26000830186612076565b6123bf6020830185612076565b6123cc6040830184612373565b949350505050565b60006040820190506123e96000830185612076565b6123f66020830184612373565b9392505050565b60006060820190506124126000830186612076565b61241f6020830185612373565b61242c6040830184612373565b949350505050565b60006020820190506124496000830184612085565b92915050565b6000602082019050818103600083015261246881612094565b9050919050565b60006020820190508181036000830152612488816120b7565b9050919050565b600060208201905081810360008301526124a8816120da565b9050919050565b600060208201905081810360008301526124c8816120fd565b9050919050565b600060208201905081810360008301526124e881612120565b9050919050565b6000602082019050818103600083015261250881612143565b9050919050565b6000602082019050818103600083015261252881612166565b9050919050565b6000602082019050818103600083015261254881612189565b9050919050565b60006020820190508181036000830152612568816121ac565b9050919050565b60006020820190508181036000830152612588816121cf565b9050919050565b600060208201905081810360008301526125a8816121f2565b9050919050565b600060208201905081810360008301526125c881612215565b9050919050565b600060208201905081810360008301526125e881612238565b9050919050565b600060208201905081810360008301526126088161225b565b9050919050565b600060208201905081810360008301526126288161227e565b9050919050565b60006020820190508181036000830152612648816122a1565b9050919050565b60006020820190508181036000830152612668816122c4565b9050919050565b60006020820190508181036000830152612688816122e7565b9050919050565b600060208201905081810360008301526126a88161230a565b9050919050565b600060208201905081810360008301526126c88161232d565b9050919050565b600060208201905081810360008301526126e881612350565b9050919050565b60006020820190506127046000830184612373565b92915050565b600060408201905061271f6000830185612373565b61272c6020830184612373565b9392505050565b60006080820190506127486000830187612373565b6127556020830186612373565b6127626040830185612373565b61276f6060830184612373565b95945050505050565b600060a08201905061278d6000830188612373565b61279a6020830187612373565b6127a76040830186612373565b6127b46060830185612373565b6127c16080830184612373565b9695505050505050565b600082825260208201905092915050565b60006127e7826128fb565b91506127f2836128fb565b9250827fffffffffffffffffffffffffffffffffffffffffffffffffffffffffffffffff038211156128275761282661294e565b5b828201905092915050565b600061283d826128fb565b9150612848836128fb565b9250826128585761285761297d565b5b828204905092915050565b600061286e826128fb565b9150612879836128fb565b9250817fffffffffffffffffffffffffffffffffffffffffffffffffffffffffffffffff04831182151516156128b2576128b161294e565b5b828202905092915050565b60006128c8826128db565b9050919050565b60008115159050919050565b600073ffffffffffffffffffffffffffffffffffffffff82169050919050565b6000819050919050565b6000612910826128fb565b91507fffffffffffffffffffffffffffffffffffffffffffffffffffffffffffffffff8214156129435761294261294e565b5b600182019050919050565b7f4e487b7100000000000000000000000000000000000000000000000000000000600052601160045260246000fd5b7f4e487b7100000000000000000000000000000000000000000000000000000000600052601260045260246000fd5b7f4e487b7100000000000000000000000000000000000000000000000000000000600052603260045260246000fd5b600080fd5b600080fd5b600080fd5b600080fd5b600080fd5b7f506f6f6c20686173206265656e20696e697469616c697a656400000000000000600082015250565b7f506175736564204561726e000000000000000000000000000000000000000000600082015250565b7f4f776e61626c653a206e6577206f776e657220697320746865207a65726f206160008201527f6464726573730000000000000000000000000000000000000000000000000000602082015250565b7f5472616e73666572206661696c65640000000000000000000000000000000000600082015250565b7f416d6f756e74206d7573742062652067726561746572207468616e207a65726f600082015250565b7f496e73756666696369656e742062616c616e6365000000000000000000000000600082015250565b7f596f7520617265206e6f7420696e2077686974656c6973740000000000000000600082015250565b7f596f75206e65656420746f207761697420666f7220746865206465706f73697460008201527f20746f2066696e697368206265666f7265207769746864726177696e67000000602082015250565b7f596f75206861766520616c72656164792077697468647261776e20796f75722060008201527f6361706974616c20616e642070726f6669747300000000000000000000000000602082015250565b7f417070726f7665206661696c6564000000000000000000000000000000000000600082015250565b7f506f6f6c206973206e6f7420696e697469616c697a6564000000000000000000600082015250565b7f416d6f756e74206973206c657373207468616e20746865206d696e696d756d2060008201527f616c6c6f77656400000000000000000000000000000000000000000000000000602082015250565b7f4f776e61626c653a2063616c6c6572206973206e6f7420746865206f776e6572600082015250565b7f506f6f6c20697473206e6f7420696e697469616c697a65640000000000000000600082015250565b7f436f6e7472616374206c696d6974206578636565646564000000000000000000600082015250565b7f496e76616c6964206465706f7369742049440000000000000000000000000000600082015250565b7f55736572206861732072656163686564206465706f736974206c696d69740000600082015250565b7f596f75206861766520616c72656164792077697468647261776e20796f75722060008201527f7265776172647300000000000000000000000000000000000000000000000000602082015250565b7f416d6f756e742069732067726561746572207468616e20746865206d6178696d60008201527f756d20616c6c6f77656400000000000000000000000000000000000000000000602082015250565b7f746865206e756d626572207468616e2067726561742030000000000000000000600082015250565b7f5265656e7472616e637947756172643a207265656e7472616e742063616c6c00600082015250565b612e3e816128bd565b8114612e4957600080fd5b50565b612e55816128cf565b8114612e6057600080fd5b50565b612e6c816128fb565b8114612e7757600080fd5b5056fea2646970667358221220e5adb0e07bbe2428fba42d12ed722ef8313a87507d45a4d0795a44658f45be6d64736f6c63430008050033","opcodes":"PUSH1 0x80 PUSH1 0x40 MSTORE PUSH3 0x15180 PUSH1 0xB SSTORE CALLVALUE DUP1 ISZERO PUSH3 0x18 JUMPI PUSH1 0x0 DUP1 REVERT JUMPDEST POP PUSH1 0x40 MLOAD PUSH3 0x3199 CODESIZE SUB DUP1 PUSH3 0x3199 DUP4 CODECOPY DUP2 DUP2 ADD PUSH1 0x40 MSTORE DUP2 ADD SWAP1 PUSH3 0x3E SWAP2 SWAP1 PUSH3 0x204 JUMP JUMPDEST PUSH3 0x5E PUSH3 0x52 PUSH3 0x10A PUSH1 0x20 SHL PUSH1 0x20 SHR JUMP JUMPDEST PUSH3 0x112 PUSH1 0x20 SHL PUSH1 0x20 SHR JUMP JUMPDEST PUSH1 0x1 DUP1 DUP2 SWAP1 SSTORE POP DUP3 PUSH1 0x2 PUSH1 0x0 PUSH2 0x100 EXP DUP2 SLOAD DUP2 PUSH20 0xFFFFFFFFFFFFFFFFFFFFFFFFFFFFFFFFFFFFFFFF MUL NOT AND SWAP1 DUP4 PUSH20 0xFFFFFFFFFFFFFFFFFFFFFFFFFFFFFFFFFFFFFFFF AND MUL OR SWAP1 SSTORE POP DUP2 PUSH1 0x3 PUSH1 0x0 PUSH2 0x100 EXP DUP2 SLOAD DUP2 PUSH20 0xFFFFFFFFFFFFFFFFFFFFFFFFFFFFFFFFFFFFFFFF MUL NOT AND SWAP1 DUP4 PUSH20 0xFFFFFFFFFFFFFFFFFFFFFFFFFFFFFFFFFFFFFFFF AND MUL OR SWAP1 SSTORE POP DUP1 PUSH1 0xD PUSH1 0x2 PUSH2 0x100 EXP DUP2 SLOAD DUP2 PUSH1 0xFF MUL NOT AND SWAP1 DUP4 ISZERO ISZERO MUL OR SWAP1 SSTORE POP POP POP POP PUSH3 0x2D9 JUMP JUMPDEST PUSH1 0x0 CALLER SWAP1 POP SWAP1 JUMP JUMPDEST PUSH1 0x0 DUP1 PUSH1 0x0 SWAP1 SLOAD SWAP1 PUSH2 0x100 EXP SWAP1 DIV PUSH20 0xFFFFFFFFFFFFFFFFFFFFFFFFFFFFFFFFFFFFFFFF AND SWAP1 POP DUP2 PUSH1 0x0 DUP1 PUSH2 0x100 EXP DUP2 SLOAD DUP2 PUSH20 0xFFFFFFFFFFFFFFFFFFFFFFFFFFFFFFFFFFFFFFFF MUL NOT AND SWAP1 DUP4 PUSH20 0xFFFFFFFFFFFFFFFFFFFFFFFFFFFFFFFFFFFFFFFF AND MUL OR SWAP1 SSTORE POP DUP2 PUSH20 0xFFFFFFFFFFFFFFFFFFFFFFFFFFFFFFFFFFFFFFFF AND DUP2 PUSH20 0xFFFFFFFFFFFFFFFFFFFFFFFFFFFFFFFFFFFFFFFF AND PUSH32 0x8BE0079C531659141344CD1FD0A4F28419497F9722A3DAAFE3B4186F6B6457E0 PUSH1 0x40 MLOAD PUSH1 0x40 MLOAD DUP1 SWAP2 SUB SWAP1 LOG3 POP POP JUMP JUMPDEST PUSH1 0x0 DUP2 MLOAD SWAP1 POP PUSH3 0x1E7 DUP2 PUSH3 0x2A5 JUMP JUMPDEST SWAP3 SWAP2 POP POP JUMP JUMPDEST PUSH1 0x0 DUP2 MLOAD SWAP1 POP PUSH3 0x1FE DUP2 PUSH3 0x2BF JUMP JUMPDEST SWAP3 SWAP2 POP POP JUMP JUMPDEST PUSH1 0x0 DUP1 PUSH1 0x0 PUSH1 0x60 DUP5 DUP7 SUB SLT ISZERO PUSH3 0x220 JUMPI PUSH3 0x21F PUSH3 0x2A0 JUMP JUMPDEST JUMPDEST PUSH1 0x0 PUSH3 0x230 DUP7 DUP3 DUP8 ADD PUSH3 0x1D6 JUMP JUMPDEST SWAP4 POP POP PUSH1 0x20 PUSH3 0x243 DUP7 DUP3 DUP8 ADD PUSH3 0x1D6 JUMP JUMPDEST SWAP3 POP POP PUSH1 0x40 PUSH3 0x256 DUP7 DUP3 DUP8 ADD PUSH3 0x1ED JUMP JUMPDEST SWAP2 POP POP SWAP3 POP SWAP3 POP SWAP3 JUMP JUMPDEST PUSH1 0x0 PUSH3 0x26D DUP3 PUSH3 0x280 JUMP JUMPDEST SWAP1 POP SWAP2 SWAP1 POP JUMP JUMPDEST PUSH1 0x0 DUP2 ISZERO ISZERO SWAP1 POP SWAP2 SWAP1 POP JUMP JUMPDEST PUSH1 0x0 PUSH20 0xFFFFFFFFFFFFFFFFFFFFFFFFFFFFFFFFFFFFFFFF DUP3 AND SWAP1 POP SWAP2 SWAP1 POP JUMP JUMPDEST PUSH1 0x0 DUP1 REVERT JUMPDEST PUSH3 0x2B0 DUP2 PUSH3 0x260 JUMP JUMPDEST DUP2 EQ PUSH3 0x2BC JUMPI PUSH1 0x0 DUP1 REVERT JUMPDEST POP JUMP JUMPDEST PUSH3 0x2CA DUP2 PUSH3 0x274 JUMP JUMPDEST DUP2 EQ PUSH3 0x2D6 JUMPI PUSH1 0x0 DUP1 REVERT JUMPDEST POP JUMP JUMPDEST PUSH2 0x2EB0 DUP1 PUSH3 0x2E9 PUSH1 0x0 CODECOPY PUSH1 0x0 RETURN INVALID PUSH1 0x80 PUSH1 0x40 MSTORE CALLVALUE DUP1 ISZERO PUSH2 0x10 JUMPI PUSH1 0x0 DUP1 REVERT JUMPDEST POP PUSH1 0x4 CALLDATASIZE LT PUSH2 0x1F0 JUMPI PUSH1 0x0 CALLDATALOAD PUSH1 0xE0 SHR DUP1 PUSH4 0x714A2B90 GT PUSH2 0x10F JUMPI DUP1 PUSH4 0xBB1711A6 GT PUSH2 0xA2 JUMPI DUP1 PUSH4 0xEC652406 GT PUSH2 0x71 JUMPI DUP1 PUSH4 0xEC652406 EQ PUSH2 0x530 JUMPI DUP1 PUSH4 0xF2FDE38B EQ PUSH2 0x54E JUMPI DUP1 PUSH4 0xF4443D9A EQ PUSH2 0x56A JUMPI DUP1 PUSH4 0xF83D08BA EQ PUSH2 0x59A JUMPI PUSH2 0x1F0 JUMP JUMPDEST DUP1 PUSH4 0xBB1711A6 EQ PUSH2 0x4BE JUMPI DUP1 PUSH4 0xBDCBD5A9 EQ PUSH2 0x4DA JUMPI DUP1 PUSH4 0xC760DAD5 EQ PUSH2 0x4F6 JUMPI DUP1 PUSH4 0xE5C154F1 EQ PUSH2 0x512 JUMPI PUSH2 0x1F0 JUMP JUMPDEST DUP1 PUSH4 0x8DA5CB5B GT PUSH2 0xDE JUMPI DUP1 PUSH4 0x8DA5CB5B EQ PUSH2 0x433 JUMPI DUP1 PUSH4 0x97A64101 EQ PUSH2 0x451 JUMPI DUP1 PUSH4 0xA4D66DAF EQ PUSH2 0x46D JUMPI DUP1 PUSH4 0xB8D25A43 EQ PUSH2 0x48B JUMPI PUSH2 0x1F0 JUMP JUMPDEST DUP1 PUSH4 0x714A2B90 EQ PUSH2 0x3D3 JUMPI DUP1 PUSH4 0x715018A6 EQ PUSH2 0x3EF JUMPI DUP1 PUSH4 0x7586C414 EQ PUSH2 0x3F9 JUMPI DUP1 PUSH4 0x7F649783 EQ PUSH2 0x417 JUMPI PUSH2 0x1F0 JUMP JUMPDEST DUP1 PUSH4 0x47AFD82F GT PUSH2 0x187 JUMPI DUP1 PUSH4 0x60A81002 GT PUSH2 0x156 JUMPI DUP1 PUSH4 0x60A81002 EQ PUSH2 0x35F JUMPI DUP1 PUSH4 0x6B68F810 EQ PUSH2 0x37D JUMPI DUP1 PUSH4 0x6FF8F8C2 EQ PUSH2 0x399 JUMPI DUP1 PUSH4 0x6FFE7BBE EQ PUSH2 0x3B5 JUMPI PUSH2 0x1F0 JUMP JUMPDEST DUP1 PUSH4 0x47AFD82F EQ PUSH2 0x2ED JUMPI DUP1 PUSH4 0x4D6CE1E5 EQ PUSH2 0x309 JUMPI DUP1 PUSH4 0x548DB174 EQ PUSH2 0x325 JUMPI DUP1 PUSH4 0x54F3A6E0 EQ PUSH2 0x341 JUMPI PUSH2 0x1F0 JUMP JUMPDEST DUP1 PUSH4 0x2A8A9938 GT PUSH2 0x1C3 JUMPI DUP1 PUSH4 0x2A8A9938 EQ PUSH2 0x269 JUMPI DUP1 PUSH4 0x3366BFF9 EQ PUSH2 0x285 JUMPI DUP1 PUSH4 0x372C12B1 EQ PUSH2 0x2A1 JUMPI DUP1 PUSH4 0x478B0F87 EQ PUSH2 0x2D1 JUMPI PUSH2 0x1F0 JUMP JUMPDEST DUP1 PUSH4 0x9A9D76C EQ PUSH2 0x1F5 JUMPI DUP1 PUSH4 0xA1E6314 EQ PUSH2 0x213 JUMPI DUP1 PUSH4 0x13CAD1D1 EQ PUSH2 0x231 JUMPI DUP1 PUSH4 0x16451DC9 EQ PUSH2 0x24D JUMPI JUMPDEST PUSH1 0x0 DUP1 REVERT JUMPDEST PUSH2 0x1FD PUSH2 0x5A4 JUMP JUMPDEST PUSH1 0x40 MLOAD PUSH2 0x20A SWAP2 SWAP1 PUSH2 0x2434 JUMP JUMPDEST PUSH1 0x40 MLOAD DUP1 SWAP2 SUB SWAP1 RETURN JUMPDEST PUSH2 0x21B PUSH2 0x5BB JUMP JUMPDEST PUSH1 0x40 MLOAD PUSH2 0x228 SWAP2 SWAP1 PUSH2 0x2382 JUMP JUMPDEST PUSH1 0x40 MLOAD DUP1 SWAP2 SUB SWAP1 RETURN JUMPDEST PUSH2 0x24B PUSH1 0x4 DUP1 CALLDATASIZE SUB DUP2 ADD SWAP1 PUSH2 0x246 SWAP2 SWAP1 PUSH2 0x1FA1 JUMP JUMPDEST PUSH2 0x5E1 JUMP JUMPDEST STOP JUMPDEST PUSH2 0x267 PUSH1 0x4 DUP1 CALLDATASIZE SUB DUP2 ADD SWAP1 PUSH2 0x262 SWAP2 SWAP1 PUSH2 0x1FA1 JUMP JUMPDEST PUSH2 0x5F3 JUMP JUMPDEST STOP JUMPDEST PUSH2 0x283 PUSH1 0x4 DUP1 CALLDATASIZE SUB DUP2 ADD SWAP1 PUSH2 0x27E SWAP2 SWAP1 PUSH2 0x1E2D JUMP JUMPDEST PUSH2 0x612 JUMP JUMPDEST STOP JUMPDEST PUSH2 0x29F PUSH1 0x4 DUP1 CALLDATASIZE SUB DUP2 ADD SWAP1 PUSH2 0x29A SWAP2 SWAP1 PUSH2 0x1FFB JUMP JUMPDEST PUSH2 0x675 JUMP JUMPDEST STOP JUMPDEST PUSH2 0x2BB PUSH1 0x4 DUP1 CALLDATASIZE SUB DUP2 ADD SWAP1 PUSH2 0x2B6 SWAP2 SWAP1 PUSH2 0x1E2D JUMP JUMPDEST PUSH2 0x742 JUMP JUMPDEST PUSH1 0x40 MLOAD PUSH2 0x2C8 SWAP2 SWAP1 PUSH2 0x2434 JUMP JUMPDEST PUSH1 0x40 MLOAD DUP1 SWAP2 SUB SWAP1 RETURN JUMPDEST PUSH2 0x2EB PUSH1 0x4 DUP1 CALLDATASIZE SUB DUP2 ADD SWAP1 PUSH2 0x2E6 SWAP2 SWAP1 PUSH2 0x1E2D JUMP JUMPDEST PUSH2 0x762 JUMP JUMPDEST STOP JUMPDEST PUSH2 0x307 PUSH1 0x4 DUP1 CALLDATASIZE SUB DUP2 ADD SWAP1 PUSH2 0x302 SWAP2 SWAP1 PUSH2 0x1E2D JUMP JUMPDEST PUSH2 0x8C7 JUMP JUMPDEST STOP JUMPDEST PUSH2 0x323 PUSH1 0x4 DUP1 CALLDATASIZE SUB DUP2 ADD SWAP1 PUSH2 0x31E SWAP2 SWAP1 PUSH2 0x1FA1 JUMP JUMPDEST PUSH2 0x913 JUMP JUMPDEST STOP JUMPDEST PUSH2 0x33F PUSH1 0x4 DUP1 CALLDATASIZE SUB DUP2 ADD SWAP1 PUSH2 0x33A SWAP2 SWAP1 PUSH2 0x1F27 JUMP JUMPDEST PUSH2 0x10EF JUMP JUMPDEST STOP JUMPDEST PUSH2 0x349 PUSH2 0x11A2 JUMP JUMPDEST PUSH1 0x40 MLOAD PUSH2 0x356 SWAP2 SWAP1 PUSH2 0x26EF JUMP JUMPDEST PUSH1 0x40 MLOAD DUP1 SWAP2 SUB SWAP1 RETURN JUMPDEST PUSH2 0x367 PUSH2 0x11A8 JUMP JUMPDEST PUSH1 0x40 MLOAD PUSH2 0x374 SWAP2 SWAP1 PUSH2 0x26EF JUMP JUMPDEST PUSH1 0x40 MLOAD DUP1 SWAP2 SUB SWAP1 RETURN JUMPDEST PUSH2 0x397 PUSH1 0x4 DUP1 CALLDATASIZE SUB DUP2 ADD SWAP1 PUSH2 0x392 SWAP2 SWAP1 PUSH2 0x1FA1 JUMP JUMPDEST PUSH2 0x11AE JUMP JUMPDEST STOP JUMPDEST PUSH2 0x3B3 PUSH1 0x4 DUP1 CALLDATASIZE SUB DUP2 ADD SWAP1 PUSH2 0x3AE SWAP2 SWAP1 PUSH2 0x1FA1 JUMP JUMPDEST PUSH2 0x11C0 JUMP JUMPDEST STOP JUMPDEST PUSH2 0x3BD PUSH2 0x11D2 JUMP JUMPDEST PUSH1 0x40 MLOAD PUSH2 0x3CA SWAP2 SWAP1 PUSH2 0x26EF JUMP JUMPDEST PUSH1 0x40 MLOAD DUP1 SWAP2 SUB SWAP1 RETURN JUMPDEST PUSH2 0x3ED PUSH1 0x4 DUP1 CALLDATASIZE SUB DUP2 ADD SWAP1 PUSH2 0x3E8 SWAP2 SWAP1 PUSH2 0x1E5A JUMP JUMPDEST PUSH2 0x11E9 JUMP JUMPDEST STOP JUMPDEST PUSH2 0x3F7 PUSH2 0x1360 JUMP JUMPDEST STOP JUMPDEST PUSH2 0x401 PUSH2 0x1374 JUMP JUMPDEST PUSH1 0x40 MLOAD PUSH2 0x40E SWAP2 SWAP1 PUSH2 0x26EF JUMP JUMPDEST PUSH1 0x40 MLOAD DUP1 SWAP2 SUB SWAP1 RETURN JUMPDEST PUSH2 0x431 PUSH1 0x4 DUP1 CALLDATASIZE SUB DUP2 ADD SWAP1 PUSH2 0x42C SWAP2 SWAP1 PUSH2 0x1F27 JUMP JUMPDEST PUSH2 0x137A JUMP JUMPDEST STOP JUMPDEST PUSH2 0x43B PUSH2 0x142D JUMP JUMPDEST PUSH1 0x40 MLOAD PUSH2 0x448 SWAP2 SWAP1 PUSH2 0x2382 JUMP JUMPDEST PUSH1 0x40 MLOAD DUP1 SWAP2 SUB SWAP1 RETURN JUMPDEST PUSH2 0x46B PUSH1 0x4 DUP1 CALLDATASIZE SUB DUP2 ADD SWAP1 PUSH2 0x466 SWAP2 SWAP1 PUSH2 0x1FA1 JUMP JUMPDEST PUSH2 0x1456 JUMP JUMPDEST STOP JUMPDEST PUSH2 0x475 PUSH2 0x14AB JUMP JUMPDEST PUSH1 0x40 MLOAD PUSH2 0x482 SWAP2 SWAP1 PUSH2 0x26EF JUMP JUMPDEST PUSH1 0x40 MLOAD DUP1 SWAP2 SUB SWAP1 RETURN JUMPDEST PUSH2 0x4A5 PUSH1 0x4 DUP1 CALLDATASIZE SUB DUP2 ADD SWAP1 PUSH2 0x4A0 SWAP2 SWAP1 PUSH2 0x1E5A JUMP JUMPDEST PUSH2 0x14B1 JUMP JUMPDEST PUSH1 0x40 MLOAD PUSH2 0x4B5 SWAP5 SWAP4 SWAP3 SWAP2 SWAP1 PUSH2 0x2733 JUMP JUMPDEST PUSH1 0x40 MLOAD DUP1 SWAP2 SUB SWAP1 RETURN JUMPDEST PUSH2 0x4D8 PUSH1 0x4 DUP1 CALLDATASIZE SUB DUP2 ADD SWAP1 PUSH2 0x4D3 SWAP2 SWAP1 PUSH2 0x1FA1 JUMP JUMPDEST PUSH2 0x14FE JUMP JUMPDEST STOP JUMPDEST PUSH2 0x4F4 PUSH1 0x4 DUP1 CALLDATASIZE SUB DUP2 ADD SWAP1 PUSH2 0x4EF SWAP2 SWAP1 PUSH2 0x1E9A JUMP JUMPDEST PUSH2 0x1510 JUMP JUMPDEST STOP JUMPDEST PUSH2 0x510 PUSH1 0x4 DUP1 CALLDATASIZE SUB DUP2 ADD SWAP1 PUSH2 0x50B SWAP2 SWAP1 PUSH2 0x1FA1 JUMP JUMPDEST PUSH2 0x15CB JUMP JUMPDEST STOP JUMPDEST PUSH2 0x51A PUSH2 0x1A72 JUMP JUMPDEST PUSH1 0x40 MLOAD PUSH2 0x527 SWAP2 SWAP1 PUSH2 0x2382 JUMP JUMPDEST PUSH1 0x40 MLOAD DUP1 SWAP2 SUB SWAP1 RETURN JUMPDEST PUSH2 0x538 PUSH2 0x1A98 JUMP JUMPDEST PUSH1 0x40 MLOAD PUSH2 0x545 SWAP2 SWAP1 PUSH2 0x26EF JUMP JUMPDEST PUSH1 0x40 MLOAD DUP1 SWAP2 SUB SWAP1 RETURN JUMPDEST PUSH2 0x568 PUSH1 0x4 DUP1 CALLDATASIZE SUB DUP2 ADD SWAP1 PUSH2 0x563 SWAP2 SWAP1 PUSH2 0x1E2D JUMP JUMPDEST PUSH2 0x1A9E JUMP JUMPDEST STOP JUMPDEST PUSH2 0x584 PUSH1 0x4 DUP1 CALLDATASIZE SUB DUP2 ADD SWAP1 PUSH2 0x57F SWAP2 SWAP1 PUSH2 0x1E2D JUMP JUMPDEST PUSH2 0x1B22 JUMP JUMPDEST PUSH1 0x40 MLOAD PUSH2 0x591 SWAP2 SWAP1 PUSH2 0x26EF JUMP JUMPDEST PUSH1 0x40 MLOAD DUP1 SWAP2 SUB SWAP1 RETURN JUMPDEST PUSH2 0x5A2 PUSH2 0x1B3A JUMP JUMPDEST STOP JUMPDEST PUSH1 0x0 PUSH1 0xD PUSH1 0x2 SWAP1 SLOAD SWAP1 PUSH2 0x100 EXP SWAP1 DIV PUSH1 0xFF AND SWAP1 POP SWAP1 JUMP JUMPDEST PUSH1 0x3 PUSH1 0x0 SWAP1 SLOAD SWAP1 PUSH2 0x100 EXP SWAP1 DIV PUSH20 0xFFFFFFFFFFFFFFFFFFFFFFFFFFFFFFFFFFFFFFFF AND DUP2 JUMP JUMPDEST PUSH2 0x5E9 PUSH2 0x1BB4 JUMP JUMPDEST DUP1 PUSH1 0x8 DUP2 SWAP1 SSTORE POP POP JUMP JUMPDEST PUSH2 0x5FB PUSH2 0x1BB4 JUMP JUMPDEST PUSH1 0xB SLOAD DUP2 PUSH2 0x609 SWAP2 SWAP1 PUSH2 0x2863 JUMP JUMPDEST PUSH1 0xC DUP2 SWAP1 SSTORE POP POP JUMP JUMPDEST PUSH2 0x61A PUSH2 0x1BB4 JUMP JUMPDEST PUSH1 0x1 PUSH1 0x10 PUSH1 0x0 DUP4 PUSH20 0xFFFFFFFFFFFFFFFFFFFFFFFFFFFFFFFFFFFFFFFF AND PUSH20 0xFFFFFFFFFFFFFFFFFFFFFFFFFFFFFFFFFFFFFFFF AND DUP2 MSTORE PUSH1 0x20 ADD SWAP1 DUP2 MSTORE PUSH1 0x20 ADD PUSH1 0x0 KECCAK256 PUSH1 0x0 PUSH2 0x100 EXP DUP2 SLOAD DUP2 PUSH1 0xFF MUL NOT AND SWAP1 DUP4 ISZERO ISZERO MUL OR SWAP1 SSTORE POP POP JUMP JUMPDEST PUSH2 0x67D PUSH2 0x1BB4 JUMP JUMPDEST PUSH1 0xD PUSH1 0x1 SWAP1 SLOAD SWAP1 PUSH2 0x100 EXP SWAP1 DIV PUSH1 0xFF AND ISZERO PUSH2 0x6CD JUMPI PUSH1 0x40 MLOAD PUSH32 0x8C379A000000000000000000000000000000000000000000000000000000000 DUP2 MSTORE PUSH1 0x4 ADD PUSH2 0x6C4 SWAP1 PUSH2 0x244F JUMP JUMPDEST PUSH1 0x40 MLOAD DUP1 SWAP2 SUB SWAP1 REVERT JUMPDEST PUSH1 0x0 PUSH1 0x6 DUP2 SWAP1 SSTORE POP PUSH1 0x0 PUSH1 0xD PUSH1 0x0 PUSH2 0x100 EXP DUP2 SLOAD DUP2 PUSH1 0xFF MUL NOT AND SWAP1 DUP4 ISZERO ISZERO MUL OR SWAP1 SSTORE POP DUP5 PUSH1 0x7 DUP2 SWAP1 SSTORE POP DUP4 PUSH1 0x8 DUP2 SWAP1 SSTORE POP DUP3 PUSH1 0x9 DUP2 SWAP1 SSTORE POP DUP2 PUSH1 0xA DUP2 SWAP1 SSTORE POP PUSH1 0xB SLOAD DUP2 PUSH2 0x71A SWAP2 SWAP1 PUSH2 0x2863 JUMP JUMPDEST PUSH1 0xC DUP2 SWAP1 SSTORE POP PUSH1 0x1 PUSH1 0xD PUSH1 0x1 PUSH2 0x100 EXP DUP2 SLOAD DUP2 PUSH1 0xFF MUL NOT AND SWAP1 DUP4 ISZERO ISZERO MUL OR SWAP1 SSTORE POP POP POP POP POP POP JUMP JUMPDEST PUSH1 0x10 PUSH1 0x20 MSTORE DUP1 PUSH1 0x0 MSTORE PUSH1 0x40 PUSH1 0x0 KECCAK256 PUSH1 0x0 SWAP2 POP SLOAD SWAP1 PUSH2 0x100 EXP SWAP1 DIV PUSH1 0xFF AND DUP2 JUMP JUMPDEST PUSH2 0x76A PUSH2 0x1BB4 JUMP JUMPDEST PUSH1 0x0 DUP2 PUSH20 0xFFFFFFFFFFFFFFFFFFFFFFFFFFFFFFFFFFFFFFFF AND PUSH4 0xA9059CBB CALLER DUP5 PUSH20 0xFFFFFFFFFFFFFFFFFFFFFFFFFFFFFFFFFFFFFFFF AND PUSH4 0x70A08231 ADDRESS PUSH1 0x40 MLOAD DUP3 PUSH4 0xFFFFFFFF AND PUSH1 0xE0 SHL DUP2 MSTORE PUSH1 0x4 ADD PUSH2 0x7C2 SWAP2 SWAP1 PUSH2 0x2382 JUMP JUMPDEST PUSH1 0x20 PUSH1 0x40 MLOAD DUP1 DUP4 SUB DUP2 DUP7 DUP1 EXTCODESIZE ISZERO DUP1 ISZERO PUSH2 0x7DA JUMPI PUSH1 0x0 DUP1 REVERT JUMPDEST POP GAS STATICCALL ISZERO DUP1 ISZERO PUSH2 0x7EE JUMPI RETURNDATASIZE PUSH1 0x0 DUP1 RETURNDATACOPY RETURNDATASIZE PUSH1 0x0 REVERT JUMPDEST POP POP POP POP PUSH1 0x40 MLOAD RETURNDATASIZE PUSH1 0x1F NOT PUSH1 0x1F DUP3 ADD AND DUP3 ADD DUP1 PUSH1 0x40 MSTORE POP DUP2 ADD SWAP1 PUSH2 0x812 SWAP2 SWAP1 PUSH2 0x1FCE JUMP JUMPDEST PUSH1 0x40 MLOAD DUP4 PUSH4 0xFFFFFFFF AND PUSH1 0xE0 SHL DUP2 MSTORE PUSH1 0x4 ADD PUSH2 0x82F SWAP3 SWAP2 SWAP1 PUSH2 0x23D4 JUMP JUMPDEST PUSH1 0x20 PUSH1 0x40 MLOAD DUP1 DUP4 SUB DUP2 PUSH1 0x0 DUP8 DUP1 EXTCODESIZE ISZERO DUP1 ISZERO PUSH2 0x849 JUMPI PUSH1 0x0 DUP1 REVERT JUMPDEST POP GAS CALL ISZERO DUP1 ISZERO PUSH2 0x85D JUMPI RETURNDATASIZE PUSH1 0x0 DUP1 RETURNDATACOPY RETURNDATASIZE PUSH1 0x0 REVERT JUMPDEST POP POP POP POP PUSH1 0x40 MLOAD RETURNDATASIZE PUSH1 0x1F NOT PUSH1 0x1F DUP3 ADD AND DUP3 ADD DUP1 PUSH1 0x40 MSTORE POP DUP2 ADD SWAP1 PUSH2 0x881 SWAP2 SWAP1 PUSH2 0x1F74 JUMP JUMPDEST SWAP1 POP DUP1 PUSH2 0x8C3 JUMPI PUSH1 0x40 MLOAD PUSH32 0x8C379A000000000000000000000000000000000000000000000000000000000 DUP2 MSTORE PUSH1 0x4 ADD PUSH2 0x8BA SWAP1 PUSH2 0x24AF JUMP JUMPDEST PUSH1 0x40 MLOAD DUP1 SWAP2 SUB SWAP1 REVERT JUMPDEST POP POP JUMP JUMPDEST PUSH2 0x8CF PUSH2 0x1BB4 JUMP JUMPDEST DUP1 PUSH1 0x2 PUSH1 0x0 PUSH2 0x100 EXP DUP2 SLOAD DUP2 PUSH20 0xFFFFFFFFFFFFFFFFFFFFFFFFFFFFFFFFFFFFFFFF MUL NOT AND SWAP1 DUP4 PUSH20 0xFFFFFFFFFFFFFFFFFFFFFFFFFFFFFFFFFFFFFFFF AND MUL OR SWAP1 SSTORE POP POP JUMP JUMPDEST PUSH2 0x91B PUSH2 0x1C32 JUMP JUMPDEST PUSH1 0xD PUSH1 0x0 SWAP1 SLOAD SWAP1 PUSH2 0x100 EXP SWAP1 DIV PUSH1 0xFF AND ISZERO PUSH2 0x96B JUMPI PUSH1 0x40 MLOAD PUSH32 0x8C379A000000000000000000000000000000000000000000000000000000000 DUP2 MSTORE PUSH1 0x4 ADD PUSH2 0x962 SWAP1 PUSH2 0x246F JUMP JUMPDEST PUSH1 0x40 MLOAD DUP1 SWAP2 SUB SWAP1 REVERT JUMPDEST PUSH1 0xD PUSH1 0x1 SWAP1 SLOAD SWAP1 PUSH2 0x100 EXP SWAP1 DIV PUSH1 0xFF AND PUSH2 0x9BA JUMPI PUSH1 0x40 MLOAD PUSH32 0x8C379A000000000000000000000000000000000000000000000000000000000 DUP2 MSTORE PUSH1 0x4 ADD PUSH2 0x9B1 SWAP1 PUSH2 0x25EF JUMP JUMPDEST PUSH1 0x40 MLOAD DUP1 SWAP2 SUB SWAP1 REVERT JUMPDEST PUSH1 0xD PUSH1 0x2 SWAP1 SLOAD SWAP1 PUSH2 0x100 EXP SWAP1 DIV PUSH1 0xFF AND ISZERO PUSH2 0xA5C JUMPI PUSH1 0x10 PUSH1 0x0 CALLER PUSH20 0xFFFFFFFFFFFFFFFFFFFFFFFFFFFFFFFFFFFFFFFF AND PUSH20 0xFFFFFFFFFFFFFFFFFFFFFFFFFFFFFFFFFFFFFFFF AND DUP2 MSTORE PUSH1 0x20 ADD SWAP1 DUP2 MSTORE PUSH1 0x20 ADD PUSH1 0x0 KECCAK256 PUSH1 0x0 SWAP1 SLOAD SWAP1 PUSH2 0x100 EXP SWAP1 DIV PUSH1 0xFF AND PUSH2 0xA5B JUMPI PUSH1 0x40 MLOAD PUSH32 0x8C379A000000000000000000000000000000000000000000000000000000000 DUP2 MSTORE PUSH1 0x4 ADD PUSH2 0xA52 SWAP1 PUSH2 0x250F JUMP JUMPDEST PUSH1 0x40 MLOAD DUP1 SWAP2 SUB SWAP1 REVERT JUMPDEST JUMPDEST PUSH1 0x0 PUSH1 0x3 PUSH1 0x0 SWAP1 SLOAD SWAP1 PUSH2 0x100 EXP SWAP1 DIV PUSH20 0xFFFFFFFFFFFFFFFFFFFFFFFFFFFFFFFFFFFFFFFF AND SWAP1 POP PUSH1 0x0 DUP2 SWAP1 POP PUSH1 0x0 DUP2 PUSH20 0xFFFFFFFFFFFFFFFFFFFFFFFFFFFFFFFFFFFFFFFF AND PUSH4 0x95EA7B3 ADDRESS DUP7 PUSH1 0x40 MLOAD DUP4 PUSH4 0xFFFFFFFF AND PUSH1 0xE0 SHL DUP2 MSTORE PUSH1 0x4 ADD PUSH2 0xAC5 SWAP3 SWAP2 SWAP1 PUSH2 0x23D4 JUMP JUMPDEST PUSH1 0x20 PUSH1 0x40 MLOAD DUP1 DUP4 SUB DUP2 PUSH1 0x0 DUP8 DUP1 EXTCODESIZE ISZERO DUP1 ISZERO PUSH2 0xADF JUMPI PUSH1 0x0 DUP1 REVERT JUMPDEST POP GAS CALL ISZERO DUP1 ISZERO PUSH2 0xAF3 JUMPI RETURNDATASIZE PUSH1 0x0 DUP1 RETURNDATACOPY RETURNDATASIZE PUSH1 0x0 REVERT JUMPDEST POP POP POP POP PUSH1 0x40 MLOAD RETURNDATASIZE PUSH1 0x1F NOT PUSH1 0x1F DUP3 ADD AND DUP3 ADD DUP1 PUSH1 0x40 MSTORE POP DUP2 ADD SWAP1 PUSH2 0xB17 SWAP2 SWAP1 PUSH2 0x1F74 JUMP JUMPDEST SWAP1 POP DUP1 PUSH2 0xB59 JUMPI PUSH1 0x40 MLOAD PUSH32 0x8C379A000000000000000000000000000000000000000000000000000000000 DUP2 MSTORE PUSH1 0x4 ADD PUSH2 0xB50 SWAP1 PUSH2 0x256F JUMP JUMPDEST PUSH1 0x40 MLOAD DUP1 SWAP2 SUB SWAP1 REVERT JUMPDEST PUSH1 0x7 SLOAD PUSH1 0xF PUSH1 0x0 CALLER PUSH20 0xFFFFFFFFFFFFFFFFFFFFFFFFFFFFFFFFFFFFFFFF AND PUSH20 0xFFFFFFFFFFFFFFFFFFFFFFFFFFFFFFFFFFFFFFFF AND DUP2 MSTORE PUSH1 0x20 ADD SWAP1 DUP2 MSTORE PUSH1 0x20 ADD PUSH1 0x0 KECCAK256 SLOAD LT PUSH2 0xBDC JUMPI PUSH1 0x40 MLOAD PUSH32 0x8C379A000000000000000000000000000000000000000000000000000000000 DUP2 MSTORE PUSH1 0x4 ADD PUSH2 0xBD3 SWAP1 PUSH2 0x264F JUMP JUMPDEST PUSH1 0x40 MLOAD DUP1 SWAP2 SUB SWAP1 REVERT JUMPDEST PUSH1 0x0 DUP3 PUSH20 0xFFFFFFFFFFFFFFFFFFFFFFFFFFFFFFFFFFFFFFFF AND PUSH4 0x70A08231 CALLER PUSH1 0x40 MLOAD DUP3 PUSH4 0xFFFFFFFF AND PUSH1 0xE0 SHL DUP2 MSTORE PUSH1 0x4 ADD PUSH2 0xC17 SWAP2 SWAP1 PUSH2 0x2382 JUMP JUMPDEST PUSH1 0x20 PUSH1 0x40 MLOAD DUP1 DUP4 SUB DUP2 DUP7 DUP1 EXTCODESIZE ISZERO DUP1 ISZERO PUSH2 0xC2F JUMPI PUSH1 0x0 DUP1 REVERT JUMPDEST POP GAS STATICCALL ISZERO DUP1 ISZERO PUSH2 0xC43 JUMPI RETURNDATASIZE PUSH1 0x0 DUP1 RETURNDATACOPY RETURNDATASIZE PUSH1 0x0 REVERT JUMPDEST POP POP POP POP PUSH1 0x40 MLOAD RETURNDATASIZE PUSH1 0x1F NOT PUSH1 0x1F DUP3 ADD AND DUP3 ADD DUP1 PUSH1 0x40 MSTORE POP DUP2 ADD SWAP1 PUSH2 0xC67 SWAP2 SWAP1 PUSH2 0x1FCE JUMP JUMPDEST SWAP1 POP DUP5 DUP2 LT ISZERO PUSH2 0xCAC JUMPI PUSH1 0x40 MLOAD PUSH32 0x8C379A000000000000000000000000000000000000000000000000000000000 DUP2 MSTORE PUSH1 0x4 ADD PUSH2 0xCA3 SWAP1 PUSH2 0x24EF JUMP JUMPDEST PUSH1 0x40 MLOAD DUP1 SWAP2 SUB SWAP1 REVERT JUMPDEST PUSH1 0x0 DUP6 GT PUSH2 0xCEF JUMPI PUSH1 0x40 MLOAD PUSH32 0x8C379A000000000000000000000000000000000000000000000000000000000 DUP2 MSTORE PUSH1 0x4 ADD PUSH2 0xCE6 SWAP1 PUSH2 0x24CF JUMP JUMPDEST PUSH1 0x40 MLOAD DUP1 SWAP2 SUB SWAP1 REVERT JUMPDEST PUSH1 0x9 SLOAD DUP6 LT ISZERO PUSH2 0xD34 JUMPI PUSH1 0x40 MLOAD PUSH32 0x8C379A000000000000000000000000000000000000000000000000000000000 DUP2 MSTORE PUSH1 0x4 ADD PUSH2 0xD2B SWAP1 PUSH2 0x25AF JUMP JUMPDEST PUSH1 0x40 MLOAD DUP1 SWAP2 SUB SWAP1 REVERT JUMPDEST PUSH1 0x8 SLOAD DUP6 GT ISZERO PUSH2 0xD79 JUMPI PUSH1 0x40 MLOAD PUSH32 0x8C379A000000000000000000000000000000000000000000000000000000000 DUP2 MSTORE PUSH1 0x4 ADD PUSH2 0xD70 SWAP1 PUSH2 0x268F JUMP JUMPDEST PUSH1 0x40 MLOAD DUP1 SWAP2 SUB SWAP1 REVERT JUMPDEST PUSH1 0x7 SLOAD DUP6 PUSH1 0x6 SLOAD PUSH2 0xD8A SWAP2 SWAP1 PUSH2 0x27DC JUMP JUMPDEST GT ISZERO PUSH2 0xDCB JUMPI PUSH1 0x40 MLOAD PUSH32 0x8C379A000000000000000000000000000000000000000000000000000000000 DUP2 MSTORE PUSH1 0x4 ADD PUSH2 0xDC2 SWAP1 PUSH2 0x260F JUMP JUMPDEST PUSH1 0x40 MLOAD DUP1 SWAP2 SUB SWAP1 REVERT JUMPDEST PUSH1 0x0 PUSH1 0x40 MLOAD DUP1 PUSH1 0x80 ADD PUSH1 0x40 MSTORE DUP1 PUSH1 0x0 DUP2 MSTORE PUSH1 0x20 ADD PUSH1 0x0 DUP2 MSTORE PUSH1 0x20 ADD PUSH1 0x0 DUP2 MSTORE PUSH1 0x20 ADD PUSH1 0x0 DUP2 MSTORE POP SWAP1 POP DUP6 DUP2 PUSH1 0x0 ADD DUP2 DUP2 MSTORE POP POP TIMESTAMP DUP2 PUSH1 0x20 ADD DUP2 DUP2 MSTORE POP POP PUSH1 0xC SLOAD TIMESTAMP PUSH2 0xE16 SWAP2 SWAP1 PUSH2 0x27DC JUMP JUMPDEST DUP2 PUSH1 0x40 ADD DUP2 DUP2 MSTORE POP POP PUSH2 0xE47 PUSH1 0x64 PUSH2 0xE39 PUSH1 0xA SLOAD DUP10 PUSH2 0x1C82 SWAP1 SWAP2 SWAP1 PUSH4 0xFFFFFFFF AND JUMP JUMPDEST PUSH2 0x1C98 SWAP1 SWAP2 SWAP1 PUSH4 0xFFFFFFFF AND JUMP JUMPDEST DUP2 PUSH1 0x60 ADD DUP2 DUP2 MSTORE POP POP PUSH1 0xE PUSH1 0x0 CALLER PUSH20 0xFFFFFFFFFFFFFFFFFFFFFFFFFFFFFFFFFFFFFFFF AND PUSH20 0xFFFFFFFFFFFFFFFFFFFFFFFFFFFFFFFFFFFFFFFF AND DUP2 MSTORE PUSH1 0x20 ADD SWAP1 DUP2 MSTORE PUSH1 0x20 ADD PUSH1 0x0 KECCAK256 DUP2 SWAP1 DUP1 PUSH1 0x1 DUP2 SLOAD ADD DUP1 DUP3 SSTORE DUP1 SWAP2 POP POP PUSH1 0x1 SWAP1 SUB SWAP1 PUSH1 0x0 MSTORE PUSH1 0x20 PUSH1 0x0 KECCAK256 SWAP1 PUSH1 0x4 MUL ADD PUSH1 0x0 SWAP1 SWAP2 SWAP1 SWAP2 SWAP1 SWAP2 POP PUSH1 0x0 DUP3 ADD MLOAD DUP2 PUSH1 0x0 ADD SSTORE PUSH1 0x20 DUP3 ADD MLOAD DUP2 PUSH1 0x1 ADD SSTORE PUSH1 0x40 DUP3 ADD MLOAD DUP2 PUSH1 0x2 ADD SSTORE PUSH1 0x60 DUP3 ADD MLOAD DUP2 PUSH1 0x3 ADD SSTORE POP POP PUSH1 0xF PUSH1 0x0 CALLER PUSH20 0xFFFFFFFFFFFFFFFFFFFFFFFFFFFFFFFFFFFFFFFF AND PUSH20 0xFFFFFFFFFFFFFFFFFFFFFFFFFFFFFFFFFFFFFFFF AND DUP2 MSTORE PUSH1 0x20 ADD SWAP1 DUP2 MSTORE PUSH1 0x20 ADD PUSH1 0x0 KECCAK256 PUSH1 0x0 DUP2 SLOAD DUP1 SWAP3 SWAP2 SWAP1 PUSH2 0xF33 SWAP1 PUSH2 0x2905 JUMP JUMPDEST SWAP2 SWAP1 POP SSTORE POP DUP6 PUSH1 0x6 PUSH1 0x0 DUP3 DUP3 SLOAD PUSH2 0xF4A SWAP2 SWAP1 PUSH2 0x27DC JUMP JUMPDEST SWAP3 POP POP DUP2 SWAP1 SSTORE POP PUSH1 0x0 PUSH1 0xE PUSH1 0x0 CALLER PUSH20 0xFFFFFFFFFFFFFFFFFFFFFFFFFFFFFFFFFFFFFFFF AND PUSH20 0xFFFFFFFFFFFFFFFFFFFFFFFFFFFFFFFFFFFFFFFF AND DUP2 MSTORE PUSH1 0x20 ADD SWAP1 DUP2 MSTORE PUSH1 0x20 ADD PUSH1 0x0 KECCAK256 DUP1 SLOAD SWAP1 POP SWAP1 POP PUSH1 0x0 DUP6 PUSH20 0xFFFFFFFFFFFFFFFFFFFFFFFFFFFFFFFFFFFFFFFF AND PUSH4 0x23B872DD CALLER PUSH1 0x2 PUSH1 0x0 SWAP1 SLOAD SWAP1 PUSH2 0x100 EXP SWAP1 DIV PUSH20 0xFFFFFFFFFFFFFFFFFFFFFFFFFFFFFFFFFFFFFFFF AND DUP12 PUSH1 0x40 MLOAD DUP5 PUSH4 0xFFFFFFFF AND PUSH1 0xE0 SHL DUP2 MSTORE PUSH1 0x4 ADD PUSH2 0xFF9 SWAP4 SWAP3 SWAP2 SWAP1 PUSH2 0x239D JUMP JUMPDEST PUSH1 0x20 PUSH1 0x40 MLOAD DUP1 DUP4 SUB DUP2 PUSH1 0x0 DUP8 DUP1 EXTCODESIZE ISZERO DUP1 ISZERO PUSH2 0x1013 JUMPI PUSH1 0x0 DUP1 REVERT JUMPDEST POP GAS CALL ISZERO DUP1 ISZERO PUSH2 0x1027 JUMPI RETURNDATASIZE PUSH1 0x0 DUP1 RETURNDATACOPY RETURNDATASIZE PUSH1 0x0 REVERT JUMPDEST POP POP POP POP PUSH1 0x40 MLOAD RETURNDATASIZE PUSH1 0x1F NOT PUSH1 0x1F DUP3 ADD AND DUP3 ADD DUP1 PUSH1 0x40 MSTORE POP DUP2 ADD SWAP1 PUSH2 0x104B SWAP2 SWAP1 PUSH2 0x1F74 JUMP JUMPDEST SWAP1 POP DUP1 PUSH2 0x108D JUMPI PUSH1 0x40 MLOAD PUSH32 0x8C379A000000000000000000000000000000000000000000000000000000000 DUP2 MSTORE PUSH1 0x4 ADD PUSH2 0x1084 SWAP1 PUSH2 0x24AF JUMP JUMPDEST PUSH1 0x40 MLOAD DUP1 SWAP2 SUB SWAP1 REVERT JUMPDEST CALLER PUSH20 0xFFFFFFFFFFFFFFFFFFFFFFFFFFFFFFFFFFFFFFFF AND PUSH32 0xB05F0D1CD0819F155B8A61F60BAF7767C1EE49D04AEAAB701DF236140EB93F9 DUP10 DUP5 PUSH1 0x40 MLOAD PUSH2 0x10D5 SWAP3 SWAP2 SWAP1 PUSH2 0x270A JUMP JUMPDEST PUSH1 0x40 MLOAD DUP1 SWAP2 SUB SWAP1 LOG2 POP POP POP POP POP POP POP PUSH2 0x10EC PUSH2 0x1CAE JUMP JUMPDEST POP JUMP JUMPDEST PUSH2 0x10F7 PUSH2 0x1BB4 JUMP JUMPDEST PUSH1 0x0 JUMPDEST DUP3 DUP3 SWAP1 POP DUP2 LT ISZERO PUSH2 0x119D JUMPI PUSH1 0x0 DUP4 DUP4 DUP4 DUP2 DUP2 LT PUSH2 0x111A JUMPI PUSH2 0x1119 PUSH2 0x29AC JUMP JUMPDEST JUMPDEST SWAP1 POP PUSH1 0x20 MUL ADD PUSH1 0x20 DUP2 ADD SWAP1 PUSH2 0x112F SWAP2 SWAP1 PUSH2 0x1E2D JUMP JUMPDEST SWAP1 POP PUSH1 0x0 PUSH1 0x10 PUSH1 0x0 DUP4 PUSH20 0xFFFFFFFFFFFFFFFFFFFFFFFFFFFFFFFFFFFFFFFF AND PUSH20 0xFFFFFFFFFFFFFFFFFFFFFFFFFFFFFFFFFFFFFFFF AND DUP2 MSTORE PUSH1 0x20 ADD SWAP1 DUP2 MSTORE PUSH1 0x20 ADD PUSH1 0x0 KECCAK256 PUSH1 0x0 PUSH2 0x100 EXP DUP2 SLOAD DUP2 PUSH1 0xFF MUL NOT AND SWAP1 DUP4 ISZERO ISZERO MUL OR SWAP1 SSTORE POP POP DUP1 DUP1 PUSH2 0x1195 SWAP1 PUSH2 0x2905 JUMP JUMPDEST SWAP2 POP POP PUSH2 0x10FA JUMP JUMPDEST POP POP POP JUMP JUMPDEST PUSH1 0xA SLOAD DUP2 JUMP JUMPDEST PUSH1 0x8 SLOAD DUP2 JUMP JUMPDEST PUSH2 0x11B6 PUSH2 0x1BB4 JUMP JUMPDEST DUP1 PUSH1 0x7 DUP2 SWAP1 SSTORE POP POP JUMP JUMPDEST PUSH2 0x11C8 PUSH2 0x1BB4 JUMP JUMPDEST DUP1 PUSH1 0x6 DUP2 SWAP1 SSTORE POP POP JUMP JUMPDEST PUSH1 0x0 PUSH1 0xB SLOAD PUSH1 0xC SLOAD PUSH2 0x11E4 SWAP2 SWAP1 PUSH2 0x2832 JUMP JUMPDEST SWAP1 POP SWAP1 JUMP JUMPDEST PUSH2 0x11F1 PUSH2 0x1BB4 JUMP JUMPDEST PUSH1 0x0 PUSH1 0xE PUSH1 0x0 DUP5 PUSH20 0xFFFFFFFFFFFFFFFFFFFFFFFFFFFFFFFFFFFFFFFF AND PUSH20 0xFFFFFFFFFFFFFFFFFFFFFFFFFFFFFFFFFFFFFFFF AND DUP2 MSTORE PUSH1 0x20 ADD SWAP1 DUP2 MSTORE PUSH1 0x20 ADD PUSH1 0x0 KECCAK256 DUP3 DUP2 SLOAD DUP2 LT PUSH2 0x1244 JUMPI PUSH2 0x1243 PUSH2 0x29AC JUMP JUMPDEST JUMPDEST SWAP1 PUSH1 0x0 MSTORE PUSH1 0x20 PUSH1 0x0 KECCAK256 SWAP1 PUSH1 0x4 MUL ADD PUSH1 0x40 MLOAD DUP1 PUSH1 0x80 ADD PUSH1 0x40 MSTORE SWAP1 DUP2 PUSH1 0x0 DUP3 ADD SLOAD DUP2 MSTORE PUSH1 0x20 ADD PUSH1 0x1 DUP3 ADD SLOAD DUP2 MSTORE PUSH1 0x20 ADD PUSH1 0x2 DUP3 ADD SLOAD DUP2 MSTORE PUSH1 0x20 ADD PUSH1 0x3 DUP3 ADD SLOAD DUP2 MSTORE POP POP SWAP1 POP TIMESTAMP DUP2 PUSH1 0x40 ADD DUP2 DUP2 MSTORE POP POP DUP1 PUSH1 0xE PUSH1 0x0 DUP6 PUSH20 0xFFFFFFFFFFFFFFFFFFFFFFFFFFFFFFFFFFFFFFFF AND PUSH20 0xFFFFFFFFFFFFFFFFFFFFFFFFFFFFFFFFFFFFFFFF AND DUP2 MSTORE PUSH1 0x20 ADD SWAP1 DUP2 MSTORE PUSH1 0x20 ADD PUSH1 0x0 KECCAK256 DUP4 DUP2 SLOAD DUP2 LT PUSH2 0x12E3 JUMPI PUSH2 0x12E2 PUSH2 0x29AC JUMP JUMPDEST JUMPDEST SWAP1 PUSH1 0x0 MSTORE PUSH1 0x20 PUSH1 0x0 KECCAK256 SWAP1 PUSH1 0x4 MUL ADD PUSH1 0x0 DUP3 ADD MLOAD DUP2 PUSH1 0x0 ADD SSTORE PUSH1 0x20 DUP3 ADD MLOAD DUP2 PUSH1 0x1 ADD SSTORE PUSH1 0x40 DUP3 ADD MLOAD DUP2 PUSH1 0x2 ADD SSTORE PUSH1 0x60 DUP3 ADD MLOAD DUP2 PUSH1 0x3 ADD SSTORE SWAP1 POP POP PUSH32 0xB79CC8BC32F75C57B53B9FE33FF31302D8BEFE74BA35A51AFD8EBB6DA0BF6684 DUP4 DUP3 PUSH1 0x40 ADD MLOAD TIMESTAMP PUSH1 0x40 MLOAD PUSH2 0x1353 SWAP4 SWAP3 SWAP2 SWAP1 PUSH2 0x23FD JUMP JUMPDEST PUSH1 0x40 MLOAD DUP1 SWAP2 SUB SWAP1 LOG1 POP POP POP JUMP JUMPDEST PUSH2 0x1368 PUSH2 0x1BB4 JUMP JUMPDEST PUSH2 0x1372 PUSH1 0x0 PUSH2 0x1CB7 JUMP JUMPDEST JUMP JUMPDEST PUSH1 0x6 SLOAD DUP2 JUMP JUMPDEST PUSH2 0x1382 PUSH2 0x1BB4 JUMP JUMPDEST PUSH1 0x0 JUMPDEST DUP3 DUP3 SWAP1 POP DUP2 LT ISZERO PUSH2 0x1428 JUMPI PUSH1 0x0 DUP4 DUP4 DUP4 DUP2 DUP2 LT PUSH2 0x13A5 JUMPI PUSH2 0x13A4 PUSH2 0x29AC JUMP JUMPDEST JUMPDEST SWAP1 POP PUSH1 0x20 MUL ADD PUSH1 0x20 DUP2 ADD SWAP1 PUSH2 0x13BA SWAP2 SWAP1 PUSH2 0x1E2D JUMP JUMPDEST SWAP1 POP PUSH1 0x1 PUSH1 0x10 PUSH1 0x0 DUP4 PUSH20 0xFFFFFFFFFFFFFFFFFFFFFFFFFFFFFFFFFFFFFFFF AND PUSH20 0xFFFFFFFFFFFFFFFFFFFFFFFFFFFFFFFFFFFFFFFF AND DUP2 MSTORE PUSH1 0x20 ADD SWAP1 DUP2 MSTORE PUSH1 0x20 ADD PUSH1 0x0 KECCAK256 PUSH1 0x0 PUSH2 0x100 EXP DUP2 SLOAD DUP2 PUSH1 0xFF MUL NOT AND SWAP1 DUP4 ISZERO ISZERO MUL OR SWAP1 SSTORE POP POP DUP1 DUP1 PUSH2 0x1420 SWAP1 PUSH2 0x2905 JUMP JUMPDEST SWAP2 POP POP PUSH2 0x1385 JUMP JUMPDEST POP POP POP JUMP JUMPDEST PUSH1 0x0 DUP1 PUSH1 0x0 SWAP1 SLOAD SWAP1 PUSH2 0x100 EXP SWAP1 DIV PUSH20 0xFFFFFFFFFFFFFFFFFFFFFFFFFFFFFFFFFFFFFFFF AND SWAP1 POP SWAP1 JUMP JUMPDEST PUSH2 0x145E PUSH2 0x1BB4 JUMP JUMPDEST PUSH1 0x0 DUP2 GT PUSH2 0x14A1 JUMPI PUSH1 0x40 MLOAD PUSH32 0x8C379A000000000000000000000000000000000000000000000000000000000 DUP2 MSTORE PUSH1 0x4 ADD PUSH2 0x1498 SWAP1 PUSH2 0x26AF JUMP JUMPDEST PUSH1 0x40 MLOAD DUP1 SWAP2 SUB SWAP1 REVERT JUMPDEST DUP1 PUSH1 0xA DUP2 SWAP1 SSTORE POP POP JUMP JUMPDEST PUSH1 0x7 SLOAD DUP2 JUMP JUMPDEST PUSH1 0xE PUSH1 0x20 MSTORE DUP2 PUSH1 0x0 MSTORE PUSH1 0x40 PUSH1 0x0 KECCAK256 DUP2 DUP2 SLOAD DUP2 LT PUSH2 0x14CD JUMPI PUSH1 0x0 DUP1 REVERT JUMPDEST SWAP1 PUSH1 0x0 MSTORE PUSH1 0x20 PUSH1 0x0 KECCAK256 SWAP1 PUSH1 0x4 MUL ADD PUSH1 0x0 SWAP2 POP SWAP2 POP POP DUP1 PUSH1 0x0 ADD SLOAD SWAP1 DUP1 PUSH1 0x1 ADD SLOAD SWAP1 DUP1 PUSH1 0x2 ADD SLOAD SWAP1 DUP1 PUSH1 0x3 ADD SLOAD SWAP1 POP DUP5 JUMP JUMPDEST PUSH2 0x1506 PUSH2 0x1BB4 JUMP JUMPDEST DUP1 PUSH1 0x9 DUP2 SWAP1 SSTORE POP POP JUMP JUMPDEST PUSH2 0x1518 PUSH2 0x1BB4 JUMP JUMPDEST PUSH1 0x40 MLOAD DUP1 PUSH1 0x80 ADD PUSH1 0x40 MSTORE DUP1 DUP6 DUP2 MSTORE PUSH1 0x20 ADD DUP5 DUP2 MSTORE PUSH1 0x20 ADD DUP4 DUP2 MSTORE PUSH1 0x20 ADD DUP3 DUP2 MSTORE POP PUSH1 0xE PUSH1 0x0 DUP9 PUSH20 0xFFFFFFFFFFFFFFFFFFFFFFFFFFFFFFFFFFFFFFFF AND PUSH20 0xFFFFFFFFFFFFFFFFFFFFFFFFFFFFFFFFFFFFFFFF AND DUP2 MSTORE PUSH1 0x20 ADD SWAP1 DUP2 MSTORE PUSH1 0x20 ADD PUSH1 0x0 KECCAK256 DUP7 DUP2 SLOAD DUP2 LT PUSH2 0x158A JUMPI PUSH2 0x1589 PUSH2 0x29AC JUMP JUMPDEST JUMPDEST SWAP1 PUSH1 0x0 MSTORE PUSH1 0x20 PUSH1 0x0 KECCAK256 SWAP1 PUSH1 0x4 MUL ADD PUSH1 0x0 DUP3 ADD MLOAD DUP2 PUSH1 0x0 ADD SSTORE PUSH1 0x20 DUP3 ADD MLOAD DUP2 PUSH1 0x1 ADD SSTORE PUSH1 0x40 DUP3 ADD MLOAD DUP2 PUSH1 0x2 ADD SSTORE PUSH1 0x60 DUP3 ADD MLOAD DUP2 PUSH1 0x3 ADD SSTORE SWAP1 POP POP POP POP POP POP POP POP JUMP JUMPDEST PUSH2 0x15D3 PUSH2 0x1C32 JUMP JUMPDEST PUSH1 0xD PUSH1 0x0 SWAP1 SLOAD SWAP1 PUSH2 0x100 EXP SWAP1 DIV PUSH1 0xFF AND ISZERO PUSH2 0x1623 JUMPI PUSH1 0x40 MLOAD PUSH32 0x8C379A000000000000000000000000000000000000000000000000000000000 DUP2 MSTORE PUSH1 0x4 ADD PUSH2 0x161A SWAP1 PUSH2 0x246F JUMP JUMPDEST PUSH1 0x40 MLOAD DUP1 SWAP2 SUB SWAP1 REVERT JUMPDEST PUSH1 0xD PUSH1 0x1 SWAP1 SLOAD SWAP1 PUSH2 0x100 EXP SWAP1 DIV PUSH1 0xFF AND PUSH2 0x1672 JUMPI PUSH1 0x40 MLOAD PUSH32 0x8C379A000000000000000000000000000000000000000000000000000000000 DUP2 MSTORE PUSH1 0x4 ADD PUSH2 0x1669 SWAP1 PUSH2 0x258F JUMP JUMPDEST PUSH1 0x40 MLOAD DUP1 SWAP2 SUB SWAP1 REVERT JUMPDEST PUSH1 0xD PUSH1 0x2 SWAP1 SLOAD SWAP1 PUSH2 0x100 EXP SWAP1 DIV PUSH1 0xFF AND ISZERO PUSH2 0x1714 JUMPI PUSH1 0x10 PUSH1 0x0 CALLER PUSH20 0xFFFFFFFFFFFFFFFFFFFFFFFFFFFFFFFFFFFFFFFF AND PUSH20 0xFFFFFFFFFFFFFFFFFFFFFFFFFFFFFFFFFFFFFFFF AND DUP2 MSTORE PUSH1 0x20 ADD SWAP1 DUP2 MSTORE PUSH1 0x20 ADD PUSH1 0x0 KECCAK256 PUSH1 0x0 SWAP1 SLOAD SWAP1 PUSH2 0x100 EXP SWAP1 DIV PUSH1 0xFF AND PUSH2 0x1713 JUMPI PUSH1 0x40 MLOAD PUSH32 0x8C379A000000000000000000000000000000000000000000000000000000000 DUP2 MSTORE PUSH1 0x4 ADD PUSH2 0x170A SWAP1 PUSH2 0x250F JUMP JUMPDEST PUSH1 0x40 MLOAD DUP1 SWAP2 SUB SWAP1 REVERT JUMPDEST JUMPDEST PUSH1 0x0 PUSH1 0xE PUSH1 0x0 CALLER PUSH20 0xFFFFFFFFFFFFFFFFFFFFFFFFFFFFFFFFFFFFFFFF AND PUSH20 0xFFFFFFFFFFFFFFFFFFFFFFFFFFFFFFFFFFFFFFFF AND DUP2 MSTORE PUSH1 0x20 ADD SWAP1 DUP2 MSTORE PUSH1 0x20 ADD PUSH1 0x0 KECCAK256 SWAP1 POP DUP1 DUP1 SLOAD SWAP1 POP DUP3 LT PUSH2 0x179D JUMPI PUSH1 0x40 MLOAD PUSH32 0x8C379A000000000000000000000000000000000000000000000000000000000 DUP2 MSTORE PUSH1 0x4 ADD PUSH2 0x1794 SWAP1 PUSH2 0x262F JUMP JUMPDEST PUSH1 0x40 MLOAD DUP1 SWAP2 SUB SWAP1 REVERT JUMPDEST PUSH1 0x0 DUP2 DUP4 DUP2 SLOAD DUP2 LT PUSH2 0x17B2 JUMPI PUSH2 0x17B1 PUSH2 0x29AC JUMP JUMPDEST JUMPDEST SWAP1 PUSH1 0x0 MSTORE PUSH1 0x20 PUSH1 0x0 KECCAK256 SWAP1 PUSH1 0x4 MUL ADD SWAP1 POP PUSH1 0x0 DUP2 PUSH1 0x0 ADD SLOAD GT PUSH2 0x1809 JUMPI PUSH1 0x40 MLOAD PUSH32 0x8C379A000000000000000000000000000000000000000000000000000000000 DUP2 MSTORE PUSH1 0x4 ADD PUSH2 0x1800 SWAP1 PUSH2 0x254F JUMP JUMPDEST PUSH1 0x40 MLOAD DUP1 SWAP2 SUB SWAP1 REVERT JUMPDEST PUSH1 0x0 DUP2 PUSH1 0x2 ADD SLOAD SWAP1 POP TIMESTAMP DUP2 GT ISZERO PUSH2 0x1855 JUMPI PUSH1 0x40 MLOAD PUSH32 0x8C379A000000000000000000000000000000000000000000000000000000000 DUP2 MSTORE PUSH1 0x4 ADD PUSH2 0x184C SWAP1 PUSH2 0x252F JUMP JUMPDEST PUSH1 0x40 MLOAD DUP1 SWAP2 SUB SWAP1 REVERT JUMPDEST PUSH1 0x0 DUP3 PUSH1 0x3 ADD SLOAD GT PUSH2 0x189C JUMPI PUSH1 0x40 MLOAD PUSH32 0x8C379A000000000000000000000000000000000000000000000000000000000 DUP2 MSTORE PUSH1 0x4 ADD PUSH2 0x1893 SWAP1 PUSH2 0x266F JUMP JUMPDEST PUSH1 0x40 MLOAD DUP1 SWAP2 SUB SWAP1 REVERT JUMPDEST PUSH1 0x0 DUP3 PUSH1 0x3 ADD SLOAD SWAP1 POP PUSH1 0x0 DUP4 PUSH1 0x0 ADD DUP2 SWAP1 SSTORE POP PUSH1 0x0 DUP4 PUSH1 0x3 ADD DUP2 SWAP1 SSTORE POP CALLER PUSH20 0xFFFFFFFFFFFFFFFFFFFFFFFFFFFFFFFFFFFFFFFF AND PUSH32 0x2D4D49C3E017B8235C908CBAA83A2431A08F3B950712696ECE2088964FD399F0 DUP3 DUP8 PUSH1 0x40 MLOAD PUSH2 0x1901 SWAP3 SWAP2 SWAP1 PUSH2 0x270A JUMP JUMPDEST PUSH1 0x40 MLOAD DUP1 SWAP2 SUB SWAP1 LOG2 CALLER PUSH20 0xFFFFFFFFFFFFFFFFFFFFFFFFFFFFFFFFFFFFFFFF AND PUSH32 0x744927BB11003D6407E55B316D74E04B5C694659593F9E1E9201AB0F097AF9B6 DUP7 DUP6 PUSH1 0x0 ADD SLOAD DUP7 PUSH1 0x1 ADD SLOAD DUP8 PUSH1 0x2 ADD SLOAD DUP9 PUSH1 0x3 ADD SLOAD PUSH1 0x40 MLOAD PUSH2 0x1967 SWAP6 SWAP5 SWAP4 SWAP3 SWAP2 SWAP1 PUSH2 0x2778 JUMP JUMPDEST PUSH1 0x40 MLOAD DUP1 SWAP2 SUB SWAP1 LOG2 PUSH1 0x0 PUSH1 0x3 PUSH1 0x0 SWAP1 SLOAD SWAP1 PUSH2 0x100 EXP SWAP1 DIV PUSH20 0xFFFFFFFFFFFFFFFFFFFFFFFFFFFFFFFFFFFFFFFF AND PUSH20 0xFFFFFFFFFFFFFFFFFFFFFFFFFFFFFFFFFFFFFFFF AND PUSH4 0xA9059CBB CALLER DUP5 PUSH1 0x40 MLOAD DUP4 PUSH4 0xFFFFFFFF AND PUSH1 0xE0 SHL DUP2 MSTORE PUSH1 0x4 ADD PUSH2 0x19CE SWAP3 SWAP2 SWAP1 PUSH2 0x23D4 JUMP JUMPDEST PUSH1 0x20 PUSH1 0x40 MLOAD DUP1 DUP4 SUB DUP2 PUSH1 0x0 DUP8 DUP1 EXTCODESIZE ISZERO DUP1 ISZERO PUSH2 0x19E8 JUMPI PUSH1 0x0 DUP1 REVERT JUMPDEST POP GAS CALL ISZERO DUP1 ISZERO PUSH2 0x19FC JUMPI RETURNDATASIZE PUSH1 0x0 DUP1 RETURNDATACOPY RETURNDATASIZE PUSH1 0x0 REVERT JUMPDEST POP POP POP POP PUSH1 0x40 MLOAD RETURNDATASIZE PUSH1 0x1F NOT PUSH1 0x1F DUP3 ADD AND DUP3 ADD DUP1 PUSH1 0x40 MSTORE POP DUP2 ADD SWAP1 PUSH2 0x1A20 SWAP2 SWAP1 PUSH2 0x1F74 JUMP JUMPDEST SWAP1 POP DUP1 PUSH2 0x1A62 JUMPI PUSH1 0x40 MLOAD PUSH32 0x8C379A000000000000000000000000000000000000000000000000000000000 DUP2 MSTORE PUSH1 0x4 ADD PUSH2 0x1A59 SWAP1 PUSH2 0x24AF JUMP JUMPDEST PUSH1 0x40 MLOAD DUP1 SWAP2 SUB SWAP1 REVERT JUMPDEST POP POP POP POP POP PUSH2 0x1A6F PUSH2 0x1CAE JUMP JUMPDEST POP JUMP JUMPDEST PUSH1 0x2 PUSH1 0x0 SWAP1 SLOAD SWAP1 PUSH2 0x100 EXP SWAP1 DIV PUSH20 0xFFFFFFFFFFFFFFFFFFFFFFFFFFFFFFFFFFFFFFFF AND DUP2 JUMP JUMPDEST PUSH1 0x9 SLOAD DUP2 JUMP JUMPDEST PUSH2 0x1AA6 PUSH2 0x1BB4 JUMP JUMPDEST PUSH1 0x0 PUSH20 0xFFFFFFFFFFFFFFFFFFFFFFFFFFFFFFFFFFFFFFFF AND DUP2 PUSH20 0xFFFFFFFFFFFFFFFFFFFFFFFFFFFFFFFFFFFFFFFF AND EQ ISZERO PUSH2 0x1B16 JUMPI PUSH1 0x40 MLOAD PUSH32 0x8C379A000000000000000000000000000000000000000000000000000000000 DUP2 MSTORE PUSH1 0x4 ADD PUSH2 0x1B0D SWAP1 PUSH2 0x248F JUMP JUMPDEST PUSH1 0x40 MLOAD DUP1 SWAP2 SUB SWAP1 REVERT JUMPDEST PUSH2 0x1B1F DUP2 PUSH2 0x1CB7 JUMP JUMPDEST POP JUMP JUMPDEST PUSH1 0xF PUSH1 0x20 MSTORE DUP1 PUSH1 0x0 MSTORE PUSH1 0x40 PUSH1 0x0 KECCAK256 PUSH1 0x0 SWAP2 POP SWAP1 POP SLOAD DUP2 JUMP JUMPDEST PUSH2 0x1B42 PUSH2 0x1BB4 JUMP JUMPDEST PUSH1 0xD PUSH1 0x0 SWAP1 SLOAD SWAP1 PUSH2 0x100 EXP SWAP1 DIV PUSH1 0xFF AND ISZERO PUSH1 0xD PUSH1 0x0 PUSH2 0x100 EXP DUP2 SLOAD DUP2 PUSH1 0xFF MUL NOT AND SWAP1 DUP4 ISZERO ISZERO MUL OR SWAP1 SSTORE POP PUSH32 0xB08F70F6219C5C2ED5E08E7CF45080E4840FDE880B27A0841FAF45475CD02D2E PUSH1 0xD PUSH1 0x0 SWAP1 SLOAD SWAP1 PUSH2 0x100 EXP SWAP1 DIV PUSH1 0xFF AND PUSH1 0x40 MLOAD PUSH2 0x1BAA SWAP2 SWAP1 PUSH2 0x2434 JUMP JUMPDEST PUSH1 0x40 MLOAD DUP1 SWAP2 SUB SWAP1 LOG1 JUMP JUMPDEST PUSH2 0x1BBC PUSH2 0x1D7B JUMP JUMPDEST PUSH20 0xFFFFFFFFFFFFFFFFFFFFFFFFFFFFFFFFFFFFFFFF AND PUSH2 0x1BDA PUSH2 0x142D JUMP JUMPDEST PUSH20 0xFFFFFFFFFFFFFFFFFFFFFFFFFFFFFFFFFFFFFFFF AND EQ PUSH2 0x1C30 JUMPI PUSH1 0x40 MLOAD PUSH32 0x8C379A000000000000000000000000000000000000000000000000000000000 DUP2 MSTORE PUSH1 0x4 ADD PUSH2 0x1C27 SWAP1 PUSH2 0x25CF JUMP JUMPDEST PUSH1 0x40 MLOAD DUP1 SWAP2 SUB SWAP1 REVERT JUMPDEST JUMP JUMPDEST PUSH1 0x2 PUSH1 0x1 SLOAD EQ ISZERO PUSH2 0x1C78 JUMPI PUSH1 0x40 MLOAD PUSH32 0x8C379A000000000000000000000000000000000000000000000000000000000 DUP2 MSTORE PUSH1 0x4 ADD PUSH2 0x1C6F SWAP1 PUSH2 0x26CF JUMP JUMPDEST PUSH1 0x40 MLOAD DUP1 SWAP2 SUB SWAP1 REVERT JUMPDEST PUSH1 0x2 PUSH1 0x1 DUP2 SWAP1 SSTORE POP JUMP JUMPDEST PUSH1 0x0 DUP2 DUP4 PUSH2 0x1C90 SWAP2 SWAP1 PUSH2 0x2863 JUMP JUMPDEST SWAP1 POP SWAP3 SWAP2 POP POP JUMP JUMPDEST PUSH1 0x0 DUP2 DUP4 PUSH2 0x1CA6 SWAP2 SWAP1 PUSH2 0x2832 JUMP JUMPDEST SWAP1 POP SWAP3 SWAP2 POP POP JUMP JUMPDEST PUSH1 0x1 DUP1 DUP2 SWAP1 SSTORE POP JUMP JUMPDEST PUSH1 0x0 DUP1 PUSH1 0x0 SWAP1 SLOAD SWAP1 PUSH2 0x100 EXP SWAP1 DIV PUSH20 0xFFFFFFFFFFFFFFFFFFFFFFFFFFFFFFFFFFFFFFFF AND SWAP1 POP DUP2 PUSH1 0x0 DUP1 PUSH2 0x100 EXP DUP2 SLOAD DUP2 PUSH20 0xFFFFFFFFFFFFFFFFFFFFFFFFFFFFFFFFFFFFFFFF MUL NOT AND SWAP1 DUP4 PUSH20 0xFFFFFFFFFFFFFFFFFFFFFFFFFFFFFFFFFFFFFFFF AND MUL OR SWAP1 SSTORE POP DUP2 PUSH20 0xFFFFFFFFFFFFFFFFFFFFFFFFFFFFFFFFFFFFFFFF AND DUP2 PUSH20 0xFFFFFFFFFFFFFFFFFFFFFFFFFFFFFFFFFFFFFFFF AND PUSH32 0x8BE0079C531659141344CD1FD0A4F28419497F9722A3DAAFE3B4186F6B6457E0 PUSH1 0x40 MLOAD PUSH1 0x40 MLOAD DUP1 SWAP2 SUB SWAP1 LOG3 POP POP JUMP JUMPDEST PUSH1 0x0 CALLER SWAP1 POP SWAP1 JUMP JUMPDEST PUSH1 0x0 DUP2 CALLDATALOAD SWAP1 POP PUSH2 0x1D92 DUP2 PUSH2 0x2E35 JUMP JUMPDEST SWAP3 SWAP2 POP POP JUMP JUMPDEST PUSH1 0x0 DUP1 DUP4 PUSH1 0x1F DUP5 ADD SLT PUSH2 0x1DAE JUMPI PUSH2 0x1DAD PUSH2 0x29E0 JUMP JUMPDEST JUMPDEST DUP3 CALLDATALOAD SWAP1 POP PUSH8 0xFFFFFFFFFFFFFFFF DUP2 GT ISZERO PUSH2 0x1DCB JUMPI PUSH2 0x1DCA PUSH2 0x29DB JUMP JUMPDEST JUMPDEST PUSH1 0x20 DUP4 ADD SWAP2 POP DUP4 PUSH1 0x20 DUP3 MUL DUP4 ADD GT ISZERO PUSH2 0x1DE7 JUMPI PUSH2 0x1DE6 PUSH2 0x29E5 JUMP JUMPDEST JUMPDEST SWAP3 POP SWAP3 SWAP1 POP JUMP JUMPDEST PUSH1 0x0 DUP2 MLOAD SWAP1 POP PUSH2 0x1DFD DUP2 PUSH2 0x2E4C JUMP JUMPDEST SWAP3 SWAP2 POP POP JUMP JUMPDEST PUSH1 0x0 DUP2 CALLDATALOAD SWAP1 POP PUSH2 0x1E12 DUP2 PUSH2 0x2E63 JUMP JUMPDEST SWAP3 SWAP2 POP POP JUMP JUMPDEST PUSH1 0x0 DUP2 MLOAD SWAP1 POP PUSH2 0x1E27 DUP2 PUSH2 0x2E63 JUMP JUMPDEST SWAP3 SWAP2 POP POP JUMP JUMPDEST PUSH1 0x0 PUSH1 0x20 DUP3 DUP5 SUB SLT ISZERO PUSH2 0x1E43 JUMPI PUSH2 0x1E42 PUSH2 0x29EF JUMP JUMPDEST JUMPDEST PUSH1 0x0 PUSH2 0x1E51 DUP5 DUP3 DUP6 ADD PUSH2 0x1D83 JUMP JUMPDEST SWAP2 POP POP SWAP3 SWAP2 POP POP JUMP JUMPDEST PUSH1 0x0 DUP1 PUSH1 0x40 DUP4 DUP6 SUB SLT ISZERO PUSH2 0x1E71 JUMPI PUSH2 0x1E70 PUSH2 0x29EF JUMP JUMPDEST JUMPDEST PUSH1 0x0 PUSH2 0x1E7F DUP6 DUP3 DUP7 ADD PUSH2 0x1D83 JUMP JUMPDEST SWAP3 POP POP PUSH1 0x20 PUSH2 0x1E90 DUP6 DUP3 DUP7 ADD PUSH2 0x1E03 JUMP JUMPDEST SWAP2 POP POP SWAP3 POP SWAP3 SWAP1 POP JUMP JUMPDEST PUSH1 0x0 DUP1 PUSH1 0x0 DUP1 PUSH1 0x0 DUP1 PUSH1 0xC0 DUP8 DUP10 SUB SLT ISZERO PUSH2 0x1EB7 JUMPI PUSH2 0x1EB6 PUSH2 0x29EF JUMP JUMPDEST JUMPDEST PUSH1 0x0 PUSH2 0x1EC5 DUP10 DUP3 DUP11 ADD PUSH2 0x1D83 JUMP JUMPDEST SWAP7 POP POP PUSH1 0x20 PUSH2 0x1ED6 DUP10 DUP3 DUP11 ADD PUSH2 0x1E03 JUMP JUMPDEST SWAP6 POP POP PUSH1 0x40 PUSH2 0x1EE7 DUP10 DUP3 DUP11 ADD PUSH2 0x1E03 JUMP JUMPDEST SWAP5 POP POP PUSH1 0x60 PUSH2 0x1EF8 DUP10 DUP3 DUP11 ADD PUSH2 0x1E03 JUMP JUMPDEST SWAP4 POP POP PUSH1 0x80 PUSH2 0x1F09 DUP10 DUP3 DUP11 ADD PUSH2 0x1E03 JUMP JUMPDEST SWAP3 POP POP PUSH1 0xA0 PUSH2 0x1F1A DUP10 DUP3 DUP11 ADD PUSH2 0x1E03 JUMP JUMPDEST SWAP2 POP POP SWAP3 SWAP6 POP SWAP3 SWAP6 POP SWAP3 SWAP6 JUMP JUMPDEST PUSH1 0x0 DUP1 PUSH1 0x20 DUP4 DUP6 SUB SLT ISZERO PUSH2 0x1F3E JUMPI PUSH2 0x1F3D PUSH2 0x29EF JUMP JUMPDEST JUMPDEST PUSH1 0x0 DUP4 ADD CALLDATALOAD PUSH8 0xFFFFFFFFFFFFFFFF DUP2 GT ISZERO PUSH2 0x1F5C JUMPI PUSH2 0x1F5B PUSH2 0x29EA JUMP JUMPDEST JUMPDEST PUSH2 0x1F68 DUP6 DUP3 DUP7 ADD PUSH2 0x1D98 JUMP JUMPDEST SWAP3 POP SWAP3 POP POP SWAP3 POP SWAP3 SWAP1 POP JUMP JUMPDEST PUSH1 0x0 PUSH1 0x20 DUP3 DUP5 SUB SLT ISZERO PUSH2 0x1F8A JUMPI PUSH2 0x1F89 PUSH2 0x29EF JUMP JUMPDEST JUMPDEST PUSH1 0x0 PUSH2 0x1F98 DUP5 DUP3 DUP6 ADD PUSH2 0x1DEE JUMP JUMPDEST SWAP2 POP POP SWAP3 SWAP2 POP POP JUMP JUMPDEST PUSH1 0x0 PUSH1 0x20 DUP3 DUP5 SUB SLT ISZERO PUSH2 0x1FB7 JUMPI PUSH2 0x1FB6 PUSH2 0x29EF JUMP JUMPDEST JUMPDEST PUSH1 0x0 PUSH2 0x1FC5 DUP5 DUP3 DUP6 ADD PUSH2 0x1E03 JUMP JUMPDEST SWAP2 POP POP SWAP3 SWAP2 POP POP JUMP JUMPDEST PUSH1 0x0 PUSH1 0x20 DUP3 DUP5 SUB SLT ISZERO PUSH2 0x1FE4 JUMPI PUSH2 0x1FE3 PUSH2 0x29EF JUMP JUMPDEST JUMPDEST PUSH1 0x0 PUSH2 0x1FF2 DUP5 DUP3 DUP6 ADD PUSH2 0x1E18 JUMP JUMPDEST SWAP2 POP POP SWAP3 SWAP2 POP POP JUMP JUMPDEST PUSH1 0x0 DUP1 PUSH1 0x0 DUP1 PUSH1 0x0 PUSH1 0xA0 DUP7 DUP9 SUB SLT ISZERO PUSH2 0x2017 JUMPI PUSH2 0x2016 PUSH2 0x29EF JUMP JUMPDEST JUMPDEST PUSH1 0x0 PUSH2 0x2025 DUP9 DUP3 DUP10 ADD PUSH2 0x1E03 JUMP JUMPDEST SWAP6 POP POP PUSH1 0x20 PUSH2 0x2036 DUP9 DUP3 DUP10 ADD PUSH2 0x1E03 JUMP JUMPDEST SWAP5 POP POP PUSH1 0x40 PUSH2 0x2047 DUP9 DUP3 DUP10 ADD PUSH2 0x1E03 JUMP JUMPDEST SWAP4 POP POP PUSH1 0x60 PUSH2 0x2058 DUP9 DUP3 DUP10 ADD PUSH2 0x1E03 JUMP JUMPDEST SWAP3 POP POP PUSH1 0x80 PUSH2 0x2069 DUP9 DUP3 DUP10 ADD PUSH2 0x1E03 JUMP JUMPDEST SWAP2 POP POP SWAP3 SWAP6 POP SWAP3 SWAP6 SWAP1 SWAP4 POP JUMP JUMPDEST PUSH2 0x207F DUP2 PUSH2 0x28BD JUMP JUMPDEST DUP3 MSTORE POP POP JUMP JUMPDEST PUSH2 0x208E DUP2 PUSH2 0x28CF JUMP JUMPDEST DUP3 MSTORE POP POP JUMP JUMPDEST PUSH1 0x0 PUSH2 0x20A1 PUSH1 0x19 DUP4 PUSH2 0x27CB JUMP JUMPDEST SWAP2 POP PUSH2 0x20AC DUP3 PUSH2 0x29F4 JUMP JUMPDEST PUSH1 0x20 DUP3 ADD SWAP1 POP SWAP2 SWAP1 POP JUMP JUMPDEST PUSH1 0x0 PUSH2 0x20C4 PUSH1 0xB DUP4 PUSH2 0x27CB JUMP JUMPDEST SWAP2 POP PUSH2 0x20CF DUP3 PUSH2 0x2A1D JUMP JUMPDEST PUSH1 0x20 DUP3 ADD SWAP1 POP SWAP2 SWAP1 POP JUMP JUMPDEST PUSH1 0x0 PUSH2 0x20E7 PUSH1 0x26 DUP4 PUSH2 0x27CB JUMP JUMPDEST SWAP2 POP PUSH2 0x20F2 DUP3 PUSH2 0x2A46 JUMP JUMPDEST PUSH1 0x40 DUP3 ADD SWAP1 POP SWAP2 SWAP1 POP JUMP JUMPDEST PUSH1 0x0 PUSH2 0x210A PUSH1 0xF DUP4 PUSH2 0x27CB JUMP JUMPDEST SWAP2 POP PUSH2 0x2115 DUP3 PUSH2 0x2A95 JUMP JUMPDEST PUSH1 0x20 DUP3 ADD SWAP1 POP SWAP2 SWAP1 POP JUMP JUMPDEST PUSH1 0x0 PUSH2 0x212D PUSH1 0x20 DUP4 PUSH2 0x27CB JUMP JUMPDEST SWAP2 POP PUSH2 0x2138 DUP3 PUSH2 0x2ABE JUMP JUMPDEST PUSH1 0x20 DUP3 ADD SWAP1 POP SWAP2 SWAP1 POP JUMP JUMPDEST PUSH1 0x0 PUSH2 0x2150 PUSH1 0x14 DUP4 PUSH2 0x27CB JUMP JUMPDEST SWAP2 POP PUSH2 0x215B DUP3 PUSH2 0x2AE7 JUMP JUMPDEST PUSH1 0x20 DUP3 ADD SWAP1 POP SWAP2 SWAP1 POP JUMP JUMPDEST PUSH1 0x0 PUSH2 0x2173 PUSH1 0x18 DUP4 PUSH2 0x27CB JUMP JUMPDEST SWAP2 POP PUSH2 0x217E DUP3 PUSH2 0x2B10 JUMP JUMPDEST PUSH1 0x20 DUP3 ADD SWAP1 POP SWAP2 SWAP1 POP JUMP JUMPDEST PUSH1 0x0 PUSH2 0x2196 PUSH1 0x3D DUP4 PUSH2 0x27CB JUMP JUMPDEST SWAP2 POP PUSH2 0x21A1 DUP3 PUSH2 0x2B39 JUMP JUMPDEST PUSH1 0x40 DUP3 ADD SWAP1 POP SWAP2 SWAP1 POP JUMP JUMPDEST PUSH1 0x0 PUSH2 0x21B9 PUSH1 0x33 DUP4 PUSH2 0x27CB JUMP JUMPDEST SWAP2 POP PUSH2 0x21C4 DUP3 PUSH2 0x2B88 JUMP JUMPDEST PUSH1 0x40 DUP3 ADD SWAP1 POP SWAP2 SWAP1 POP JUMP JUMPDEST PUSH1 0x0 PUSH2 0x21DC PUSH1 0xE DUP4 PUSH2 0x27CB JUMP JUMPDEST SWAP2 POP PUSH2 0x21E7 DUP3 PUSH2 0x2BD7 JUMP JUMPDEST PUSH1 0x20 DUP3 ADD SWAP1 POP SWAP2 SWAP1 POP JUMP JUMPDEST PUSH1 0x0 PUSH2 0x21FF PUSH1 0x17 DUP4 PUSH2 0x27CB JUMP JUMPDEST SWAP2 POP PUSH2 0x220A DUP3 PUSH2 0x2C00 JUMP JUMPDEST PUSH1 0x20 DUP3 ADD SWAP1 POP SWAP2 SWAP1 POP JUMP JUMPDEST PUSH1 0x0 PUSH2 0x2222 PUSH1 0x27 DUP4 PUSH2 0x27CB JUMP JUMPDEST SWAP2 POP PUSH2 0x222D DUP3 PUSH2 0x2C29 JUMP JUMPDEST PUSH1 0x40 DUP3 ADD SWAP1 POP SWAP2 SWAP1 POP JUMP JUMPDEST PUSH1 0x0 PUSH2 0x2245 PUSH1 0x20 DUP4 PUSH2 0x27CB JUMP JUMPDEST SWAP2 POP PUSH2 0x2250 DUP3 PUSH2 0x2C78 JUMP JUMPDEST PUSH1 0x20 DUP3 ADD SWAP1 POP SWAP2 SWAP1 POP JUMP JUMPDEST PUSH1 0x0 PUSH2 0x2268 PUSH1 0x18 DUP4 PUSH2 0x27CB JUMP JUMPDEST SWAP2 POP PUSH2 0x2273 DUP3 PUSH2 0x2CA1 JUMP JUMPDEST PUSH1 0x20 DUP3 ADD SWAP1 POP SWAP2 SWAP1 POP JUMP JUMPDEST PUSH1 0x0 PUSH2 0x228B PUSH1 0x17 DUP4 PUSH2 0x27CB JUMP JUMPDEST SWAP2 POP PUSH2 0x2296 DUP3 PUSH2 0x2CCA JUMP JUMPDEST PUSH1 0x20 DUP3 ADD SWAP1 POP SWAP2 SWAP1 POP JUMP JUMPDEST PUSH1 0x0 PUSH2 0x22AE PUSH1 0x12 DUP4 PUSH2 0x27CB JUMP JUMPDEST SWAP2 POP PUSH2 0x22B9 DUP3 PUSH2 0x2CF3 JUMP JUMPDEST PUSH1 0x20 DUP3 ADD SWAP1 POP SWAP2 SWAP1 POP JUMP JUMPDEST PUSH1 0x0 PUSH2 0x22D1 PUSH1 0x1E DUP4 PUSH2 0x27CB JUMP JUMPDEST SWAP2 POP PUSH2 0x22DC DUP3 PUSH2 0x2D1C JUMP JUMPDEST PUSH1 0x20 DUP3 ADD SWAP1 POP SWAP2 SWAP1 POP JUMP JUMPDEST PUSH1 0x0 PUSH2 0x22F4 PUSH1 0x27 DUP4 PUSH2 0x27CB JUMP JUMPDEST SWAP2 POP PUSH2 0x22FF DUP3 PUSH2 0x2D45 JUMP JUMPDEST PUSH1 0x40 DUP3 ADD SWAP1 POP SWAP2 SWAP1 POP JUMP JUMPDEST PUSH1 0x0 PUSH2 0x2317 PUSH1 0x2A DUP4 PUSH2 0x27CB JUMP JUMPDEST SWAP2 POP PUSH2 0x2322 DUP3 PUSH2 0x2D94 JUMP JUMPDEST PUSH1 0x40 DUP3 ADD SWAP1 POP SWAP2 SWAP1 POP JUMP JUMPDEST PUSH1 0x0 PUSH2 0x233A PUSH1 0x17 DUP4 PUSH2 0x27CB JUMP JUMPDEST SWAP2 POP PUSH2 0x2345 DUP3 PUSH2 0x2DE3 JUMP JUMPDEST PUSH1 0x20 DUP3 ADD SWAP1 POP SWAP2 SWAP1 POP JUMP JUMPDEST PUSH1 0x0 PUSH2 0x235D PUSH1 0x1F DUP4 PUSH2 0x27CB JUMP JUMPDEST SWAP2 POP PUSH2 0x2368 DUP3 PUSH2 0x2E0C JUMP JUMPDEST PUSH1 0x20 DUP3 ADD SWAP1 POP SWAP2 SWAP1 POP JUMP JUMPDEST PUSH2 0x237C DUP2 PUSH2 0x28FB JUMP JUMPDEST DUP3 MSTORE POP POP JUMP JUMPDEST PUSH1 0x0 PUSH1 0x20 DUP3 ADD SWAP1 POP PUSH2 0x2397 PUSH1 0x0 DUP4 ADD DUP5 PUSH2 0x2076 JUMP JUMPDEST SWAP3 SWAP2 POP POP JUMP JUMPDEST PUSH1 0x0 PUSH1 0x60 DUP3 ADD SWAP1 POP PUSH2 0x23B2 PUSH1 0x0 DUP4 ADD DUP7 PUSH2 0x2076 JUMP JUMPDEST PUSH2 0x23BF PUSH1 0x20 DUP4 ADD DUP6 PUSH2 0x2076 JUMP JUMPDEST PUSH2 0x23CC PUSH1 0x40 DUP4 ADD DUP5 PUSH2 0x2373 JUMP JUMPDEST SWAP5 SWAP4 POP POP POP POP JUMP JUMPDEST PUSH1 0x0 PUSH1 0x40 DUP3 ADD SWAP1 POP PUSH2 0x23E9 PUSH1 0x0 DUP4 ADD DUP6 PUSH2 0x2076 JUMP JUMPDEST PUSH2 0x23F6 PUSH1 0x20 DUP4 ADD DUP5 PUSH2 0x2373 JUMP JUMPDEST SWAP4 SWAP3 POP POP POP JUMP JUMPDEST PUSH1 0x0 PUSH1 0x60 DUP3 ADD SWAP1 POP PUSH2 0x2412 PUSH1 0x0 DUP4 ADD DUP7 PUSH2 0x2076 JUMP JUMPDEST PUSH2 0x241F PUSH1 0x20 DUP4 ADD DUP6 PUSH2 0x2373 JUMP JUMPDEST PUSH2 0x242C PUSH1 0x40 DUP4 ADD DUP5 PUSH2 0x2373 JUMP JUMPDEST SWAP5 SWAP4 POP POP POP POP JUMP JUMPDEST PUSH1 0x0 PUSH1 0x20 DUP3 ADD SWAP1 POP PUSH2 0x2449 PUSH1 0x0 DUP4 ADD DUP5 PUSH2 0x2085 JUMP JUMPDEST SWAP3 SWAP2 POP POP JUMP JUMPDEST PUSH1 0x0 PUSH1 0x20 DUP3 ADD SWAP1 POP DUP2 DUP2 SUB PUSH1 0x0 DUP4 ADD MSTORE PUSH2 0x2468 DUP2 PUSH2 0x2094 JUMP JUMPDEST SWAP1 POP SWAP2 SWAP1 POP JUMP JUMPDEST PUSH1 0x0 PUSH1 0x20 DUP3 ADD SWAP1 POP DUP2 DUP2 SUB PUSH1 0x0 DUP4 ADD MSTORE PUSH2 0x2488 DUP2 PUSH2 0x20B7 JUMP JUMPDEST SWAP1 POP SWAP2 SWAP1 POP JUMP JUMPDEST PUSH1 0x0 PUSH1 0x20 DUP3 ADD SWAP1 POP DUP2 DUP2 SUB PUSH1 0x0 DUP4 ADD MSTORE PUSH2 0x24A8 DUP2 PUSH2 0x20DA JUMP JUMPDEST SWAP1 POP SWAP2 SWAP1 POP JUMP JUMPDEST PUSH1 0x0 PUSH1 0x20 DUP3 ADD SWAP1 POP DUP2 DUP2 SUB PUSH1 0x0 DUP4 ADD MSTORE PUSH2 0x24C8 DUP2 PUSH2 0x20FD JUMP JUMPDEST SWAP1 POP SWAP2 SWAP1 POP JUMP JUMPDEST PUSH1 0x0 PUSH1 0x20 DUP3 ADD SWAP1 POP DUP2 DUP2 SUB PUSH1 0x0 DUP4 ADD MSTORE PUSH2 0x24E8 DUP2 PUSH2 0x2120 JUMP JUMPDEST SWAP1 POP SWAP2 SWAP1 POP JUMP JUMPDEST PUSH1 0x0 PUSH1 0x20 DUP3 ADD SWAP1 POP DUP2 DUP2 SUB PUSH1 0x0 DUP4 ADD MSTORE PUSH2 0x2508 DUP2 PUSH2 0x2143 JUMP JUMPDEST SWAP1 POP SWAP2 SWAP1 POP JUMP JUMPDEST PUSH1 0x0 PUSH1 0x20 DUP3 ADD SWAP1 POP DUP2 DUP2 SUB PUSH1 0x0 DUP4 ADD MSTORE PUSH2 0x2528 DUP2 PUSH2 0x2166 JUMP JUMPDEST SWAP1 POP SWAP2 SWAP1 POP JUMP JUMPDEST PUSH1 0x0 PUSH1 0x20 DUP3 ADD SWAP1 POP DUP2 DUP2 SUB PUSH1 0x0 DUP4 ADD MSTORE PUSH2 0x2548 DUP2 PUSH2 0x2189 JUMP JUMPDEST SWAP1 POP SWAP2 SWAP1 POP JUMP JUMPDEST PUSH1 0x0 PUSH1 0x20 DUP3 ADD SWAP1 POP DUP2 DUP2 SUB PUSH1 0x0 DUP4 ADD MSTORE PUSH2 0x2568 DUP2 PUSH2 0x21AC JUMP JUMPDEST SWAP1 POP SWAP2 SWAP1 POP JUMP JUMPDEST PUSH1 0x0 PUSH1 0x20 DUP3 ADD SWAP1 POP DUP2 DUP2 SUB PUSH1 0x0 DUP4 ADD MSTORE PUSH2 0x2588 DUP2 PUSH2 0x21CF JUMP JUMPDEST SWAP1 POP SWAP2 SWAP1 POP JUMP JUMPDEST PUSH1 0x0 PUSH1 0x20 DUP3 ADD SWAP1 POP DUP2 DUP2 SUB PUSH1 0x0 DUP4 ADD MSTORE PUSH2 0x25A8 DUP2 PUSH2 0x21F2 JUMP JUMPDEST SWAP1 POP SWAP2 SWAP1 POP JUMP JUMPDEST PUSH1 0x0 PUSH1 0x20 DUP3 ADD SWAP1 POP DUP2 DUP2 SUB PUSH1 0x0 DUP4 ADD MSTORE PUSH2 0x25C8 DUP2 PUSH2 0x2215 JUMP JUMPDEST SWAP1 POP SWAP2 SWAP1 POP JUMP JUMPDEST PUSH1 0x0 PUSH1 0x20 DUP3 ADD SWAP1 POP DUP2 DUP2 SUB PUSH1 0x0 DUP4 ADD MSTORE PUSH2 0x25E8 DUP2 PUSH2 0x2238 JUMP JUMPDEST SWAP1 POP SWAP2 SWAP1 POP JUMP JUMPDEST PUSH1 0x0 PUSH1 0x20 DUP3 ADD SWAP1 POP DUP2 DUP2 SUB PUSH1 0x0 DUP4 ADD MSTORE PUSH2 0x2608 DUP2 PUSH2 0x225B JUMP JUMPDEST SWAP1 POP SWAP2 SWAP1 POP JUMP JUMPDEST PUSH1 0x0 PUSH1 0x20 DUP3 ADD SWAP1 POP DUP2 DUP2 SUB PUSH1 0x0 DUP4 ADD MSTORE PUSH2 0x2628 DUP2 PUSH2 0x227E JUMP JUMPDEST SWAP1 POP SWAP2 SWAP1 POP JUMP JUMPDEST PUSH1 0x0 PUSH1 0x20 DUP3 ADD SWAP1 POP DUP2 DUP2 SUB PUSH1 0x0 DUP4 ADD MSTORE PUSH2 0x2648 DUP2 PUSH2 0x22A1 JUMP JUMPDEST SWAP1 POP SWAP2 SWAP1 POP JUMP JUMPDEST PUSH1 0x0 PUSH1 0x20 DUP3 ADD SWAP1 POP DUP2 DUP2 SUB PUSH1 0x0 DUP4 ADD MSTORE PUSH2 0x2668 DUP2 PUSH2 0x22C4 JUMP JUMPDEST SWAP1 POP SWAP2 SWAP1 POP JUMP JUMPDEST PUSH1 0x0 PUSH1 0x20 DUP3 ADD SWAP1 POP DUP2 DUP2 SUB PUSH1 0x0 DUP4 ADD MSTORE PUSH2 0x2688 DUP2 PUSH2 0x22E7 JUMP JUMPDEST SWAP1 POP SWAP2 SWAP1 POP JUMP JUMPDEST PUSH1 0x0 PUSH1 0x20 DUP3 ADD SWAP1 POP DUP2 DUP2 SUB PUSH1 0x0 DUP4 ADD MSTORE PUSH2 0x26A8 DUP2 PUSH2 0x230A JUMP JUMPDEST SWAP1 POP SWAP2 SWAP1 POP JUMP JUMPDEST PUSH1 0x0 PUSH1 0x20 DUP3 ADD SWAP1 POP DUP2 DUP2 SUB PUSH1 0x0 DUP4 ADD MSTORE PUSH2 0x26C8 DUP2 PUSH2 0x232D JUMP JUMPDEST SWAP1 POP SWAP2 SWAP1 POP JUMP JUMPDEST PUSH1 0x0 PUSH1 0x20 DUP3 ADD SWAP1 POP DUP2 DUP2 SUB PUSH1 0x0 DUP4 ADD MSTORE PUSH2 0x26E8 DUP2 PUSH2 0x2350 JUMP JUMPDEST SWAP1 POP SWAP2 SWAP1 POP JUMP JUMPDEST PUSH1 0x0 PUSH1 0x20 DUP3 ADD SWAP1 POP PUSH2 0x2704 PUSH1 0x0 DUP4 ADD DUP5 PUSH2 0x2373 JUMP JUMPDEST SWAP3 SWAP2 POP POP JUMP JUMPDEST PUSH1 0x0 PUSH1 0x40 DUP3 ADD SWAP1 POP PUSH2 0x271F PUSH1 0x0 DUP4 ADD DUP6 PUSH2 0x2373 JUMP JUMPDEST PUSH2 0x272C PUSH1 0x20 DUP4 ADD DUP5 PUSH2 0x2373 JUMP JUMPDEST SWAP4 SWAP3 POP POP POP JUMP JUMPDEST PUSH1 0x0 PUSH1 0x80 DUP3 ADD SWAP1 POP PUSH2 0x2748 PUSH1 0x0 DUP4 ADD DUP8 PUSH2 0x2373 JUMP JUMPDEST PUSH2 0x2755 PUSH1 0x20 DUP4 ADD DUP7 PUSH2 0x2373 JUMP JUMPDEST PUSH2 0x2762 PUSH1 0x40 DUP4 ADD DUP6 PUSH2 0x2373 JUMP JUMPDEST PUSH2 0x276F PUSH1 0x60 DUP4 ADD DUP5 PUSH2 0x2373 JUMP JUMPDEST SWAP6 SWAP5 POP POP POP POP POP JUMP JUMPDEST PUSH1 0x0 PUSH1 0xA0 DUP3 ADD SWAP1 POP PUSH2 0x278D PUSH1 0x0 DUP4 ADD DUP9 PUSH2 0x2373 JUMP JUMPDEST PUSH2 0x279A PUSH1 0x20 DUP4 ADD DUP8 PUSH2 0x2373 JUMP JUMPDEST PUSH2 0x27A7 PUSH1 0x40 DUP4 ADD DUP7 PUSH2 0x2373 JUMP JUMPDEST PUSH2 0x27B4 PUSH1 0x60 DUP4 ADD DUP6 PUSH2 0x2373 JUMP JUMPDEST PUSH2 0x27C1 PUSH1 0x80 DUP4 ADD DUP5 PUSH2 0x2373 JUMP JUMPDEST SWAP7 SWAP6 POP POP POP POP POP POP JUMP JUMPDEST PUSH1 0x0 DUP3 DUP3 MSTORE PUSH1 0x20 DUP3 ADD SWAP1 POP SWAP3 SWAP2 POP POP JUMP JUMPDEST PUSH1 0x0 PUSH2 0x27E7 DUP3 PUSH2 0x28FB JUMP JUMPDEST SWAP2 POP PUSH2 0x27F2 DUP4 PUSH2 0x28FB JUMP JUMPDEST SWAP3 POP DUP3 PUSH32 0xFFFFFFFFFFFFFFFFFFFFFFFFFFFFFFFFFFFFFFFFFFFFFFFFFFFFFFFFFFFFFFFF SUB DUP3 GT ISZERO PUSH2 0x2827 JUMPI PUSH2 0x2826 PUSH2 0x294E JUMP JUMPDEST JUMPDEST DUP3 DUP3 ADD SWAP1 POP SWAP3 SWAP2 POP POP JUMP JUMPDEST PUSH1 0x0 PUSH2 0x283D DUP3 PUSH2 0x28FB JUMP JUMPDEST SWAP2 POP PUSH2 0x2848 DUP4 PUSH2 0x28FB JUMP JUMPDEST SWAP3 POP DUP3 PUSH2 0x2858 JUMPI PUSH2 0x2857 PUSH2 0x297D JUMP JUMPDEST JUMPDEST DUP3 DUP3 DIV SWAP1 POP SWAP3 SWAP2 POP POP JUMP JUMPDEST PUSH1 0x0 PUSH2 0x286E DUP3 PUSH2 0x28FB JUMP JUMPDEST SWAP2 POP PUSH2 0x2879 DUP4 PUSH2 0x28FB JUMP JUMPDEST SWAP3 POP DUP2 PUSH32 0xFFFFFFFFFFFFFFFFFFFFFFFFFFFFFFFFFFFFFFFFFFFFFFFFFFFFFFFFFFFFFFFF DIV DUP4 GT DUP3 ISZERO ISZERO AND ISZERO PUSH2 0x28B2 JUMPI PUSH2 0x28B1 PUSH2 0x294E JUMP JUMPDEST JUMPDEST DUP3 DUP3 MUL SWAP1 POP SWAP3 SWAP2 POP POP JUMP JUMPDEST PUSH1 0x0 PUSH2 0x28C8 DUP3 PUSH2 0x28DB JUMP JUMPDEST SWAP1 POP SWAP2 SWAP1 POP JUMP JUMPDEST PUSH1 0x0 DUP2 ISZERO ISZERO SWAP1 POP SWAP2 SWAP1 POP JUMP JUMPDEST PUSH1 0x0 PUSH20 0xFFFFFFFFFFFFFFFFFFFFFFFFFFFFFFFFFFFFFFFF DUP3 AND SWAP1 POP SWAP2 SWAP1 POP JUMP JUMPDEST PUSH1 0x0 DUP2 SWAP1 POP SWAP2 SWAP1 POP JUMP JUMPDEST PUSH1 0x0 PUSH2 0x2910 DUP3 PUSH2 0x28FB JUMP JUMPDEST SWAP2 POP PUSH32 0xFFFFFFFFFFFFFFFFFFFFFFFFFFFFFFFFFFFFFFFFFFFFFFFFFFFFFFFFFFFFFFFF DUP3 EQ ISZERO PUSH2 0x2943 JUMPI PUSH2 0x2942 PUSH2 0x294E JUMP JUMPDEST JUMPDEST PUSH1 0x1 DUP3 ADD SWAP1 POP SWAP2 SWAP1 POP JUMP JUMPDEST PUSH32 0x4E487B7100000000000000000000000000000000000000000000000000000000 PUSH1 0x0 MSTORE PUSH1 0x11 PUSH1 0x4 MSTORE PUSH1 0x24 PUSH1 0x0 REVERT JUMPDEST PUSH32 0x4E487B7100000000000000000000000000000000000000000000000000000000 PUSH1 0x0 MSTORE PUSH1 0x12 PUSH1 0x4 MSTORE PUSH1 0x24 PUSH1 0x0 REVERT JUMPDEST PUSH32 0x4E487B7100000000000000000000000000000000000000000000000000000000 PUSH1 0x0 MSTORE PUSH1 0x32 PUSH1 0x4 MSTORE PUSH1 0x24 PUSH1 0x0 REVERT JUMPDEST PUSH1 0x0 DUP1 REVERT JUMPDEST PUSH1 0x0 DUP1 REVERT JUMPDEST PUSH1 0x0 DUP1 REVERT JUMPDEST PUSH1 0x0 DUP1 REVERT JUMPDEST PUSH1 0x0 DUP1 REVERT JUMPDEST PUSH32 0x506F6F6C20686173206265656E20696E697469616C697A656400000000000000 PUSH1 0x0 DUP3 ADD MSTORE POP JUMP JUMPDEST PUSH32 0x506175736564204561726E000000000000000000000000000000000000000000 PUSH1 0x0 DUP3 ADD MSTORE POP JUMP JUMPDEST PUSH32 0x4F776E61626C653A206E6577206F776E657220697320746865207A65726F2061 PUSH1 0x0 DUP3 ADD MSTORE PUSH32 0x6464726573730000000000000000000000000000000000000000000000000000 PUSH1 0x20 DUP3 ADD MSTORE POP JUMP JUMPDEST PUSH32 0x5472616E73666572206661696C65640000000000000000000000000000000000 PUSH1 0x0 DUP3 ADD MSTORE POP JUMP JUMPDEST PUSH32 0x416D6F756E74206D7573742062652067726561746572207468616E207A65726F PUSH1 0x0 DUP3 ADD MSTORE POP JUMP JUMPDEST PUSH32 0x496E73756666696369656E742062616C616E6365000000000000000000000000 PUSH1 0x0 DUP3 ADD MSTORE POP JUMP JUMPDEST PUSH32 0x596F7520617265206E6F7420696E2077686974656C6973740000000000000000 PUSH1 0x0 DUP3 ADD MSTORE POP JUMP JUMPDEST PUSH32 0x596F75206E65656420746F207761697420666F7220746865206465706F736974 PUSH1 0x0 DUP3 ADD MSTORE PUSH32 0x20746F2066696E697368206265666F7265207769746864726177696E67000000 PUSH1 0x20 DUP3 ADD MSTORE POP JUMP JUMPDEST PUSH32 0x596F75206861766520616C72656164792077697468647261776E20796F757220 PUSH1 0x0 DUP3 ADD MSTORE PUSH32 0x6361706974616C20616E642070726F6669747300000000000000000000000000 PUSH1 0x20 DUP3 ADD MSTORE POP JUMP JUMPDEST PUSH32 0x417070726F7665206661696C6564000000000000000000000000000000000000 PUSH1 0x0 DUP3 ADD MSTORE POP JUMP JUMPDEST PUSH32 0x506F6F6C206973206E6F7420696E697469616C697A6564000000000000000000 PUSH1 0x0 DUP3 ADD MSTORE POP JUMP JUMPDEST PUSH32 0x416D6F756E74206973206C657373207468616E20746865206D696E696D756D20 PUSH1 0x0 DUP3 ADD MSTORE PUSH32 0x616C6C6F77656400000000000000000000000000000000000000000000000000 PUSH1 0x20 DUP3 ADD MSTORE POP JUMP JUMPDEST PUSH32 0x4F776E61626C653A2063616C6C6572206973206E6F7420746865206F776E6572 PUSH1 0x0 DUP3 ADD MSTORE POP JUMP JUMPDEST PUSH32 0x506F6F6C20697473206E6F7420696E697469616C697A65640000000000000000 PUSH1 0x0 DUP3 ADD MSTORE POP JUMP JUMPDEST PUSH32 0x436F6E7472616374206C696D6974206578636565646564000000000000000000 PUSH1 0x0 DUP3 ADD MSTORE POP JUMP JUMPDEST PUSH32 0x496E76616C6964206465706F7369742049440000000000000000000000000000 PUSH1 0x0 DUP3 ADD MSTORE POP JUMP JUMPDEST PUSH32 0x55736572206861732072656163686564206465706F736974206C696D69740000 PUSH1 0x0 DUP3 ADD MSTORE POP JUMP JUMPDEST PUSH32 0x596F75206861766520616C72656164792077697468647261776E20796F757220 PUSH1 0x0 DUP3 ADD MSTORE PUSH32 0x7265776172647300000000000000000000000000000000000000000000000000 PUSH1 0x20 DUP3 ADD MSTORE POP JUMP JUMPDEST PUSH32 0x416D6F756E742069732067726561746572207468616E20746865206D6178696D PUSH1 0x0 DUP3 ADD MSTORE PUSH32 0x756D20616C6C6F77656400000000000000000000000000000000000000000000 PUSH1 0x20 DUP3 ADD MSTORE POP JUMP JUMPDEST PUSH32 0x746865206E756D626572207468616E2067726561742030000000000000000000 PUSH1 0x0 DUP3 ADD MSTORE POP JUMP JUMPDEST PUSH32 0x5265656E7472616E637947756172643A207265656E7472616E742063616C6C00 PUSH1 0x0 DUP3 ADD MSTORE POP JUMP JUMPDEST PUSH2 0x2E3E DUP2 PUSH2 0x28BD JUMP JUMPDEST DUP2 EQ PUSH2 0x2E49 JUMPI PUSH1 0x0 DUP1 REVERT JUMPDEST POP JUMP JUMPDEST PUSH2 0x2E55 DUP2 PUSH2 0x28CF JUMP JUMPDEST DUP2 EQ PUSH2 0x2E60 JUMPI PUSH1 0x0 DUP1 REVERT JUMPDEST POP JUMP JUMPDEST PUSH2 0x2E6C DUP2 PUSH2 0x28FB JUMP JUMPDEST DUP2 EQ PUSH2 0x2E77 JUMPI PUSH1 0x0 DUP1 REVERT JUMPDEST POP JUMP INVALID LOG2 PUSH5 0x6970667358 0x22 SLT KECCAK256 0xE5 0xAD 0xB0 0xE0 PUSH28 0xBE2428FBA42D12ED722EF8313A87507D45A4D0795A44658F45BE6D64 PUSH20 0x6F6C634300080500330000000000000000000000 "},"methodIdentifiers":{"ChangeDays(uint256)":"16451dc9","ChangeLimitAmount(uint256)":"6b68f810","ChangeMaxAmount(uint256)":"13cad1d1","ChangeMinAmount(uint256)":"bb1711a6","ChangePercent(uint256)":"97a64101","ChangeRecolect(uint256)":"6ff8f8c2","ChangeWalletRecibe(address)":"47afd82f","Deposit(uint256)":"4d6ce1e5","EarlyClaim(address,uint256)":"714a2b90","EarnDeposit(uint256)":"c760dad5","Initialized(uint256,uint256,uint256,uint256,uint256)":"3366bff9","MaxAmount()":"60a81002","Migration(address,uint256,uint256,uint256,uint256,uint256)":"bdcbd5a9","MinAmount()":"ec652406","PercentEarn()":"54f3a6e0","RecoverTokens(address)":"478b0f87","TokenRecibe()":"0a1e6314","ViewDay()":"6ffe7bbe","addToWhitelist(address[])":"7f649783","addUserWhiteList(address)":"2a8a9938","balanceUser(address,uint256)":"b8d25a43","depositCount(address)":"f4443d9a","getWhiteList()":"09a9d76c","limit()":"a4d66daf","lock()":"f83d08ba","owner()":"8da5cb5b","recolect()":"7586c414","removeFromWhitelist(address[])":"548db174","renounceOwnership()":"715018a6","transferOwnership(address)":"f2fde38b","walletPool()":"e5c154f1","whiteList(address)":"372c12b1"}},"storageLayout":{"storage":[{"astId":412,"contract":"contracts/Earni.sol:EARNPRIVATE","label":"_owner","offset":0,"slot":"0","type":"t_address"},{"astId":526,"contract":"contracts/Earni.sol:EARNPRIVATE","label":"_status","offset":0,"slot":"1","type":"t_uint256"},{"astId":579,"contract":"contracts/Earni.sol:EARNPRIVATE","label":"walletPool","offset":0,"slot":"2","type":"t_address"},{"astId":581,"contract":"contracts/Earni.sol:EARNPRIVATE","label":"TokenRecibe","offset":0,"slot":"3","type":"t_address"},{"astId":583,"contract":"contracts/Earni.sol:EARNPRIVATE","label":"Wallet1","offset":0,"slot":"4","type":"t_address"},{"astId":585,"contract":"contracts/Earni.sol:EARNPRIVATE","label":"Wallet2","offset":0,"slot":"5","type":"t_address"},{"astId":587,"contract":"contracts/Earni.sol:EARNPRIVATE","label":"recolect","offset":0,"slot":"6","type":"t_uint256"},{"astId":589,"contract":"contracts/Earni.sol:EARNPRIVATE","label":"limit","offset":0,"slot":"7","type":"t_uint256"},{"astId":591,"contract":"contracts/Earni.sol:EARNPRIVATE","label":"MaxAmount","offset":0,"slot":"8","type":"t_uint256"},{"astId":593,"contract":"contracts/Earni.sol:EARNPRIVATE","label":"MinAmount","offset":0,"slot":"9","type":"t_uint256"},{"astId":595,"contract":"contracts/Earni.sol:EARNPRIVATE","label":"PercentEarn","offset":0,"slot":"10","type":"t_uint256"},{"astId":598,"contract":"contracts/Earni.sol:EARNPRIVATE","label":"secondPerDay","offset":0,"slot":"11","type":"t_uint256"},{"astId":600,"contract":"contracts/Earni.sol:EARNPRIVATE","label":"TimeDays","offset":0,"slot":"12","type":"t_uint256"},{"astId":602,"contract":"contracts/Earni.sol:EARNPRIVATE","label":"_lock","offset":0,"slot":"13","type":"t_bool"},{"astId":604,"contract":"contracts/Earni.sol:EARNPRIVATE","label":"_initialized","offset":1,"slot":"13","type":"t_bool"},{"astId":606,"contract":"contracts/Earni.sol:EARNPRIVATE","label":"_whiteList","offset":2,"slot":"13","type":"t_bool"},{"astId":612,"contract":"contracts/Earni.sol:EARNPRIVATE","label":"balanceUser","offset":0,"slot":"14","type":"t_mapping(t_address,t_array(t_struct(Users)671_storage)dyn_storage)"},{"astId":616,"contract":"contracts/Earni.sol:EARNPRIVATE","label":"depositCount","offset":0,"slot":"15","type":"t_mapping(t_address,t_uint256)"},{"astId":620,"contract":"contracts/Earni.sol:EARNPRIVATE","label":"whiteList","offset":0,"slot":"16","type":"t_mapping(t_address,t_bool)"}],"types":{"t_address":{"encoding":"inplace","label":"address","numberOfBytes":"20"},"t_array(t_struct(Users)671_storage)dyn_storage":{"base":"t_struct(Users)671_storage","encoding":"dynamic_array","label":"struct EARNPRIVATE.Users[]","numberOfBytes":"32"},"t_bool":{"encoding":"inplace","label":"bool","numberOfBytes":"1"},"t_mapping(t_address,t_array(t_struct(Users)671_storage)dyn_storage)":{"encoding":"mapping","key":"t_address","label":"mapping(address => struct EARNPRIVATE.Users[])","numberOfBytes":"32","value":"t_array(t_struct(Users)671_storage)dyn_storage"},"t_mapping(t_address,t_bool)":{"encoding":"mapping","key":"t_address","label":"mapping(address => bool)","numberOfBytes":"32","value":"t_bool"},"t_mapping(t_address,t_uint256)":{"encoding":"mapping","key":"t_address","label":"mapping(address => uint256)","numberOfBytes":"32","value":"t_uint256"},"t_struct(Users)671_storage":{"encoding":"inplace","label":"struct EARNPRIVATE.Users","members":[{"astId":664,"contract":"contracts/Earni.sol:EARNPRIVATE","label":"Amount","offset":0,"slot":"0","type":"t_uint256"},{"astId":666,"contract":"contracts/Earni.sol:EARNPRIVATE","label":"initTime","offset":0,"slot":"1","type":"t_uint256"},{"astId":668,"contract":"contracts/Earni.sol:EARNPRIVATE","label":"finishTime","offset":0,"slot":"2","type":"t_uint256"},{"astId":670,"contract":"contracts/Earni.sol:EARNPRIVATE","label":"Earn","offset":0,"slot":"3","type":"t_uint256"}],"numberOfBytes":"128"},"t_uint256":{"encoding":"inplace","label":"uint256","numberOfBytes":"32"}}}}}}